
coremark:     file format elf32-littleriscv


Disassembly of section .init:

00000000 <_start>:
   0:	10001197          	auipc	gp,0x10001
   4:	f5818193          	addi	gp,gp,-168 # 10000f58 <__global_pointer$>
   8:	10003117          	auipc	sp,0x10003
   c:	ff810113          	addi	sp,sp,-8 # 10003000 <_sp>
  10:	00006517          	auipc	a0,0x6
  14:	69850513          	addi	a0,a0,1688 # 66a8 <_data_lma>
  18:	10000597          	auipc	a1,0x10000
  1c:	fe858593          	addi	a1,a1,-24 # 10000000 <_data>
  20:	80818613          	addi	a2,gp,-2040 # 10000760 <seed1_volatile>
  24:	00c5fc63          	bgeu	a1,a2,3c <_start+0x3c>
  28:	00052283          	lw	t0,0(a0)
  2c:	0055a023          	sw	t0,0(a1)
  30:	00450513          	addi	a0,a0,4
  34:	00458593          	addi	a1,a1,4
  38:	fec5e8e3          	bltu	a1,a2,28 <_start+0x28>
  3c:	80818513          	addi	a0,gp,-2040 # 10000760 <seed1_volatile>
  40:	00018593          	mv	a1,gp
  44:	00b57863          	bgeu	a0,a1,54 <_start+0x54>
  48:	00052023          	sw	zero,0(a0)
  4c:	00450513          	addi	a0,a0,4
  50:	feb56ce3          	bltu	a0,a1,48 <_start+0x48>
  54:	520040ef          	jal	ra,4574 <_init>
  58:	008000ef          	jal	ra,60 <main>

0000005c <loop>:
  5c:	0000006f          	j	5c <loop>

Disassembly of section .text:

00000060 <main>:
      60:	f8010113          	addi	sp,sp,-128
      64:	00058613          	mv	a2,a1
      68:	00a12623          	sw	a0,12(sp)
      6c:	00c10593          	addi	a1,sp,12
      70:	05c10513          	addi	a0,sp,92
      74:	06112e23          	sw	ra,124(sp)
      78:	06812c23          	sw	s0,120(sp)
      7c:	06912a23          	sw	s1,116(sp)
      80:	07212823          	sw	s2,112(sp)
      84:	07312623          	sw	s3,108(sp)
      88:	07412423          	sw	s4,104(sp)
      8c:	4c4040ef          	jal	ra,4550 <portable_init>
      90:	00100513          	li	a0,1
      94:	161030ef          	jal	ra,39f4 <get_seed_32>
      98:	00a11c23          	sh	a0,24(sp)
      9c:	00200513          	li	a0,2
      a0:	155030ef          	jal	ra,39f4 <get_seed_32>
      a4:	00a11d23          	sh	a0,26(sp)
      a8:	00300513          	li	a0,3
      ac:	149030ef          	jal	ra,39f4 <get_seed_32>
      b0:	00a11e23          	sh	a0,28(sp)
      b4:	00400513          	li	a0,4
      b8:	13d030ef          	jal	ra,39f4 <get_seed_32>
      bc:	02a12a23          	sw	a0,52(sp)
      c0:	00500513          	li	a0,5
      c4:	131030ef          	jal	ra,39f4 <get_seed_32>
      c8:	3c050c63          	beqz	a0,4a0 <main+0x440>
      cc:	02a12c23          	sw	a0,56(sp)
      d0:	01812083          	lw	ra,24(sp)
      d4:	44009663          	bnez	ra,520 <main+0x4c0>
      d8:	01c11403          	lh	s0,28(sp)
      dc:	46040063          	beqz	s0,53c <main+0x4dc>
      e0:	03812483          	lw	s1,56(sp)
      e4:	83018593          	addi	a1,gp,-2000 # 10000788 <static_memblk>
      e8:	02b12023          	sw	a1,32(sp)
      ec:	0024f713          	andi	a4,s1,2
      f0:	0014f693          	andi	a3,s1,1
      f4:	00e03533          	snez	a0,a4
      f8:	04011c23          	sh	zero,88(sp)
      fc:	0044f813          	andi	a6,s1,4
     100:	00a689b3          	add	s3,a3,a0
     104:	00080863          	beqz	a6,114 <main+0xb4>
     108:	00198893          	addi	a7,s3,1
     10c:	01089913          	slli	s2,a7,0x10
     110:	01095993          	srli	s3,s2,0x10
     114:	7d000a13          	li	s4,2000
     118:	033a5533          	divu	a0,s4,s3
     11c:	00000f93          	li	t6,0
     120:	02a12823          	sw	a0,48(sp)
     124:	3a069463          	bnez	a3,4cc <main+0x46c>
     128:	38071263          	bnez	a4,4ac <main+0x44c>
     12c:	3a081863          	bnez	a6,4dc <main+0x47c>
     130:	2e069a63          	bnez	a3,424 <main+0x3c4>
     134:	30071663          	bnez	a4,440 <main+0x3e0>
     138:	0044f593          	andi	a1,s1,4
     13c:	00058a63          	beqz	a1,150 <main+0xf0>
     140:	02c12603          	lw	a2,44(sp)
     144:	01811583          	lh	a1,24(sp)
     148:	03012503          	lw	a0,48(sp)
     14c:	164030ef          	jal	ra,32b0 <core_init_state>
     150:	03412683          	lw	a3,52(sp)
     154:	04069a63          	bnez	a3,1a8 <main+0x148>
     158:	00100613          	li	a2,1
     15c:	02c12a23          	sw	a2,52(sp)
     160:	03412503          	lw	a0,52(sp)
     164:	00251813          	slli	a6,a0,0x2
     168:	00a808b3          	add	a7,a6,a0
     16c:	00189913          	slli	s2,a7,0x1
     170:	03212a23          	sw	s2,52(sp)
     174:	32c040ef          	jal	ra,44a0 <start_time>
     178:	01810513          	addi	a0,sp,24
     17c:	378010ef          	jal	ra,14f4 <iterate>
     180:	344040ef          	jal	ra,44c4 <stop_time>
     184:	364040ef          	jal	ra,44e8 <get_time>
     188:	38c040ef          	jal	ra,4514 <time_in_secs>
     18c:	fc050ae3          	beqz	a0,160 <main+0x100>
     190:	00a00993          	li	s3,10
     194:	02a9da33          	divu	s4,s3,a0
     198:	03412e83          	lw	t4,52(sp)
     19c:	001a0e13          	addi	t3,s4,1
     1a0:	03ce8f33          	mul	t5,t4,t3
     1a4:	03e12a23          	sw	t5,52(sp)
     1a8:	2f8040ef          	jal	ra,44a0 <start_time>
     1ac:	01810513          	addi	a0,sp,24
     1b0:	344010ef          	jal	ra,14f4 <iterate>
     1b4:	310040ef          	jal	ra,44c4 <stop_time>
     1b8:	330040ef          	jal	ra,44e8 <get_time>
     1bc:	00050993          	mv	s3,a0
     1c0:	01811503          	lh	a0,24(sp)
     1c4:	00058a13          	mv	s4,a1
     1c8:	00000593          	li	a1,0
     1cc:	02c040ef          	jal	ra,41f8 <crc16>
     1d0:	00050593          	mv	a1,a0
     1d4:	01a11503          	lh	a0,26(sp)
     1d8:	020040ef          	jal	ra,41f8 <crc16>
     1dc:	00050593          	mv	a1,a0
     1e0:	01c11503          	lh	a0,28(sp)
     1e4:	014040ef          	jal	ra,41f8 <crc16>
     1e8:	00050593          	mv	a1,a0
     1ec:	03011503          	lh	a0,48(sp)
     1f0:	008040ef          	jal	ra,41f8 <crc16>
     1f4:	00008fb7          	lui	t6,0x8
     1f8:	b05f8293          	addi	t0,t6,-1275 # 7b05 <_data_lma+0x145d>
     1fc:	00050913          	mv	s2,a0
     200:	3e550463          	beq	a0,t0,5e8 <main+0x588>
     204:	26a2f263          	bgeu	t0,a0,468 <main+0x408>
     208:	000090b7          	lui	ra,0x9
     20c:	a0208313          	addi	t1,ra,-1534 # 8a02 <_data_lma+0x235a>
     210:	3e650663          	beq	a0,t1,5fc <main+0x59c>
     214:	0000f737          	lui	a4,0xf
     218:	9f570793          	addi	a5,a4,-1547 # e9f5 <_data_lma+0x834d>
     21c:	26f51c63          	bne	a0,a5,494 <main+0x434>
     220:	10000517          	auipc	a0,0x10000
     224:	e7c50513          	addi	a0,a0,-388 # 1000009c <_data+0x9c>
     228:	368040ef          	jal	ra,4590 <xprintf>
     22c:	00300493          	li	s1,3
     230:	03812503          	lw	a0,56(sp)
     234:	04011c23          	sh	zero,88(sp)
     238:	00157613          	andi	a2,a0,1
     23c:	04060063          	beqz	a2,27c <main+0x21c>
     240:	00149813          	slli	a6,s1,0x1
     244:	10000897          	auipc	a7,0x10000
     248:	dbc88893          	addi	a7,a7,-580 # 10000000 <_data>
     24c:	01088e33          	add	t3,a7,a6
     250:	05215603          	lhu	a2,82(sp)
     254:	000e5683          	lhu	a3,0(t3)
     258:	02d60263          	beq	a2,a3,27c <main+0x21c>
     25c:	10000517          	auipc	a0,0x10000
     260:	e9c50513          	addi	a0,a0,-356 # 100000f8 <_data+0xf8>
     264:	00000593          	li	a1,0
     268:	328040ef          	jal	ra,4590 <xprintf>
     26c:	05815e83          	lhu	t4,88(sp)
     270:	03812503          	lw	a0,56(sp)
     274:	001e8f13          	addi	t5,t4,1
     278:	05e11c23          	sh	t5,88(sp)
     27c:	00257f93          	andi	t6,a0,2
     280:	040f8063          	beqz	t6,2c0 <main+0x260>
     284:	00149293          	slli	t0,s1,0x1
     288:	10000097          	auipc	ra,0x10000
     28c:	1f008093          	addi	ra,ra,496 # 10000478 <matrix_known_crc>
     290:	00508333          	add	t1,ra,t0
     294:	05415603          	lhu	a2,84(sp)
     298:	00035683          	lhu	a3,0(t1)
     29c:	02d60263          	beq	a2,a3,2c0 <main+0x260>
     2a0:	10000517          	auipc	a0,0x10000
     2a4:	e8850513          	addi	a0,a0,-376 # 10000128 <_data+0x128>
     2a8:	00000593          	li	a1,0
     2ac:	2e4040ef          	jal	ra,4590 <xprintf>
     2b0:	05815703          	lhu	a4,88(sp)
     2b4:	03812503          	lw	a0,56(sp)
     2b8:	00170793          	addi	a5,a4,1
     2bc:	04f11c23          	sh	a5,88(sp)
     2c0:	00457393          	andi	t2,a0,4
     2c4:	02038063          	beqz	t2,2e4 <main+0x284>
     2c8:	00149413          	slli	s0,s1,0x1
     2cc:	10000497          	auipc	s1,0x10000
     2d0:	1b848493          	addi	s1,s1,440 # 10000484 <state_known_crc>
     2d4:	008485b3          	add	a1,s1,s0
     2d8:	05615603          	lhu	a2,86(sp)
     2dc:	0005d683          	lhu	a3,0(a1)
     2e0:	20d61863          	bne	a2,a3,4f0 <main+0x490>
     2e4:	05815403          	lhu	s0,88(sp)
     2e8:	198040ef          	jal	ra,4480 <check_data_types>
     2ec:	03012583          	lw	a1,48(sp)
     2f0:	00a40833          	add	a6,s0,a0
     2f4:	01081893          	slli	a7,a6,0x10
     2f8:	10000517          	auipc	a0,0x10000
     2fc:	e9450513          	addi	a0,a0,-364 # 1000018c <_data+0x18c>
     300:	0108d493          	srli	s1,a7,0x10
     304:	28c040ef          	jal	ra,4590 <xprintf>
     308:	00098593          	mv	a1,s3
     30c:	10000517          	auipc	a0,0x10000
     310:	e9850513          	addi	a0,a0,-360 # 100001a4 <_data+0x1a4>
     314:	27c040ef          	jal	ra,4590 <xprintf>
     318:	000a0593          	mv	a1,s4
     31c:	00098513          	mv	a0,s3
     320:	1f4040ef          	jal	ra,4514 <time_in_secs>
     324:	00050593          	mv	a1,a0
     328:	10000517          	auipc	a0,0x10000
     32c:	e9450513          	addi	a0,a0,-364 # 100001bc <_data+0x1bc>
     330:	260040ef          	jal	ra,4590 <xprintf>
     334:	00098513          	mv	a0,s3
     338:	000a0593          	mv	a1,s4
     33c:	1d8040ef          	jal	ra,4514 <time_in_secs>
     340:	22051263          	bnez	a0,564 <main+0x504>
     344:	00098513          	mv	a0,s3
     348:	000a0593          	mv	a1,s4
     34c:	1c8040ef          	jal	ra,4514 <time_in_secs>
     350:	01049a13          	slli	s4,s1,0x10
     354:	00900993          	li	s3,9
     358:	410a5413          	srai	s0,s4,0x10
     35c:	1ea9f663          	bgeu	s3,a0,548 <main+0x4e8>
     360:	03412583          	lw	a1,52(sp)
     364:	10000517          	auipc	a0,0x10000
     368:	ffc50513          	addi	a0,a0,-4 # 10000360 <_data+0x360>
     36c:	224040ef          	jal	ra,4590 <xprintf>
     370:	10000597          	auipc	a1,0x10000
     374:	00858593          	addi	a1,a1,8 # 10000378 <_data+0x378>
     378:	10000517          	auipc	a0,0x10000
     37c:	00c50513          	addi	a0,a0,12 # 10000384 <_data+0x384>
     380:	210040ef          	jal	ra,4590 <xprintf>
     384:	10000597          	auipc	a1,0x10000
     388:	01858593          	addi	a1,a1,24 # 1000039c <_data+0x39c>
     38c:	10000517          	auipc	a0,0x10000
     390:	09850513          	addi	a0,a0,152 # 10000424 <_data+0x424>
     394:	1fc040ef          	jal	ra,4590 <xprintf>
     398:	10000517          	auipc	a0,0x10000
     39c:	0ac50513          	addi	a0,a0,172 # 10000444 <_data+0x444>
     3a0:	10000597          	auipc	a1,0x10000
     3a4:	09c58593          	addi	a1,a1,156 # 1000043c <_data+0x43c>
     3a8:	1e8040ef          	jal	ra,4590 <xprintf>
     3ac:	00090593          	mv	a1,s2
     3b0:	10000517          	auipc	a0,0x10000
     3b4:	0ac50513          	addi	a0,a0,172 # 1000045c <_data+0x45c>
     3b8:	1d8040ef          	jal	ra,4590 <xprintf>
     3bc:	03812903          	lw	s2,56(sp)
     3c0:	00197f13          	andi	t5,s2,1
     3c4:	200f1463          	bnez	t5,5cc <main+0x56c>
     3c8:	00297f93          	andi	t6,s2,2
     3cc:	1e0f9263          	bnez	t6,5b0 <main+0x550>
     3d0:	00497293          	andi	t0,s2,4
     3d4:	1c029263          	bnez	t0,598 <main+0x538>
     3d8:	05015603          	lhu	a2,80(sp)
     3dc:	00000593          	li	a1,0
     3e0:	10000517          	auipc	a0,0x10000
     3e4:	f1050513          	addi	a0,a0,-240 # 100002f0 <_data+0x2f0>
     3e8:	1a8040ef          	jal	ra,4590 <xprintf>
     3ec:	18040e63          	beqz	s0,588 <main+0x528>
     3f0:	12805063          	blez	s0,510 <main+0x4b0>
     3f4:	10000517          	auipc	a0,0x10000
     3f8:	e8450513          	addi	a0,a0,-380 # 10000278 <_data+0x278>
     3fc:	194040ef          	jal	ra,4590 <xprintf>
     400:	07c12083          	lw	ra,124(sp)
     404:	07812403          	lw	s0,120(sp)
     408:	07412483          	lw	s1,116(sp)
     40c:	07012903          	lw	s2,112(sp)
     410:	06c12983          	lw	s3,108(sp)
     414:	06812a03          	lw	s4,104(sp)
     418:	00000513          	li	a0,0
     41c:	08010113          	addi	sp,sp,128
     420:	00008067          	ret
     424:	01811603          	lh	a2,24(sp)
     428:	02412583          	lw	a1,36(sp)
     42c:	355000ef          	jal	ra,f80 <core_list_init>
     430:	03812483          	lw	s1,56(sp)
     434:	02a12e23          	sw	a0,60(sp)
     438:	0024f713          	andi	a4,s1,2
     43c:	ce070ee3          	beqz	a4,138 <main+0xd8>
     440:	01a11783          	lh	a5,26(sp)
     444:	01811383          	lh	t2,24(sp)
     448:	02812583          	lw	a1,40(sp)
     44c:	03012503          	lw	a0,48(sp)
     450:	01079413          	slli	s0,a5,0x10
     454:	04010693          	addi	a3,sp,64
     458:	00746633          	or	a2,s0,t2
     45c:	2d8010ef          	jal	ra,1734 <core_init_matrix>
     460:	03812483          	lw	s1,56(sp)
     464:	cd5ff06f          	j	138 <main+0xd8>
     468:	000023b7          	lui	t2,0x2
     46c:	8f238413          	addi	s0,t2,-1806 # 18f2 <core_init_matrix+0x1be>
     470:	1a850063          	beq	a0,s0,610 <main+0x5b0>
     474:	000055b7          	lui	a1,0x5
     478:	eaf58693          	addi	a3,a1,-337 # 4eaf <xprintf+0x91f>
     47c:	00d51c63          	bne	a0,a3,494 <main+0x434>
     480:	10000517          	auipc	a0,0x10000
     484:	be850513          	addi	a0,a0,-1048 # 10000068 <_data+0x68>
     488:	108040ef          	jal	ra,4590 <xprintf>
     48c:	00200493          	li	s1,2
     490:	da1ff06f          	j	230 <main+0x1d0>
     494:	00010637          	lui	a2,0x10
     498:	fff60413          	addi	s0,a2,-1 # ffff <_data_lma+0x9957>
     49c:	e4dff06f          	j	2e8 <main+0x288>
     4a0:	00700793          	li	a5,7
     4a4:	02f12c23          	sw	a5,56(sp)
     4a8:	c29ff06f          	j	d0 <main+0x70>
     4ac:	02af8e33          	mul	t3,t6,a0
     4b0:	001f8e93          	addi	t4,t6,1
     4b4:	010e9f13          	slli	t5,t4,0x10
     4b8:	010f5f93          	srli	t6,t5,0x10
     4bc:	01c580b3          	add	ra,a1,t3
     4c0:	02112423          	sw	ra,40(sp)
     4c4:	c60806e3          	beqz	a6,130 <main+0xd0>
     4c8:	0140006f          	j	4dc <main+0x47c>
     4cc:	02b12223          	sw	a1,36(sp)
     4d0:	00100f93          	li	t6,1
     4d4:	c4070ce3          	beqz	a4,12c <main+0xcc>
     4d8:	fd5ff06f          	j	4ac <main+0x44c>
     4dc:	02af82b3          	mul	t0,t6,a0
     4e0:	00558333          	add	t1,a1,t0
     4e4:	02612623          	sw	t1,44(sp)
     4e8:	c40686e3          	beqz	a3,134 <main+0xd4>
     4ec:	f39ff06f          	j	424 <main+0x3c4>
     4f0:	10000517          	auipc	a0,0x10000
     4f4:	c6c50513          	addi	a0,a0,-916 # 1000015c <_data+0x15c>
     4f8:	00000593          	li	a1,0
     4fc:	094040ef          	jal	ra,4590 <xprintf>
     500:	05815683          	lhu	a3,88(sp)
     504:	00168513          	addi	a0,a3,1
     508:	04a11c23          	sh	a0,88(sp)
     50c:	dd9ff06f          	j	2e4 <main+0x284>
     510:	10000517          	auipc	a0,0x10000
     514:	d7c50513          	addi	a0,a0,-644 # 1000028c <_data+0x28c>
     518:	078040ef          	jal	ra,4590 <xprintf>
     51c:	ee5ff06f          	j	400 <main+0x3a0>
     520:	00100713          	li	a4,1
     524:	bae09ee3          	bne	ra,a4,e0 <main+0x80>
     528:	01c11283          	lh	t0,28(sp)
     52c:	ba029ae3          	bnez	t0,e0 <main+0x80>
     530:	34153337          	lui	t1,0x34153
     534:	41530393          	addi	t2,t1,1045 # 34153415 <_sp+0x24150415>
     538:	00712c23          	sw	t2,24(sp)
     53c:	06600493          	li	s1,102
     540:	00911e23          	sh	s1,28(sp)
     544:	b9dff06f          	j	e0 <main+0x80>
     548:	10000517          	auipc	a0,0x10000
     54c:	ca450513          	addi	a0,a0,-860 # 100001ec <_data+0x1ec>
     550:	040040ef          	jal	ra,4590 <xprintf>
     554:	00148e13          	addi	t3,s1,1
     558:	010e1e93          	slli	t4,t3,0x10
     55c:	410ed413          	srai	s0,t4,0x10
     560:	e01ff06f          	j	360 <main+0x300>
     564:	03412403          	lw	s0,52(sp)
     568:	000a0593          	mv	a1,s4
     56c:	00098513          	mv	a0,s3
     570:	7a5030ef          	jal	ra,4514 <time_in_secs>
     574:	02a455b3          	divu	a1,s0,a0
     578:	10000517          	auipc	a0,0x10000
     57c:	c5c50513          	addi	a0,a0,-932 # 100001d4 <_data+0x1d4>
     580:	010040ef          	jal	ra,4590 <xprintf>
     584:	dc1ff06f          	j	344 <main+0x2e4>
     588:	10000517          	auipc	a0,0x10000
     58c:	ca450513          	addi	a0,a0,-860 # 1000022c <_data+0x22c>
     590:	000040ef          	jal	ra,4590 <xprintf>
     594:	e6dff06f          	j	400 <main+0x3a0>
     598:	05615603          	lhu	a2,86(sp)
     59c:	00000593          	li	a1,0
     5a0:	10000517          	auipc	a0,0x10000
     5a4:	d6c50513          	addi	a0,a0,-660 # 1000030c <_data+0x30c>
     5a8:	7e9030ef          	jal	ra,4590 <xprintf>
     5ac:	e2dff06f          	j	3d8 <main+0x378>
     5b0:	05415603          	lhu	a2,84(sp)
     5b4:	00000593          	li	a1,0
     5b8:	10000517          	auipc	a0,0x10000
     5bc:	d7050513          	addi	a0,a0,-656 # 10000328 <_data+0x328>
     5c0:	7d1030ef          	jal	ra,4590 <xprintf>
     5c4:	03812903          	lw	s2,56(sp)
     5c8:	e09ff06f          	j	3d0 <main+0x370>
     5cc:	05215603          	lhu	a2,82(sp)
     5d0:	00000593          	li	a1,0
     5d4:	10000517          	auipc	a0,0x10000
     5d8:	d7050513          	addi	a0,a0,-656 # 10000344 <_data+0x344>
     5dc:	7b5030ef          	jal	ra,4590 <xprintf>
     5e0:	03812903          	lw	s2,56(sp)
     5e4:	de5ff06f          	j	3c8 <main+0x368>
     5e8:	10000517          	auipc	a0,0x10000
     5ec:	a5450513          	addi	a0,a0,-1452 # 1000003c <_data+0x3c>
     5f0:	7a1030ef          	jal	ra,4590 <xprintf>
     5f4:	00100493          	li	s1,1
     5f8:	c39ff06f          	j	230 <main+0x1d0>
     5fc:	10000517          	auipc	a0,0x10000
     600:	a1050513          	addi	a0,a0,-1520 # 1000000c <_data+0xc>
     604:	78d030ef          	jal	ra,4590 <xprintf>
     608:	00000493          	li	s1,0
     60c:	c25ff06f          	j	230 <main+0x1d0>
     610:	10000517          	auipc	a0,0x10000
     614:	abc50513          	addi	a0,a0,-1348 # 100000cc <_data+0xcc>
     618:	779030ef          	jal	ra,4590 <xprintf>
     61c:	00400493          	li	s1,4
     620:	c11ff06f          	j	230 <main+0x1d0>

00000624 <trap_entry>:
     624:	f8010113          	addi	sp,sp,-128
     628:	00112223          	sw	ra,4(sp)
     62c:	00212423          	sw	sp,8(sp)
     630:	00312623          	sw	gp,12(sp)
     634:	00412823          	sw	tp,16(sp)
     638:	00512a23          	sw	t0,20(sp)
     63c:	00612c23          	sw	t1,24(sp)
     640:	00712e23          	sw	t2,28(sp)
     644:	02812023          	sw	s0,32(sp)
     648:	02912223          	sw	s1,36(sp)
     64c:	02a12423          	sw	a0,40(sp)
     650:	02b12623          	sw	a1,44(sp)
     654:	02c12823          	sw	a2,48(sp)
     658:	02d12a23          	sw	a3,52(sp)
     65c:	02e12c23          	sw	a4,56(sp)
     660:	02f12e23          	sw	a5,60(sp)
     664:	05012023          	sw	a6,64(sp)
     668:	05112223          	sw	a7,68(sp)
     66c:	05212423          	sw	s2,72(sp)
     670:	05312623          	sw	s3,76(sp)
     674:	05412823          	sw	s4,80(sp)
     678:	05512a23          	sw	s5,84(sp)
     67c:	05612c23          	sw	s6,88(sp)
     680:	05712e23          	sw	s7,92(sp)
     684:	07812023          	sw	s8,96(sp)
     688:	07912223          	sw	s9,100(sp)
     68c:	07a12423          	sw	s10,104(sp)
     690:	07b12623          	sw	s11,108(sp)
     694:	07c12823          	sw	t3,112(sp)
     698:	07d12a23          	sw	t4,116(sp)
     69c:	07e12c23          	sw	t5,120(sp)
     6a0:	07f12e23          	sw	t6,124(sp)
     6a4:	34202573          	csrr	a0,mcause
     6a8:	6c5030ef          	jal	ra,456c <trap_handler>
     6ac:	00412083          	lw	ra,4(sp)
     6b0:	00812103          	lw	sp,8(sp)
     6b4:	00c12183          	lw	gp,12(sp)
     6b8:	01012203          	lw	tp,16(sp)
     6bc:	01412283          	lw	t0,20(sp)
     6c0:	01812303          	lw	t1,24(sp)
     6c4:	01c12383          	lw	t2,28(sp)
     6c8:	02012403          	lw	s0,32(sp)
     6cc:	02412483          	lw	s1,36(sp)
     6d0:	02812503          	lw	a0,40(sp)
     6d4:	02c12583          	lw	a1,44(sp)
     6d8:	03012603          	lw	a2,48(sp)
     6dc:	03412683          	lw	a3,52(sp)
     6e0:	03812703          	lw	a4,56(sp)
     6e4:	03c12783          	lw	a5,60(sp)
     6e8:	04012803          	lw	a6,64(sp)
     6ec:	04412883          	lw	a7,68(sp)
     6f0:	04812903          	lw	s2,72(sp)
     6f4:	04c12983          	lw	s3,76(sp)
     6f8:	05012a03          	lw	s4,80(sp)
     6fc:	05412a83          	lw	s5,84(sp)
     700:	05812b03          	lw	s6,88(sp)
     704:	05c12b83          	lw	s7,92(sp)
     708:	06012c03          	lw	s8,96(sp)
     70c:	06412c83          	lw	s9,100(sp)
     710:	06812d03          	lw	s10,104(sp)
     714:	06c12d83          	lw	s11,108(sp)
     718:	07012e03          	lw	t3,112(sp)
     71c:	07412e83          	lw	t4,116(sp)
     720:	07812f03          	lw	t5,120(sp)
     724:	07c12f83          	lw	t6,124(sp)
     728:	08010113          	addi	sp,sp,128
     72c:	30200073          	mret
     730:	0000006f          	j	730 <trap_entry+0x10c>

00000734 <core_bench_list>:
     734:	00451e03          	lh	t3,4(a0)
     738:	fa010113          	addi	sp,sp,-96
     73c:	03812c23          	sw	s8,56(sp)
     740:	04112e23          	sw	ra,92(sp)
     744:	04812c23          	sw	s0,88(sp)
     748:	04912a23          	sw	s1,84(sp)
     74c:	05212823          	sw	s2,80(sp)
     750:	05312623          	sw	s3,76(sp)
     754:	05412423          	sw	s4,72(sp)
     758:	05512223          	sw	s5,68(sp)
     75c:	05612023          	sw	s6,64(sp)
     760:	03712e23          	sw	s7,60(sp)
     764:	03912a23          	sw	s9,52(sp)
     768:	03a12823          	sw	s10,48(sp)
     76c:	03b12623          	sw	s11,44(sp)
     770:	00012a23          	sw	zero,20(sp)
     774:	00b12623          	sw	a1,12(sp)
     778:	02452c03          	lw	s8,36(a0)
     77c:	7fc05663          	blez	t3,f68 <core_bench_list+0x834>
     780:	00000613          	li	a2,0
     784:	00000e93          	li	t4,0
     788:	00000f13          	li	t5,0
     78c:	00000313          	li	t1,0
     790:	00c12783          	lw	a5,12(sp)
     794:	0ff67693          	andi	a3,a2,255
     798:	00d12a23          	sw	a3,20(sp)
     79c:	3a07c263          	bltz	a5,b40 <core_bench_list+0x40c>
     7a0:	7c0c0c63          	beqz	s8,f78 <core_bench_list+0x844>
     7a4:	004c2483          	lw	s1,4(s8)
     7a8:	00c12903          	lw	s2,12(sp)
     7ac:	000c0993          	mv	s3,s8
     7b0:	00249803          	lh	a6,2(s1)
     7b4:	01281c63          	bne	a6,s2,7cc <core_bench_list+0x98>
     7b8:	01c0006f          	j	7d4 <core_bench_list+0xa0>
     7bc:	0049aa03          	lw	s4,4(s3)
     7c0:	00c12b03          	lw	s6,12(sp)
     7c4:	002a1a83          	lh	s5,2(s4)
     7c8:	016a8663          	beq	s5,s6,7d4 <core_bench_list+0xa0>
     7cc:	0009a983          	lw	s3,0(s3)
     7d0:	fe0996e3          	bnez	s3,7bc <core_bench_list+0x88>
     7d4:	00000b93          	li	s7,0
     7d8:	00c0006f          	j	7e4 <core_bench_list+0xb0>
     7dc:	000c0b93          	mv	s7,s8
     7e0:	000c8c13          	mv	s8,s9
     7e4:	000c2c83          	lw	s9,0(s8)
     7e8:	017c2023          	sw	s7,0(s8)
     7ec:	fe0c98e3          	bnez	s9,7dc <core_bench_list+0xa8>
     7f0:	38098263          	beqz	s3,b74 <core_bench_list+0x440>
     7f4:	0049ad03          	lw	s10,4(s3)
     7f8:	001f0893          	addi	a7,t5,1
     7fc:	01089d93          	slli	s11,a7,0x10
     800:	000d1f83          	lh	t6,0(s10)
     804:	010ddf13          	srli	t5,s11,0x10
     808:	001ff693          	andi	a3,t6,1
     80c:	00068c63          	beqz	a3,824 <core_bench_list+0xf0>
     810:	409fd793          	srai	a5,t6,0x9
     814:	0017f713          	andi	a4,a5,1
     818:	00e30333          	add	t1,t1,a4
     81c:	01031093          	slli	ra,t1,0x10
     820:	0100d313          	srli	t1,ra,0x10
     824:	0009a283          	lw	t0,0(s3)
     828:	00028c63          	beqz	t0,840 <core_bench_list+0x10c>
     82c:	0002a383          	lw	t2,0(t0)
     830:	0079a023          	sw	t2,0(s3)
     834:	000c2403          	lw	s0,0(s8)
     838:	0082a023          	sw	s0,0(t0)
     83c:	005c2023          	sw	t0,0(s8)
     840:	00c12b03          	lw	s6,12(sp)
     844:	000b4a63          	bltz	s6,858 <core_bench_list+0x124>
     848:	001b0b93          	addi	s7,s6,1
     84c:	010b9c93          	slli	s9,s7,0x10
     850:	410cdd13          	srai	s10,s9,0x10
     854:	01a12623          	sw	s10,12(sp)
     858:	00160613          	addi	a2,a2,1
     85c:	01061893          	slli	a7,a2,0x10
     860:	4108d613          	srai	a2,a7,0x10
     864:	f2ce16e3          	bne	t3,a2,790 <core_bench_list+0x5c>
     868:	002f1e13          	slli	t3,t5,0x2
     86c:	41de0db3          	sub	s11,t3,t4
     870:	01b30f33          	add	t5,t1,s11
     874:	010f1f93          	slli	t6,t5,0x10
     878:	010fd693          	srli	a3,t6,0x10
     87c:	00d12e23          	sw	a3,28(sp)
     880:	00050d13          	mv	s10,a0
     884:	36b04e63          	bgtz	a1,c00 <core_bench_list+0x4cc>
     888:	000c2b83          	lw	s7,0(s8)
     88c:	00c12603          	lw	a2,12(sp)
     890:	000c0413          	mv	s0,s8
     894:	000ba903          	lw	s2,0(s7)
     898:	004ba083          	lw	ra,4(s7)
     89c:	00492d03          	lw	s10,4(s2)
     8a0:	00092883          	lw	a7,0(s2)
     8a4:	01aba223          	sw	s10,4(s7)
     8a8:	00192223          	sw	ra,4(s2)
     8ac:	011ba023          	sw	a7,0(s7)
     8b0:	00092023          	sw	zero,0(s2)
     8b4:	20064e63          	bltz	a2,ad0 <core_bench_list+0x39c>
     8b8:	00442683          	lw	a3,4(s0)
     8bc:	00c12583          	lw	a1,12(sp)
     8c0:	00269503          	lh	a0,2(a3)
     8c4:	00b50a63          	beq	a0,a1,8d8 <core_bench_list+0x1a4>
     8c8:	00042403          	lw	s0,0(s0)
     8cc:	fe0416e3          	bnez	s0,8b8 <core_bench_list+0x184>
     8d0:	000c2403          	lw	s0,0(s8)
     8d4:	02040463          	beqz	s0,8fc <core_bench_list+0x1c8>
     8d8:	004c2783          	lw	a5,4(s8)
     8dc:	01c12583          	lw	a1,28(sp)
     8e0:	00079503          	lh	a0,0(a5)
     8e4:	115030ef          	jal	ra,41f8 <crc16>
     8e8:	00042403          	lw	s0,0(s0)
     8ec:	00a12e23          	sw	a0,28(sp)
     8f0:	fe0414e3          	bnez	s0,8d8 <core_bench_list+0x1a4>
     8f4:	000c2403          	lw	s0,0(s8)
     8f8:	00492083          	lw	ra,4(s2)
     8fc:	00442703          	lw	a4,4(s0)
     900:	00042303          	lw	t1,0(s0)
     904:	00100b93          	li	s7,1
     908:	00e92223          	sw	a4,4(s2)
     90c:	00142223          	sw	ra,4(s0)
     910:	00692023          	sw	t1,0(s2)
     914:	01242023          	sw	s2,0(s0)
     918:	00000e93          	li	t4,0
     91c:	00000413          	li	s0,0
     920:	00000e13          	li	t3,0
     924:	00100f13          	li	t5,1
     928:	007bf293          	andi	t0,s7,7
     92c:	001e0e13          	addi	t3,t3,1
     930:	000c0993          	mv	s3,s8
     934:	00000b13          	li	s6,0
     938:	08028663          	beqz	t0,9c4 <core_bench_list+0x290>
     93c:	00100393          	li	t2,1
     940:	06728a63          	beq	t0,t2,9b4 <core_bench_list+0x280>
     944:	00200813          	li	a6,2
     948:	07028063          	beq	t0,a6,9a8 <core_bench_list+0x274>
     94c:	00300a13          	li	s4,3
     950:	05428663          	beq	t0,s4,99c <core_bench_list+0x268>
     954:	00400a93          	li	s5,4
     958:	03528c63          	beq	t0,s5,990 <core_bench_list+0x25c>
     95c:	00500d93          	li	s11,5
     960:	03b28263          	beq	t0,s11,984 <core_bench_list+0x250>
     964:	00600c93          	li	s9,6
     968:	01928863          	beq	t0,s9,978 <core_bench_list+0x244>
     96c:	000c2983          	lw	s3,0(s8)
     970:	00100b13          	li	s6,1
     974:	0a098a63          	beqz	s3,a28 <core_bench_list+0x2f4>
     978:	0009a983          	lw	s3,0(s3)
     97c:	001b0b13          	addi	s6,s6,1
     980:	0a098463          	beqz	s3,a28 <core_bench_list+0x2f4>
     984:	0009a983          	lw	s3,0(s3)
     988:	001b0b13          	addi	s6,s6,1
     98c:	08098e63          	beqz	s3,a28 <core_bench_list+0x2f4>
     990:	0009a983          	lw	s3,0(s3)
     994:	001b0b13          	addi	s6,s6,1
     998:	08098863          	beqz	s3,a28 <core_bench_list+0x2f4>
     99c:	0009a983          	lw	s3,0(s3)
     9a0:	001b0b13          	addi	s6,s6,1
     9a4:	08098263          	beqz	s3,a28 <core_bench_list+0x2f4>
     9a8:	0009a983          	lw	s3,0(s3)
     9ac:	001b0b13          	addi	s6,s6,1
     9b0:	06098c63          	beqz	s3,a28 <core_bench_list+0x2f4>
     9b4:	0009a983          	lw	s3,0(s3)
     9b8:	001b0b13          	addi	s6,s6,1
     9bc:	06098663          	beqz	s3,a28 <core_bench_list+0x2f4>
     9c0:	176b8663          	beq	s7,s6,b2c <core_bench_list+0x3f8>
     9c4:	0009a983          	lw	s3,0(s3)
     9c8:	001b0b13          	addi	s6,s6,1
     9cc:	000b0493          	mv	s1,s6
     9d0:	04098c63          	beqz	s3,a28 <core_bench_list+0x2f4>
     9d4:	0009a983          	lw	s3,0(s3)
     9d8:	001b0b13          	addi	s6,s6,1
     9dc:	04098663          	beqz	s3,a28 <core_bench_list+0x2f4>
     9e0:	0009a983          	lw	s3,0(s3)
     9e4:	00248b13          	addi	s6,s1,2
     9e8:	04098063          	beqz	s3,a28 <core_bench_list+0x2f4>
     9ec:	0009a983          	lw	s3,0(s3)
     9f0:	00348b13          	addi	s6,s1,3
     9f4:	02098a63          	beqz	s3,a28 <core_bench_list+0x2f4>
     9f8:	0009a983          	lw	s3,0(s3)
     9fc:	00448b13          	addi	s6,s1,4
     a00:	02098463          	beqz	s3,a28 <core_bench_list+0x2f4>
     a04:	0009a983          	lw	s3,0(s3)
     a08:	00548b13          	addi	s6,s1,5
     a0c:	00098e63          	beqz	s3,a28 <core_bench_list+0x2f4>
     a10:	0009a983          	lw	s3,0(s3)
     a14:	00648b13          	addi	s6,s1,6
     a18:	00098863          	beqz	s3,a28 <core_bench_list+0x2f4>
     a1c:	0009a983          	lw	s3,0(s3)
     a20:	00748b13          	addi	s6,s1,7
     a24:	f8099ee3          	bnez	s3,9c0 <core_bench_list+0x28c>
     a28:	000c0d13          	mv	s10,s8
     a2c:	000b8613          	mv	a2,s7
     a30:	00098c13          	mv	s8,s3
     a34:	060b0c63          	beqz	s6,aac <core_bench_list+0x378>
     a38:	0a060e63          	beqz	a2,af4 <core_bench_list+0x3c0>
     a3c:	0a0c0c63          	beqz	s8,af4 <core_bench_list+0x3c0>
     a40:	004d2883          	lw	a7,4(s10)
     a44:	004c2f83          	lw	t6,4(s8)
     a48:	00089683          	lh	a3,0(a7)
     a4c:	002f9583          	lh	a1,2(t6)
     a50:	00289503          	lh	a0,2(a7)
     a54:	01069913          	slli	s2,a3,0x10
     a58:	01095093          	srli	ra,s2,0x10
     a5c:	f006f793          	andi	a5,a3,-256
     a60:	0080d713          	srli	a4,ra,0x8
     a64:	00e7e333          	or	t1,a5,a4
     a68:	00689023          	sh	t1,0(a7)
     a6c:	000f9283          	lh	t0,0(t6)
     a70:	40b503b3          	sub	t2,a0,a1
     a74:	01029813          	slli	a6,t0,0x10
     a78:	01085a13          	srli	s4,a6,0x10
     a7c:	f002fa93          	andi	s5,t0,-256
     a80:	008a5d93          	srli	s11,s4,0x8
     a84:	01baecb3          	or	s9,s5,s11
     a88:	019f9023          	sh	s9,0(t6)
     a8c:	06705463          	blez	t2,af4 <core_bench_list+0x3c0>
     a90:	000c0493          	mv	s1,s8
     a94:	000c2c03          	lw	s8,0(s8)
     a98:	fff60613          	addi	a2,a2,-1
     a9c:	020e8463          	beqz	t4,ac4 <core_bench_list+0x390>
     aa0:	009ea023          	sw	s1,0(t4)
     aa4:	00048e93          	mv	t4,s1
     aa8:	f80b18e3          	bnez	s6,a38 <core_bench_list+0x304>
     aac:	04060c63          	beqz	a2,b04 <core_bench_list+0x3d0>
     ab0:	040c0c63          	beqz	s8,b08 <core_bench_list+0x3d4>
     ab4:	000c0493          	mv	s1,s8
     ab8:	fff60613          	addi	a2,a2,-1
     abc:	000c2c03          	lw	s8,0(s8)
     ac0:	fe0e90e3          	bnez	t4,aa0 <core_bench_list+0x36c>
     ac4:	00048413          	mv	s0,s1
     ac8:	00048e93          	mv	t4,s1
     acc:	fddff06f          	j	aa8 <core_bench_list+0x374>
     ad0:	00442e03          	lw	t3,4(s0)
     ad4:	01412f83          	lw	t6,20(sp)
     ad8:	000e4f03          	lbu	t5,0(t3)
     adc:	dfff0ee3          	beq	t5,t6,8d8 <core_bench_list+0x1a4>
     ae0:	00042403          	lw	s0,0(s0)
     ae4:	fe0416e3          	bnez	s0,ad0 <core_bench_list+0x39c>
     ae8:	000c2403          	lw	s0,0(s8)
     aec:	de0416e3          	bnez	s0,8d8 <core_bench_list+0x1a4>
     af0:	e0dff06f          	j	8fc <core_bench_list+0x1c8>
     af4:	000d0493          	mv	s1,s10
     af8:	fffb0b13          	addi	s6,s6,-1
     afc:	000d2d03          	lw	s10,0(s10)
     b00:	f9dff06f          	j	a9c <core_bench_list+0x368>
     b04:	e20c12e3          	bnez	s8,928 <core_bench_list+0x1f4>
     b08:	000ea023          	sw	zero,0(t4)
     b0c:	09ee0863          	beq	t3,t5,b9c <core_bench_list+0x468>
     b10:	001b9b93          	slli	s7,s7,0x1
     b14:	36040a63          	beqz	s0,e88 <core_bench_list+0x754>
     b18:	00040c13          	mv	s8,s0
     b1c:	00000e13          	li	t3,0
     b20:	00000e93          	li	t4,0
     b24:	00000413          	li	s0,0
     b28:	e01ff06f          	j	928 <core_bench_list+0x1f4>
     b2c:	000c0d13          	mv	s10,s8
     b30:	000b8b13          	mv	s6,s7
     b34:	000b8613          	mv	a2,s7
     b38:	00098c13          	mv	s8,s3
     b3c:	ef9ff06f          	j	a34 <core_bench_list+0x300>
     b40:	420c0c63          	beqz	s8,f78 <core_bench_list+0x844>
     b44:	004c2703          	lw	a4,4(s8)
     b48:	000c0993          	mv	s3,s8
     b4c:	00074083          	lbu	ra,0(a4)
     b50:	00169c63          	bne	a3,ra,b68 <core_bench_list+0x434>
     b54:	c81ff06f          	j	7d4 <core_bench_list+0xa0>
     b58:	0049a283          	lw	t0,4(s3)
     b5c:	01412403          	lw	s0,20(sp)
     b60:	0002c383          	lbu	t2,0(t0)
     b64:	c68388e3          	beq	t2,s0,7d4 <core_bench_list+0xa0>
     b68:	0009a983          	lw	s3,0(s3)
     b6c:	fe0996e3          	bnez	s3,b58 <core_bench_list+0x424>
     b70:	c65ff06f          	j	7d4 <core_bench_list+0xa0>
     b74:	004ba483          	lw	s1,4(s7)
     b78:	001e8e93          	addi	t4,t4,1
     b7c:	010e9813          	slli	a6,t4,0x10
     b80:	00148903          	lb	s2,1(s1)
     b84:	01085e93          	srli	t4,a6,0x10
     b88:	00197993          	andi	s3,s2,1
     b8c:	01330a33          	add	s4,t1,s3
     b90:	010a1a93          	slli	s5,s4,0x10
     b94:	010ad313          	srli	t1,s5,0x10
     b98:	ca9ff06f          	j	840 <core_bench_list+0x10c>
     b9c:	00042c03          	lw	s8,0(s0)
     ba0:	020c0063          	beqz	s8,bc0 <core_bench_list+0x48c>
     ba4:	00442e83          	lw	t4,4(s0)
     ba8:	01c12583          	lw	a1,28(sp)
     bac:	000e9503          	lh	a0,0(t4)
     bb0:	648030ef          	jal	ra,41f8 <crc16>
     bb4:	000c2c03          	lw	s8,0(s8)
     bb8:	00a12e23          	sw	a0,28(sp)
     bbc:	fe0c14e3          	bnez	s8,ba4 <core_bench_list+0x470>
     bc0:	05c12083          	lw	ra,92(sp)
     bc4:	05812403          	lw	s0,88(sp)
     bc8:	01c12503          	lw	a0,28(sp)
     bcc:	05412483          	lw	s1,84(sp)
     bd0:	05012903          	lw	s2,80(sp)
     bd4:	04c12983          	lw	s3,76(sp)
     bd8:	04812a03          	lw	s4,72(sp)
     bdc:	04412a83          	lw	s5,68(sp)
     be0:	04012b03          	lw	s6,64(sp)
     be4:	03c12b83          	lw	s7,60(sp)
     be8:	03812c03          	lw	s8,56(sp)
     bec:	03412c83          	lw	s9,52(sp)
     bf0:	03012d03          	lw	s10,48(sp)
     bf4:	02c12d83          	lw	s11,44(sp)
     bf8:	06010113          	addi	sp,sp,96
     bfc:	00008067          	ret
     c00:	00100513          	li	a0,1
     c04:	028d0593          	addi	a1,s10,40
     c08:	00a12223          	sw	a0,4(sp)
     c0c:	00b12c23          	sw	a1,24(sp)
     c10:	260c0c63          	beqz	s8,e88 <core_bench_list+0x754>
     c14:	00000493          	li	s1,0
     c18:	00012423          	sw	zero,8(sp)
     c1c:	00012823          	sw	zero,16(sp)
     c20:	00100993          	li	s3,1
     c24:	01012703          	lw	a4,16(sp)
     c28:	00412783          	lw	a5,4(sp)
     c2c:	000c0d93          	mv	s11,s8
     c30:	00170313          	addi	t1,a4,1
     c34:	0077f093          	andi	ra,a5,7
     c38:	00612823          	sw	t1,16(sp)
     c3c:	00000c93          	li	s9,0
     c40:	08008863          	beqz	ra,cd0 <core_bench_list+0x59c>
     c44:	00100293          	li	t0,1
     c48:	06508a63          	beq	ra,t0,cbc <core_bench_list+0x588>
     c4c:	00200393          	li	t2,2
     c50:	06708063          	beq	ra,t2,cb0 <core_bench_list+0x57c>
     c54:	00300413          	li	s0,3
     c58:	04808663          	beq	ra,s0,ca4 <core_bench_list+0x570>
     c5c:	00400e93          	li	t4,4
     c60:	03d08c63          	beq	ra,t4,c98 <core_bench_list+0x564>
     c64:	00500813          	li	a6,5
     c68:	03008263          	beq	ra,a6,c8c <core_bench_list+0x558>
     c6c:	00600913          	li	s2,6
     c70:	01208863          	beq	ra,s2,c80 <core_bench_list+0x54c>
     c74:	000c2d83          	lw	s11,0(s8)
     c78:	00100c93          	li	s9,1
     c7c:	0a0d8c63          	beqz	s11,d34 <core_bench_list+0x600>
     c80:	000dad83          	lw	s11,0(s11)
     c84:	001c8c93          	addi	s9,s9,1
     c88:	0a0d8663          	beqz	s11,d34 <core_bench_list+0x600>
     c8c:	000dad83          	lw	s11,0(s11)
     c90:	001c8c93          	addi	s9,s9,1
     c94:	0a0d8063          	beqz	s11,d34 <core_bench_list+0x600>
     c98:	000dad83          	lw	s11,0(s11)
     c9c:	001c8c93          	addi	s9,s9,1
     ca0:	080d8a63          	beqz	s11,d34 <core_bench_list+0x600>
     ca4:	000dad83          	lw	s11,0(s11)
     ca8:	001c8c93          	addi	s9,s9,1
     cac:	080d8463          	beqz	s11,d34 <core_bench_list+0x600>
     cb0:	000dad83          	lw	s11,0(s11)
     cb4:	001c8c93          	addi	s9,s9,1
     cb8:	060d8e63          	beqz	s11,d34 <core_bench_list+0x600>
     cbc:	000dad83          	lw	s11,0(s11)
     cc0:	001c8c93          	addi	s9,s9,1
     cc4:	060d8863          	beqz	s11,d34 <core_bench_list+0x600>
     cc8:	00412a03          	lw	s4,4(sp)
     ccc:	074c8463          	beq	s9,s4,d34 <core_bench_list+0x600>
     cd0:	000dad83          	lw	s11,0(s11)
     cd4:	001c8c93          	addi	s9,s9,1
     cd8:	000c8a93          	mv	s5,s9
     cdc:	040d8c63          	beqz	s11,d34 <core_bench_list+0x600>
     ce0:	000dad83          	lw	s11,0(s11)
     ce4:	001c8c93          	addi	s9,s9,1
     ce8:	040d8663          	beqz	s11,d34 <core_bench_list+0x600>
     cec:	000dad83          	lw	s11,0(s11)
     cf0:	002a8c93          	addi	s9,s5,2
     cf4:	040d8063          	beqz	s11,d34 <core_bench_list+0x600>
     cf8:	000dad83          	lw	s11,0(s11)
     cfc:	003a8c93          	addi	s9,s5,3
     d00:	020d8a63          	beqz	s11,d34 <core_bench_list+0x600>
     d04:	000dad83          	lw	s11,0(s11)
     d08:	004a8c93          	addi	s9,s5,4
     d0c:	020d8463          	beqz	s11,d34 <core_bench_list+0x600>
     d10:	000dad83          	lw	s11,0(s11)
     d14:	005a8c93          	addi	s9,s5,5
     d18:	000d8e63          	beqz	s11,d34 <core_bench_list+0x600>
     d1c:	000dad83          	lw	s11,0(s11)
     d20:	006a8c93          	addi	s9,s5,6
     d24:	000d8863          	beqz	s11,d34 <core_bench_list+0x600>
     d28:	000dad83          	lw	s11,0(s11)
     d2c:	007a8c93          	addi	s9,s5,7
     d30:	f80d9ce3          	bnez	s11,cc8 <core_bench_list+0x594>
     d34:	00412b83          	lw	s7,4(sp)
     d38:	0e0c8863          	beqz	s9,e28 <core_bench_list+0x6f4>
     d3c:	100b8863          	beqz	s7,e4c <core_bench_list+0x718>
     d40:	100d8663          	beqz	s11,e4c <core_bench_list+0x718>
     d44:	004c2b03          	lw	s6,4(s8)
     d48:	004da903          	lw	s2,4(s11)
     d4c:	000b1a03          	lh	s4,0(s6)
     d50:	080a7e13          	andi	t3,s4,128
     d54:	07fa7a93          	andi	s5,s4,127
     d58:	040e1863          	bnez	t3,da8 <core_bench_list+0x674>
     d5c:	403a5f13          	srai	t5,s4,0x3
     d60:	00ff7893          	andi	a7,t5,15
     d64:	00489f93          	slli	t6,a7,0x4
     d68:	007a7693          	andi	a3,s4,7
     d6c:	01f8e5b3          	or	a1,a7,t6
     d70:	038d5783          	lhu	a5,56(s10)
     d74:	14068263          	beqz	a3,eb8 <core_bench_list+0x784>
     d78:	11368c63          	beq	a3,s3,e90 <core_bench_list+0x75c>
     d7c:	010a1293          	slli	t0,s4,0x10
     d80:	0102d513          	srli	a0,t0,0x10
     d84:	000a0a93          	mv	s5,s4
     d88:	00078593          	mv	a1,a5
     d8c:	4dd020ef          	jal	ra,3a68 <crcu16>
     d90:	07fafa93          	andi	s5,s5,127
     d94:	f00a7393          	andi	t2,s4,-256
     d98:	007ae833          	or	a6,s5,t2
     d9c:	02ad1c23          	sh	a0,56(s10)
     da0:	08086613          	ori	a2,a6,128
     da4:	00cb1023          	sh	a2,0(s6)
     da8:	00091b03          	lh	s6,0(s2)
     dac:	080b7e93          	andi	t4,s6,128
     db0:	07fb7313          	andi	t1,s6,127
     db4:	040e9863          	bnez	t4,e04 <core_bench_list+0x6d0>
     db8:	403b5413          	srai	s0,s6,0x3
     dbc:	00f47a13          	andi	s4,s0,15
     dc0:	004a1e13          	slli	t3,s4,0x4
     dc4:	007b7f13          	andi	t5,s6,7
     dc8:	01ca65b3          	or	a1,s4,t3
     dcc:	038d5783          	lhu	a5,56(s10)
     dd0:	140f0a63          	beqz	t5,f24 <core_bench_list+0x7f0>
     dd4:	133f0463          	beq	t5,s3,efc <core_bench_list+0x7c8>
     dd8:	010b1513          	slli	a0,s6,0x10
     ddc:	01055513          	srli	a0,a0,0x10
     de0:	000b0413          	mv	s0,s6
     de4:	00078593          	mv	a1,a5
     de8:	481020ef          	jal	ra,3a68 <crcu16>
     dec:	07f47313          	andi	t1,s0,127
     df0:	f00b7293          	andi	t0,s6,-256
     df4:	005363b3          	or	t2,t1,t0
     df8:	02ad1c23          	sh	a0,56(s10)
     dfc:	0803e813          	ori	a6,t2,128
     e00:	01091023          	sh	a6,0(s2)
     e04:	406a8933          	sub	s2,s5,t1
     e08:	05205263          	blez	s2,e4c <core_bench_list+0x718>
     e0c:	000d8093          	mv	ra,s11
     e10:	000dad83          	lw	s11,0(s11)
     e14:	fffb8b93          	addi	s7,s7,-1
     e18:	02048463          	beqz	s1,e40 <core_bench_list+0x70c>
     e1c:	0014a023          	sw	ra,0(s1)
     e20:	00008493          	mv	s1,ra
     e24:	f00c9ce3          	bnez	s9,d3c <core_bench_list+0x608>
     e28:	020b8a63          	beqz	s7,e5c <core_bench_list+0x728>
     e2c:	020d8c63          	beqz	s11,e64 <core_bench_list+0x730>
     e30:	000d8093          	mv	ra,s11
     e34:	fffb8b93          	addi	s7,s7,-1
     e38:	000dad83          	lw	s11,0(s11)
     e3c:	fe0490e3          	bnez	s1,e1c <core_bench_list+0x6e8>
     e40:	00112423          	sw	ra,8(sp)
     e44:	00008493          	mv	s1,ra
     e48:	fddff06f          	j	e24 <core_bench_list+0x6f0>
     e4c:	000c0093          	mv	ra,s8
     e50:	fffc8c93          	addi	s9,s9,-1
     e54:	000c2c03          	lw	s8,0(s8)
     e58:	fc1ff06f          	j	e18 <core_bench_list+0x6e4>
     e5c:	000d8c13          	mv	s8,s11
     e60:	dc0d92e3          	bnez	s11,c24 <core_bench_list+0x4f0>
     e64:	0004a023          	sw	zero,0(s1)
     e68:	01012483          	lw	s1,16(sp)
     e6c:	00100c13          	li	s8,1
     e70:	11848063          	beq	s1,s8,f70 <core_bench_list+0x83c>
     e74:	00412983          	lw	s3,4(sp)
     e78:	00812c03          	lw	s8,8(sp)
     e7c:	00199b13          	slli	s6,s3,0x1
     e80:	01612223          	sw	s6,4(sp)
     e84:	d80c18e3          	bnez	s8,c14 <core_bench_list+0x4e0>
     e88:	00002023          	sw	zero,0(zero) # 0 <_start>
     e8c:	00100073          	ebreak
     e90:	01812503          	lw	a0,24(sp)
     e94:	00078613          	mv	a2,a5
     e98:	3dc020ef          	jal	ra,3274 <core_bench_matrix>
     e9c:	03cd5703          	lhu	a4,60(s10)
     ea0:	01051313          	slli	t1,a0,0x10
     ea4:	41035a93          	srai	s5,t1,0x10
     ea8:	04071663          	bnez	a4,ef4 <core_bench_list+0x7c0>
     eac:	038d5783          	lhu	a5,56(s10)
     eb0:	02ad1e23          	sh	a0,60(s10)
     eb4:	ed5ff06f          	j	d88 <core_bench_list+0x654>
     eb8:	02200513          	li	a0,34
     ebc:	00058093          	mv	ra,a1
     ec0:	00a5d463          	bge	a1,a0,ec8 <core_bench_list+0x794>
     ec4:	02200093          	li	ra,34
     ec8:	014d2583          	lw	a1,20(s10)
     ecc:	002d1683          	lh	a3,2(s10)
     ed0:	000d1603          	lh	a2,0(s10)
     ed4:	018d2503          	lw	a0,24(s10)
     ed8:	0ff0f713          	andi	a4,ra,255
     edc:	139020ef          	jal	ra,3814 <core_bench_state>
     ee0:	03ed5583          	lhu	a1,62(s10)
     ee4:	01051793          	slli	a5,a0,0x10
     ee8:	4107da93          	srai	s5,a5,0x10
     eec:	00059463          	bnez	a1,ef4 <core_bench_list+0x7c0>
     ef0:	02ad1f23          	sh	a0,62(s10)
     ef4:	038d5783          	lhu	a5,56(s10)
     ef8:	e91ff06f          	j	d88 <core_bench_list+0x654>
     efc:	01812503          	lw	a0,24(sp)
     f00:	00078613          	mv	a2,a5
     f04:	370020ef          	jal	ra,3274 <core_bench_matrix>
     f08:	03cd5783          	lhu	a5,60(s10)
     f0c:	01051713          	slli	a4,a0,0x10
     f10:	41075413          	srai	s0,a4,0x10
     f14:	04079663          	bnez	a5,f60 <core_bench_list+0x82c>
     f18:	038d5783          	lhu	a5,56(s10)
     f1c:	02ad1e23          	sh	a0,60(s10)
     f20:	ec5ff06f          	j	de4 <core_bench_list+0x6b0>
     f24:	02200893          	li	a7,34
     f28:	00058f93          	mv	t6,a1
     f2c:	0115d463          	bge	a1,a7,f34 <core_bench_list+0x800>
     f30:	02200f93          	li	t6,34
     f34:	002d1683          	lh	a3,2(s10)
     f38:	014d2583          	lw	a1,20(s10)
     f3c:	000d1603          	lh	a2,0(s10)
     f40:	018d2503          	lw	a0,24(s10)
     f44:	0ffff713          	andi	a4,t6,255
     f48:	0cd020ef          	jal	ra,3814 <core_bench_state>
     f4c:	03ed5683          	lhu	a3,62(s10)
     f50:	01051593          	slli	a1,a0,0x10
     f54:	4105d413          	srai	s0,a1,0x10
     f58:	00069463          	bnez	a3,f60 <core_bench_list+0x82c>
     f5c:	02ad1f23          	sh	a0,62(s10)
     f60:	038d5783          	lhu	a5,56(s10)
     f64:	e81ff06f          	j	de4 <core_bench_list+0x6b0>
     f68:	00012e23          	sw	zero,28(sp)
     f6c:	915ff06f          	j	880 <core_bench_list+0x14c>
     f70:	00812c03          	lw	s8,8(sp)
     f74:	915ff06f          	j	888 <core_bench_list+0x154>
     f78:	00002783          	lw	a5,0(zero) # 0 <_start>
     f7c:	00100073          	ebreak

00000f80 <core_list_init>:
     f80:	01400793          	li	a5,20
     f84:	02f55533          	divu	a0,a0,a5
     f88:	ffff8837          	lui	a6,0xffff8
     f8c:	0005a023          	sw	zero,0(a1)
     f90:	08080693          	addi	a3,a6,128 # ffff8080 <_sp+0xefff5080>
     f94:	01058713          	addi	a4,a1,16
     f98:	00858793          	addi	a5,a1,8
     f9c:	ffe50513          	addi	a0,a0,-2
     fa0:	00351893          	slli	a7,a0,0x3
     fa4:	011588b3          	add	a7,a1,a7
     fa8:	0115a223          	sw	a7,4(a1)
     fac:	00251e13          	slli	t3,a0,0x2
     fb0:	00089123          	sh	zero,2(a7)
     fb4:	00d89023          	sh	a3,0(a7)
     fb8:	01c88e33          	add	t3,a7,t3
     fbc:	00488313          	addi	t1,a7,4
     fc0:	53177263          	bgeu	a4,a7,14e4 <__stack_size+0x4e4>
     fc4:	00888693          	addi	a3,a7,8
     fc8:	51c6fe63          	bgeu	a3,t3,14e4 <__stack_size+0x4e4>
     fcc:	0005a423          	sw	zero,8(a1)
     fd0:	00f5a023          	sw	a5,0(a1)
     fd4:	0065a623          	sw	t1,12(a1)
     fd8:	fff84293          	not	t0,a6
     fdc:	fff00393          	li	t2,-1
     fe0:	00789223          	sh	t2,4(a7)
     fe4:	00589323          	sh	t0,6(a7)
     fe8:	28050663          	beqz	a0,1274 <__stack_size+0x274>
     fec:	01061f13          	slli	t5,a2,0x10
     ff0:	ffff8eb7          	lui	t4,0xffff8
     ff4:	00357313          	andi	t1,a0,3
     ff8:	010f5f13          	srli	t5,t5,0x10
     ffc:	00000813          	li	a6,0
    1000:	fffece93          	not	t4,t4
    1004:	10030663          	beqz	t1,1110 <__stack_size+0x110>
    1008:	00100f93          	li	t6,1
    100c:	0bf30463          	beq	t1,t6,10b4 <__stack_size+0xb4>
    1010:	00200293          	li	t0,2
    1014:	04530463          	beq	t1,t0,105c <__stack_size+0x5c>
    1018:	00870393          	addi	t2,a4,8
    101c:	0313fe63          	bgeu	t2,a7,1058 <__stack_size+0x58>
    1020:	00468313          	addi	t1,a3,4
    1024:	03c37a63          	bgeu	t1,t3,1058 <__stack_size+0x58>
    1028:	003f1813          	slli	a6,t5,0x3
    102c:	00f72023          	sw	a5,0(a4)
    1030:	07887793          	andi	a5,a6,120
    1034:	00e5a023          	sw	a4,0(a1)
    1038:	00879f93          	slli	t6,a5,0x8
    103c:	00d72223          	sw	a3,4(a4)
    1040:	00ffe2b3          	or	t0,t6,a5
    1044:	00569023          	sh	t0,0(a3)
    1048:	01d69123          	sh	t4,2(a3)
    104c:	00070793          	mv	a5,a4
    1050:	00030693          	mv	a3,t1
    1054:	00038713          	mv	a4,t2
    1058:	00100813          	li	a6,1
    105c:	00870293          	addi	t0,a4,8
    1060:	0512f863          	bgeu	t0,a7,10b0 <__stack_size+0xb0>
    1064:	00468393          	addi	t2,a3,4
    1068:	05c3f463          	bgeu	t2,t3,10b0 <__stack_size+0xb0>
    106c:	01081313          	slli	t1,a6,0x10
    1070:	01035f93          	srli	t6,t1,0x10
    1074:	01efc333          	xor	t1,t6,t5
    1078:	00331313          	slli	t1,t1,0x3
    107c:	07837313          	andi	t1,t1,120
    1080:	007fff93          	andi	t6,t6,7
    1084:	00f72023          	sw	a5,0(a4)
    1088:	01f367b3          	or	a5,t1,t6
    108c:	00e5a023          	sw	a4,0(a1)
    1090:	00879313          	slli	t1,a5,0x8
    1094:	00d72223          	sw	a3,4(a4)
    1098:	00f36fb3          	or	t6,t1,a5
    109c:	01f69023          	sh	t6,0(a3)
    10a0:	01d69123          	sh	t4,2(a3)
    10a4:	00070793          	mv	a5,a4
    10a8:	00038693          	mv	a3,t2
    10ac:	00028713          	mv	a4,t0
    10b0:	00180813          	addi	a6,a6,1
    10b4:	00870293          	addi	t0,a4,8
    10b8:	0512f863          	bgeu	t0,a7,1108 <__stack_size+0x108>
    10bc:	00468393          	addi	t2,a3,4
    10c0:	05c3f463          	bgeu	t2,t3,1108 <__stack_size+0x108>
    10c4:	01081313          	slli	t1,a6,0x10
    10c8:	01035f93          	srli	t6,t1,0x10
    10cc:	01efc333          	xor	t1,t6,t5
    10d0:	00331313          	slli	t1,t1,0x3
    10d4:	07837313          	andi	t1,t1,120
    10d8:	007fff93          	andi	t6,t6,7
    10dc:	00f72023          	sw	a5,0(a4)
    10e0:	01f367b3          	or	a5,t1,t6
    10e4:	00e5a023          	sw	a4,0(a1)
    10e8:	00879313          	slli	t1,a5,0x8
    10ec:	00d72223          	sw	a3,4(a4)
    10f0:	00f36fb3          	or	t6,t1,a5
    10f4:	01f69023          	sh	t6,0(a3)
    10f8:	01d69123          	sh	t4,2(a3)
    10fc:	00070793          	mv	a5,a4
    1100:	00038693          	mv	a3,t2
    1104:	00028713          	mv	a4,t0
    1108:	00180813          	addi	a6,a6,1
    110c:	17050463          	beq	a0,a6,1274 <__stack_size+0x274>
    1110:	00870293          	addi	t0,a4,8
    1114:	0512f863          	bgeu	t0,a7,1164 <__stack_size+0x164>
    1118:	00468393          	addi	t2,a3,4
    111c:	05c3f463          	bgeu	t2,t3,1164 <__stack_size+0x164>
    1120:	01081313          	slli	t1,a6,0x10
    1124:	01035f93          	srli	t6,t1,0x10
    1128:	01efc333          	xor	t1,t6,t5
    112c:	00331313          	slli	t1,t1,0x3
    1130:	07837313          	andi	t1,t1,120
    1134:	007fff93          	andi	t6,t6,7
    1138:	00f72023          	sw	a5,0(a4)
    113c:	01f367b3          	or	a5,t1,t6
    1140:	00e5a023          	sw	a4,0(a1)
    1144:	00879313          	slli	t1,a5,0x8
    1148:	00d72223          	sw	a3,4(a4)
    114c:	00f36fb3          	or	t6,t1,a5
    1150:	01f69023          	sh	t6,0(a3)
    1154:	01d69123          	sh	t4,2(a3)
    1158:	00070793          	mv	a5,a4
    115c:	00038693          	mv	a3,t2
    1160:	00028713          	mv	a4,t0
    1164:	00870293          	addi	t0,a4,8
    1168:	00180813          	addi	a6,a6,1
    116c:	0512f863          	bgeu	t0,a7,11bc <__stack_size+0x1bc>
    1170:	00468393          	addi	t2,a3,4
    1174:	05c3f463          	bgeu	t2,t3,11bc <__stack_size+0x1bc>
    1178:	01081313          	slli	t1,a6,0x10
    117c:	01035f93          	srli	t6,t1,0x10
    1180:	01efc333          	xor	t1,t6,t5
    1184:	00331313          	slli	t1,t1,0x3
    1188:	07837313          	andi	t1,t1,120
    118c:	007fff93          	andi	t6,t6,7
    1190:	00f72023          	sw	a5,0(a4)
    1194:	01f367b3          	or	a5,t1,t6
    1198:	00e5a023          	sw	a4,0(a1)
    119c:	00879313          	slli	t1,a5,0x8
    11a0:	00d72223          	sw	a3,4(a4)
    11a4:	00f36fb3          	or	t6,t1,a5
    11a8:	01f69023          	sh	t6,0(a3)
    11ac:	01d69123          	sh	t4,2(a3)
    11b0:	00070793          	mv	a5,a4
    11b4:	00038693          	mv	a3,t2
    11b8:	00028713          	mv	a4,t0
    11bc:	00870293          	addi	t0,a4,8
    11c0:	00180313          	addi	t1,a6,1
    11c4:	0512f863          	bgeu	t0,a7,1214 <__stack_size+0x214>
    11c8:	00468393          	addi	t2,a3,4
    11cc:	05c3f463          	bgeu	t2,t3,1214 <__stack_size+0x214>
    11d0:	01031f93          	slli	t6,t1,0x10
    11d4:	010fdf93          	srli	t6,t6,0x10
    11d8:	01efc333          	xor	t1,t6,t5
    11dc:	00331313          	slli	t1,t1,0x3
    11e0:	07837313          	andi	t1,t1,120
    11e4:	007fff93          	andi	t6,t6,7
    11e8:	00f72023          	sw	a5,0(a4)
    11ec:	01f367b3          	or	a5,t1,t6
    11f0:	00e5a023          	sw	a4,0(a1)
    11f4:	00879313          	slli	t1,a5,0x8
    11f8:	00d72223          	sw	a3,4(a4)
    11fc:	00f36fb3          	or	t6,t1,a5
    1200:	01f69023          	sh	t6,0(a3)
    1204:	01d69123          	sh	t4,2(a3)
    1208:	00070793          	mv	a5,a4
    120c:	00038693          	mv	a3,t2
    1210:	00028713          	mv	a4,t0
    1214:	00870293          	addi	t0,a4,8
    1218:	00280313          	addi	t1,a6,2
    121c:	0512f863          	bgeu	t0,a7,126c <__stack_size+0x26c>
    1220:	00468393          	addi	t2,a3,4
    1224:	05c3f463          	bgeu	t2,t3,126c <__stack_size+0x26c>
    1228:	01031f93          	slli	t6,t1,0x10
    122c:	010fdf93          	srli	t6,t6,0x10
    1230:	01efc333          	xor	t1,t6,t5
    1234:	00331313          	slli	t1,t1,0x3
    1238:	07837313          	andi	t1,t1,120
    123c:	007fff93          	andi	t6,t6,7
    1240:	00f72023          	sw	a5,0(a4)
    1244:	01f367b3          	or	a5,t1,t6
    1248:	00e5a023          	sw	a4,0(a1)
    124c:	00879313          	slli	t1,a5,0x8
    1250:	00d72223          	sw	a3,4(a4)
    1254:	00f36fb3          	or	t6,t1,a5
    1258:	01f69023          	sh	t6,0(a3)
    125c:	01d69123          	sh	t4,2(a3)
    1260:	00070793          	mv	a5,a4
    1264:	00038693          	mv	a3,t2
    1268:	00028713          	mv	a4,t0
    126c:	00380813          	addi	a6,a6,3
    1270:	eb0510e3          	bne	a0,a6,1110 <__stack_size+0x110>
    1274:	0007a883          	lw	a7,0(a5)
    1278:	06088663          	beqz	a7,12e4 <__stack_size+0x2e4>
    127c:	00500e13          	li	t3,5
    1280:	03c55f33          	divu	t5,a0,t3
    1284:	00004537          	lui	a0,0x4
    1288:	00100693          	li	a3,1
    128c:	fff50e93          	addi	t4,a0,-1 # 3fff <crcu32+0x317>
    1290:	0180006f          	j	12a8 <__stack_size+0x2a8>
    1294:	0007a783          	lw	a5,0(a5)
    1298:	00d29123          	sh	a3,2(t0)
    129c:	00168693          	addi	a3,a3,1
    12a0:	0007a283          	lw	t0,0(a5)
    12a4:	04028063          	beqz	t0,12e4 <__stack_size+0x2e4>
    12a8:	0047a283          	lw	t0,4(a5)
    12ac:	ffe6e4e3          	bltu	a3,t5,1294 <__stack_size+0x294>
    12b0:	01069393          	slli	t2,a3,0x10
    12b4:	0103d313          	srli	t1,t2,0x10
    12b8:	00130f93          	addi	t6,t1,1
    12bc:	008f9713          	slli	a4,t6,0x8
    12c0:	70077813          	andi	a6,a4,1792
    12c4:	00c348b3          	xor	a7,t1,a2
    12c8:	0007a783          	lw	a5,0(a5)
    12cc:	01186e33          	or	t3,a6,a7
    12d0:	01de7533          	and	a0,t3,t4
    12d4:	00a29123          	sh	a0,2(t0)
    12d8:	0007a283          	lw	t0,0(a5)
    12dc:	00168693          	addi	a3,a3,1
    12e0:	fc0294e3          	bnez	t0,12a8 <__stack_size+0x2a8>
    12e4:	00100813          	li	a6,1
    12e8:	00000893          	li	a7,0
    12ec:	00000513          	li	a0,0
    12f0:	00000f93          	li	t6,0
    12f4:	00100293          	li	t0,1
    12f8:	00787f13          	andi	t5,a6,7
    12fc:	001f8f93          	addi	t6,t6,1
    1300:	00058793          	mv	a5,a1
    1304:	00000713          	li	a4,0
    1308:	080f0663          	beqz	t5,1394 <__stack_size+0x394>
    130c:	00100613          	li	a2,1
    1310:	06cf0a63          	beq	t5,a2,1384 <__stack_size+0x384>
    1314:	00200e93          	li	t4,2
    1318:	07df0063          	beq	t5,t4,1378 <__stack_size+0x378>
    131c:	00300393          	li	t2,3
    1320:	047f0663          	beq	t5,t2,136c <__stack_size+0x36c>
    1324:	00400313          	li	t1,4
    1328:	026f0c63          	beq	t5,t1,1360 <__stack_size+0x360>
    132c:	00500e13          	li	t3,5
    1330:	03cf0263          	beq	t5,t3,1354 <__stack_size+0x354>
    1334:	00600693          	li	a3,6
    1338:	00df0863          	beq	t5,a3,1348 <__stack_size+0x348>
    133c:	0005a783          	lw	a5,0(a1)
    1340:	00100713          	li	a4,1
    1344:	0a078a63          	beqz	a5,13f8 <__stack_size+0x3f8>
    1348:	0007a783          	lw	a5,0(a5)
    134c:	00170713          	addi	a4,a4,1
    1350:	0a078463          	beqz	a5,13f8 <__stack_size+0x3f8>
    1354:	0007a783          	lw	a5,0(a5)
    1358:	00170713          	addi	a4,a4,1
    135c:	08078e63          	beqz	a5,13f8 <__stack_size+0x3f8>
    1360:	0007a783          	lw	a5,0(a5)
    1364:	00170713          	addi	a4,a4,1
    1368:	08078863          	beqz	a5,13f8 <__stack_size+0x3f8>
    136c:	0007a783          	lw	a5,0(a5)
    1370:	00170713          	addi	a4,a4,1
    1374:	08078263          	beqz	a5,13f8 <__stack_size+0x3f8>
    1378:	0007a783          	lw	a5,0(a5)
    137c:	00170713          	addi	a4,a4,1
    1380:	06078c63          	beqz	a5,13f8 <__stack_size+0x3f8>
    1384:	0007a783          	lw	a5,0(a5)
    1388:	00170713          	addi	a4,a4,1
    138c:	06078663          	beqz	a5,13f8 <__stack_size+0x3f8>
    1390:	07070463          	beq	a4,a6,13f8 <__stack_size+0x3f8>
    1394:	0007a783          	lw	a5,0(a5)
    1398:	00170713          	addi	a4,a4,1
    139c:	00070f13          	mv	t5,a4
    13a0:	04078c63          	beqz	a5,13f8 <__stack_size+0x3f8>
    13a4:	0007a783          	lw	a5,0(a5)
    13a8:	00170713          	addi	a4,a4,1
    13ac:	04078663          	beqz	a5,13f8 <__stack_size+0x3f8>
    13b0:	0007a783          	lw	a5,0(a5)
    13b4:	002f0713          	addi	a4,t5,2
    13b8:	04078063          	beqz	a5,13f8 <__stack_size+0x3f8>
    13bc:	0007a783          	lw	a5,0(a5)
    13c0:	003f0713          	addi	a4,t5,3
    13c4:	02078a63          	beqz	a5,13f8 <__stack_size+0x3f8>
    13c8:	0007a783          	lw	a5,0(a5)
    13cc:	004f0713          	addi	a4,t5,4
    13d0:	02078463          	beqz	a5,13f8 <__stack_size+0x3f8>
    13d4:	0007a783          	lw	a5,0(a5)
    13d8:	005f0713          	addi	a4,t5,5
    13dc:	00078e63          	beqz	a5,13f8 <__stack_size+0x3f8>
    13e0:	0007a783          	lw	a5,0(a5)
    13e4:	006f0713          	addi	a4,t5,6
    13e8:	00078863          	beqz	a5,13f8 <__stack_size+0x3f8>
    13ec:	0007a783          	lw	a5,0(a5)
    13f0:	007f0713          	addi	a4,t5,7
    13f4:	f8079ee3          	bnez	a5,1390 <__stack_size+0x390>
    13f8:	00058693          	mv	a3,a1
    13fc:	00080613          	mv	a2,a6
    1400:	00078593          	mv	a1,a5
    1404:	06070c63          	beqz	a4,147c <__stack_size+0x47c>
    1408:	08060c63          	beqz	a2,14a0 <__stack_size+0x4a0>
    140c:	08058a63          	beqz	a1,14a0 <__stack_size+0x4a0>
    1410:	0046ae83          	lw	t4,4(a3)
    1414:	0045ae03          	lw	t3,4(a1)
    1418:	000e9783          	lh	a5,0(t4) # ffff8000 <_sp+0xefff5000>
    141c:	002e1383          	lh	t2,2(t3)
    1420:	002e9303          	lh	t1,2(t4)
    1424:	01079f13          	slli	t5,a5,0x10
    1428:	010f5f13          	srli	t5,t5,0x10
    142c:	008f5f13          	srli	t5,t5,0x8
    1430:	f007f793          	andi	a5,a5,-256
    1434:	01e7e7b3          	or	a5,a5,t5
    1438:	00fe9023          	sh	a5,0(t4)
    143c:	000e1f03          	lh	t5,0(t3)
    1440:	40730333          	sub	t1,t1,t2
    1444:	010f1e93          	slli	t4,t5,0x10
    1448:	010ed393          	srli	t2,t4,0x10
    144c:	f00f7793          	andi	a5,t5,-256
    1450:	0083df13          	srli	t5,t2,0x8
    1454:	01e7eeb3          	or	t4,a5,t5
    1458:	01de1023          	sh	t4,0(t3)
    145c:	04605263          	blez	t1,14a0 <__stack_size+0x4a0>
    1460:	00058e13          	mv	t3,a1
    1464:	0005a583          	lw	a1,0(a1)
    1468:	fff60613          	addi	a2,a2,-1
    146c:	02088463          	beqz	a7,1494 <__stack_size+0x494>
    1470:	01c8a023          	sw	t3,0(a7)
    1474:	000e0893          	mv	a7,t3
    1478:	f80718e3          	bnez	a4,1408 <__stack_size+0x408>
    147c:	02060a63          	beqz	a2,14b0 <__stack_size+0x4b0>
    1480:	02058a63          	beqz	a1,14b4 <__stack_size+0x4b4>
    1484:	00058e13          	mv	t3,a1
    1488:	fff60613          	addi	a2,a2,-1
    148c:	0005a583          	lw	a1,0(a1)
    1490:	fe0890e3          	bnez	a7,1470 <__stack_size+0x470>
    1494:	000e0513          	mv	a0,t3
    1498:	000e0893          	mv	a7,t3
    149c:	fddff06f          	j	1478 <__stack_size+0x478>
    14a0:	00068e13          	mv	t3,a3
    14a4:	fff70713          	addi	a4,a4,-1
    14a8:	0006a683          	lw	a3,0(a3)
    14ac:	fc1ff06f          	j	146c <__stack_size+0x46c>
    14b0:	e40594e3          	bnez	a1,12f8 <__stack_size+0x2f8>
    14b4:	0008a023          	sw	zero,0(a7)
    14b8:	025f8063          	beq	t6,t0,14d8 <__stack_size+0x4d8>
    14bc:	00181813          	slli	a6,a6,0x1
    14c0:	00050e63          	beqz	a0,14dc <__stack_size+0x4dc>
    14c4:	00050593          	mv	a1,a0
    14c8:	00000f93          	li	t6,0
    14cc:	00000893          	li	a7,0
    14d0:	00000513          	li	a0,0
    14d4:	e25ff06f          	j	12f8 <__stack_size+0x2f8>
    14d8:	00008067          	ret
    14dc:	00002023          	sw	zero,0(zero) # 0 <_start>
    14e0:	00100073          	ebreak
    14e4:	00078713          	mv	a4,a5
    14e8:	00030693          	mv	a3,t1
    14ec:	00000793          	li	a5,0
    14f0:	af9ff06f          	j	fe8 <core_list_init+0x68>

000014f4 <iterate>:
    14f4:	fe010113          	addi	sp,sp,-32
    14f8:	01312623          	sw	s3,12(sp)
    14fc:	01c52983          	lw	s3,28(a0)
    1500:	00112e23          	sw	ra,28(sp)
    1504:	00812c23          	sw	s0,24(sp)
    1508:	00912a23          	sw	s1,20(sp)
    150c:	01212823          	sw	s2,16(sp)
    1510:	01412423          	sw	s4,8(sp)
    1514:	01512223          	sw	s5,4(sp)
    1518:	02052c23          	sw	zero,56(a0)
    151c:	02052e23          	sw	zero,60(a0)
    1520:	1c098263          	beqz	s3,16e4 <iterate+0x1f0>
    1524:	0039f793          	andi	a5,s3,3
    1528:	00050413          	mv	s0,a0
    152c:	00000493          	li	s1,0
    1530:	0a078e63          	beqz	a5,15ec <iterate+0xf8>
    1534:	00100713          	li	a4,1
    1538:	06e78c63          	beq	a5,a4,15b0 <iterate+0xbc>
    153c:	00200093          	li	ra,2
    1540:	02178c63          	beq	a5,ra,1578 <iterate+0x84>
    1544:	00100593          	li	a1,1
    1548:	9ecff0ef          	jal	ra,734 <core_bench_list>
    154c:	03845583          	lhu	a1,56(s0)
    1550:	00100493          	li	s1,1
    1554:	514020ef          	jal	ra,3a68 <crcu16>
    1558:	02a41c23          	sh	a0,56(s0)
    155c:	fff00593          	li	a1,-1
    1560:	00040513          	mv	a0,s0
    1564:	9d0ff0ef          	jal	ra,734 <core_bench_list>
    1568:	03845583          	lhu	a1,56(s0)
    156c:	4fc020ef          	jal	ra,3a68 <crcu16>
    1570:	02a41c23          	sh	a0,56(s0)
    1574:	02a41d23          	sh	a0,58(s0)
    1578:	00100593          	li	a1,1
    157c:	00040513          	mv	a0,s0
    1580:	9b4ff0ef          	jal	ra,734 <core_bench_list>
    1584:	03845583          	lhu	a1,56(s0)
    1588:	4e0020ef          	jal	ra,3a68 <crcu16>
    158c:	02a41c23          	sh	a0,56(s0)
    1590:	fff00593          	li	a1,-1
    1594:	00040513          	mv	a0,s0
    1598:	99cff0ef          	jal	ra,734 <core_bench_list>
    159c:	03845583          	lhu	a1,56(s0)
    15a0:	4c8020ef          	jal	ra,3a68 <crcu16>
    15a4:	02a41c23          	sh	a0,56(s0)
    15a8:	18048063          	beqz	s1,1728 <iterate+0x234>
    15ac:	00148493          	addi	s1,s1,1
    15b0:	00100593          	li	a1,1
    15b4:	00040513          	mv	a0,s0
    15b8:	97cff0ef          	jal	ra,734 <core_bench_list>
    15bc:	03845583          	lhu	a1,56(s0)
    15c0:	4a8020ef          	jal	ra,3a68 <crcu16>
    15c4:	02a41c23          	sh	a0,56(s0)
    15c8:	fff00593          	li	a1,-1
    15cc:	00040513          	mv	a0,s0
    15d0:	964ff0ef          	jal	ra,734 <core_bench_list>
    15d4:	03845583          	lhu	a1,56(s0)
    15d8:	490020ef          	jal	ra,3a68 <crcu16>
    15dc:	02a41c23          	sh	a0,56(s0)
    15e0:	12048c63          	beqz	s1,1718 <iterate+0x224>
    15e4:	00148493          	addi	s1,s1,1
    15e8:	0e998e63          	beq	s3,s1,16e4 <iterate+0x1f0>
    15ec:	00100593          	li	a1,1
    15f0:	00040513          	mv	a0,s0
    15f4:	940ff0ef          	jal	ra,734 <core_bench_list>
    15f8:	03845583          	lhu	a1,56(s0)
    15fc:	00148913          	addi	s2,s1,1
    1600:	468020ef          	jal	ra,3a68 <crcu16>
    1604:	02a41c23          	sh	a0,56(s0)
    1608:	fff00593          	li	a1,-1
    160c:	00040513          	mv	a0,s0
    1610:	924ff0ef          	jal	ra,734 <core_bench_list>
    1614:	03845583          	lhu	a1,56(s0)
    1618:	450020ef          	jal	ra,3a68 <crcu16>
    161c:	00050293          	mv	t0,a0
    1620:	02541c23          	sh	t0,56(s0)
    1624:	00100593          	li	a1,1
    1628:	00040513          	mv	a0,s0
    162c:	00049463          	bnez	s1,1634 <iterate+0x140>
    1630:	02541d23          	sh	t0,58(s0)
    1634:	900ff0ef          	jal	ra,734 <core_bench_list>
    1638:	03845583          	lhu	a1,56(s0)
    163c:	42c020ef          	jal	ra,3a68 <crcu16>
    1640:	02a41c23          	sh	a0,56(s0)
    1644:	fff00593          	li	a1,-1
    1648:	00040513          	mv	a0,s0
    164c:	8e8ff0ef          	jal	ra,734 <core_bench_list>
    1650:	03845583          	lhu	a1,56(s0)
    1654:	414020ef          	jal	ra,3a68 <crcu16>
    1658:	02a41c23          	sh	a0,56(s0)
    165c:	00091463          	bnez	s2,1664 <iterate+0x170>
    1660:	02a41d23          	sh	a0,58(s0)
    1664:	00100593          	li	a1,1
    1668:	00040513          	mv	a0,s0
    166c:	8c8ff0ef          	jal	ra,734 <core_bench_list>
    1670:	03845583          	lhu	a1,56(s0)
    1674:	00190a93          	addi	s5,s2,1
    1678:	00290a13          	addi	s4,s2,2
    167c:	3ec020ef          	jal	ra,3a68 <crcu16>
    1680:	02a41c23          	sh	a0,56(s0)
    1684:	fff00593          	li	a1,-1
    1688:	00040513          	mv	a0,s0
    168c:	8a8ff0ef          	jal	ra,734 <core_bench_list>
    1690:	03845583          	lhu	a1,56(s0)
    1694:	00390493          	addi	s1,s2,3
    1698:	3d0020ef          	jal	ra,3a68 <crcu16>
    169c:	00050313          	mv	t1,a0
    16a0:	02641c23          	sh	t1,56(s0)
    16a4:	00100593          	li	a1,1
    16a8:	00040513          	mv	a0,s0
    16ac:	000a9463          	bnez	s5,16b4 <iterate+0x1c0>
    16b0:	02641d23          	sh	t1,58(s0)
    16b4:	880ff0ef          	jal	ra,734 <core_bench_list>
    16b8:	03845583          	lhu	a1,56(s0)
    16bc:	3ac020ef          	jal	ra,3a68 <crcu16>
    16c0:	02a41c23          	sh	a0,56(s0)
    16c4:	fff00593          	li	a1,-1
    16c8:	00040513          	mv	a0,s0
    16cc:	868ff0ef          	jal	ra,734 <core_bench_list>
    16d0:	03845583          	lhu	a1,56(s0)
    16d4:	394020ef          	jal	ra,3a68 <crcu16>
    16d8:	02a41c23          	sh	a0,56(s0)
    16dc:	020a0863          	beqz	s4,170c <iterate+0x218>
    16e0:	f09996e3          	bne	s3,s1,15ec <iterate+0xf8>
    16e4:	01c12083          	lw	ra,28(sp)
    16e8:	01812403          	lw	s0,24(sp)
    16ec:	01412483          	lw	s1,20(sp)
    16f0:	01012903          	lw	s2,16(sp)
    16f4:	00c12983          	lw	s3,12(sp)
    16f8:	00812a03          	lw	s4,8(sp)
    16fc:	00412a83          	lw	s5,4(sp)
    1700:	00000513          	li	a0,0
    1704:	02010113          	addi	sp,sp,32
    1708:	00008067          	ret
    170c:	02a41d23          	sh	a0,58(s0)
    1710:	ec999ee3          	bne	s3,s1,15ec <iterate+0xf8>
    1714:	fd1ff06f          	j	16e4 <iterate+0x1f0>
    1718:	02a41d23          	sh	a0,58(s0)
    171c:	00148493          	addi	s1,s1,1
    1720:	ec9996e3          	bne	s3,s1,15ec <iterate+0xf8>
    1724:	fc1ff06f          	j	16e4 <iterate+0x1f0>
    1728:	02a41d23          	sh	a0,58(s0)
    172c:	00148493          	addi	s1,s1,1
    1730:	e81ff06f          	j	15b0 <iterate+0xbc>

00001734 <core_init_matrix>:
    1734:	fd010113          	addi	sp,sp,-48
    1738:	02812623          	sw	s0,44(sp)
    173c:	02912423          	sw	s1,40(sp)
    1740:	03212223          	sw	s2,36(sp)
    1744:	03312023          	sw	s3,32(sp)
    1748:	01412e23          	sw	s4,28(sp)
    174c:	01512c23          	sw	s5,24(sp)
    1750:	01612a23          	sw	s6,20(sp)
    1754:	01712823          	sw	s7,16(sp)
    1758:	01812623          	sw	s8,12(sp)
    175c:	01912423          	sw	s9,8(sp)
    1760:	00050813          	mv	a6,a0
    1764:	00061463          	bnez	a2,176c <core_init_matrix+0x38>
    1768:	00100613          	li	a2,1
    176c:	00358593          	addi	a1,a1,3
    1770:	ffc5f913          	andi	s2,a1,-4
    1774:	00000513          	li	a0,0
    1778:	00081663          	bnez	a6,1784 <core_init_matrix+0x50>
    177c:	30c0006f          	j	1a88 <core_init_matrix+0x354>
    1780:	00070513          	mv	a0,a4
    1784:	00150713          	addi	a4,a0,1
    1788:	02e707b3          	mul	a5,a4,a4
    178c:	00379293          	slli	t0,a5,0x3
    1790:	ff02e8e3          	bltu	t0,a6,1780 <core_init_matrix+0x4c>
    1794:	02a50333          	mul	t1,a0,a0
    1798:	00050a13          	mv	s4,a0
    179c:	00131413          	slli	s0,t1,0x1
    17a0:	008909b3          	add	s3,s2,s0
    17a4:	28050c63          	beqz	a0,1a3c <core_init_matrix+0x308>
    17a8:	00010eb7          	lui	t4,0x10
    17ac:	00151493          	slli	s1,a0,0x1
    17b0:	00098f93          	mv	t6,s3
    17b4:	00000393          	li	t2,0
    17b8:	00100813          	li	a6,1
    17bc:	41390f33          	sub	t5,s2,s3
    17c0:	fffe8e93          	addi	t4,t4,-1 # ffff <_data_lma+0x9957>
    17c4:	03060633          	mul	a2,a2,a6
    17c8:	01081893          	slli	a7,a6,0x10
    17cc:	0108da93          	srli	s5,a7,0x10
    17d0:	fff50b93          	addi	s7,a0,-1
    17d4:	003bfc13          	andi	s8,s7,3
    17d8:	01ff0b33          	add	s6,t5,t6
    17dc:	00100e13          	li	t3,1
    17e0:	002f8593          	addi	a1,t6,2
    17e4:	00180813          	addi	a6,a6,1
    17e8:	41f65c93          	srai	s9,a2,0x1f
    17ec:	010cd713          	srli	a4,s9,0x10
    17f0:	00e607b3          	add	a5,a2,a4
    17f4:	01d7f2b3          	and	t0,a5,t4
    17f8:	40e28633          	sub	a2,t0,a4
    17fc:	00ca8333          	add	t1,s5,a2
    1800:	01031893          	slli	a7,t1,0x10
    1804:	0108db93          	srli	s7,a7,0x10
    1808:	015b8ab3          	add	s5,s7,s5
    180c:	017f9023          	sh	s7,0(t6)
    1810:	0ffafc93          	andi	s9,s5,255
    1814:	019b1023          	sh	s9,0(s6)
    1818:	20ae7c63          	bgeu	t3,a0,1a30 <core_init_matrix+0x2fc>
    181c:	0e0c0c63          	beqz	s8,1914 <core_init_matrix+0x1e0>
    1820:	0bcc0263          	beq	s8,t3,18c4 <core_init_matrix+0x190>
    1824:	00200b13          	li	s6,2
    1828:	056c0863          	beq	s8,s6,1878 <core_init_matrix+0x144>
    182c:	03060633          	mul	a2,a2,a6
    1830:	01081e13          	slli	t3,a6,0x10
    1834:	010e5c13          	srli	s8,t3,0x10
    1838:	00bf02b3          	add	t0,t5,a1
    183c:	00200e13          	li	t3,2
    1840:	00180813          	addi	a6,a6,1
    1844:	41f65713          	srai	a4,a2,0x1f
    1848:	01075793          	srli	a5,a4,0x10
    184c:	00f60333          	add	t1,a2,a5
    1850:	01d378b3          	and	a7,t1,t4
    1854:	40f88633          	sub	a2,a7,a5
    1858:	00cc0bb3          	add	s7,s8,a2
    185c:	010b9a93          	slli	s5,s7,0x10
    1860:	010adc93          	srli	s9,s5,0x10
    1864:	018c8b33          	add	s6,s9,s8
    1868:	01959023          	sh	s9,0(a1)
    186c:	0ffb7593          	andi	a1,s6,255
    1870:	00b29023          	sh	a1,0(t0)
    1874:	004f8593          	addi	a1,t6,4
    1878:	03060633          	mul	a2,a2,a6
    187c:	01081c13          	slli	s8,a6,0x10
    1880:	010c5293          	srli	t0,s8,0x10
    1884:	00bf0333          	add	t1,t5,a1
    1888:	001e0e13          	addi	t3,t3,1
    188c:	00180813          	addi	a6,a6,1
    1890:	00258593          	addi	a1,a1,2
    1894:	41f65713          	srai	a4,a2,0x1f
    1898:	01075793          	srli	a5,a4,0x10
    189c:	00f608b3          	add	a7,a2,a5
    18a0:	01d8fbb3          	and	s7,a7,t4
    18a4:	40fb8633          	sub	a2,s7,a5
    18a8:	00c28ab3          	add	s5,t0,a2
    18ac:	010a9c93          	slli	s9,s5,0x10
    18b0:	010cdb13          	srli	s6,s9,0x10
    18b4:	005b0c33          	add	s8,s6,t0
    18b8:	ff659f23          	sh	s6,-2(a1)
    18bc:	0ffc7293          	andi	t0,s8,255
    18c0:	00531023          	sh	t0,0(t1)
    18c4:	03060633          	mul	a2,a2,a6
    18c8:	01081313          	slli	t1,a6,0x10
    18cc:	01035793          	srli	a5,t1,0x10
    18d0:	00bf08b3          	add	a7,t5,a1
    18d4:	00258593          	addi	a1,a1,2
    18d8:	001e0e13          	addi	t3,t3,1
    18dc:	00180813          	addi	a6,a6,1
    18e0:	41f65713          	srai	a4,a2,0x1f
    18e4:	01075b93          	srli	s7,a4,0x10
    18e8:	01760ab3          	add	s5,a2,s7
    18ec:	01dafcb3          	and	s9,s5,t4
    18f0:	417c8633          	sub	a2,s9,s7
    18f4:	00c78b33          	add	s6,a5,a2
    18f8:	010b1c13          	slli	s8,s6,0x10
    18fc:	010c5293          	srli	t0,s8,0x10
    1900:	00f28333          	add	t1,t0,a5
    1904:	fe559f23          	sh	t0,-2(a1)
    1908:	0ff37793          	andi	a5,t1,255
    190c:	00f89023          	sh	a5,0(a7)
    1910:	12ae7063          	bgeu	t3,a0,1a30 <core_init_matrix+0x2fc>
    1914:	03060633          	mul	a2,a2,a6
    1918:	00280713          	addi	a4,a6,2
    191c:	01071c93          	slli	s9,a4,0x10
    1920:	010cd313          	srli	t1,s9,0x10
    1924:	00180793          	addi	a5,a6,1
    1928:	01079b93          	slli	s7,a5,0x10
    192c:	01081893          	slli	a7,a6,0x10
    1930:	0108d293          	srli	t0,a7,0x10
    1934:	00bf0c33          	add	s8,t5,a1
    1938:	010bdb13          	srli	s6,s7,0x10
    193c:	41f65c93          	srai	s9,a2,0x1f
    1940:	010cdc93          	srli	s9,s9,0x10
    1944:	01960633          	add	a2,a2,s9
    1948:	01d67633          	and	a2,a2,t4
    194c:	41960cb3          	sub	s9,a2,s9
    1950:	02fc87b3          	mul	a5,s9,a5
    1954:	01928633          	add	a2,t0,s9
    1958:	01061c93          	slli	s9,a2,0x10
    195c:	010cd613          	srli	a2,s9,0x10
    1960:	005602b3          	add	t0,a2,t0
    1964:	00c59023          	sh	a2,0(a1)
    1968:	0ff2fc93          	andi	s9,t0,255
    196c:	019c1023          	sh	s9,0(s8)
    1970:	000c0b93          	mv	s7,s8
    1974:	000c0613          	mv	a2,s8
    1978:	000c0293          	mv	t0,s8
    197c:	41f7dc13          	srai	s8,a5,0x1f
    1980:	010c5c93          	srli	s9,s8,0x10
    1984:	019787b3          	add	a5,a5,s9
    1988:	01d7fc33          	and	s8,a5,t4
    198c:	419c0cb3          	sub	s9,s8,s9
    1990:	02ec8733          	mul	a4,s9,a4
    1994:	019b07b3          	add	a5,s6,s9
    1998:	01079c13          	slli	s8,a5,0x10
    199c:	010c5c93          	srli	s9,s8,0x10
    19a0:	016c8b33          	add	s6,s9,s6
    19a4:	01959123          	sh	s9,2(a1)
    19a8:	0ffb7793          	andi	a5,s6,255
    19ac:	00fb9123          	sh	a5,2(s7)
    19b0:	00380a93          	addi	s5,a6,3
    19b4:	010a9893          	slli	a7,s5,0x10
    19b8:	41f75b93          	srai	s7,a4,0x1f
    19bc:	010bdc13          	srli	s8,s7,0x10
    19c0:	01870733          	add	a4,a4,s8
    19c4:	01d77cb3          	and	s9,a4,t4
    19c8:	418c8b33          	sub	s6,s9,s8
    19cc:	035b0ab3          	mul	s5,s6,s5
    19d0:	016307b3          	add	a5,t1,s6
    19d4:	01079b93          	slli	s7,a5,0x10
    19d8:	010bdc13          	srli	s8,s7,0x10
    19dc:	006c0333          	add	t1,s8,t1
    19e0:	00858593          	addi	a1,a1,8
    19e4:	ff859e23          	sh	s8,-4(a1)
    19e8:	0ff37713          	andi	a4,t1,255
    19ec:	00e61223          	sh	a4,4(a2)
    19f0:	0108d893          	srli	a7,a7,0x10
    19f4:	41fad613          	srai	a2,s5,0x1f
    19f8:	01065c93          	srli	s9,a2,0x10
    19fc:	019a8b33          	add	s6,s5,s9
    1a00:	01db7ab3          	and	s5,s6,t4
    1a04:	419a8633          	sub	a2,s5,s9
    1a08:	00c887b3          	add	a5,a7,a2
    1a0c:	01079b93          	slli	s7,a5,0x10
    1a10:	010bdc13          	srli	s8,s7,0x10
    1a14:	011c08b3          	add	a7,s8,a7
    1a18:	ff859f23          	sh	s8,-2(a1)
    1a1c:	0ff8f313          	andi	t1,a7,255
    1a20:	004e0e13          	addi	t3,t3,4
    1a24:	00629323          	sh	t1,6(t0)
    1a28:	00480813          	addi	a6,a6,4
    1a2c:	eeae64e3          	bltu	t3,a0,1914 <core_init_matrix+0x1e0>
    1a30:	00138393          	addi	t2,t2,1
    1a34:	009f8fb3          	add	t6,t6,s1
    1a38:	d8a3e6e3          	bltu	t2,a0,17c4 <core_init_matrix+0x90>
    1a3c:	00898433          	add	s0,s3,s0
    1a40:	00340493          	addi	s1,s0,3
    1a44:	02c12403          	lw	s0,44(sp)
    1a48:	ffc4ff93          	andi	t6,s1,-4
    1a4c:	0126a223          	sw	s2,4(a3)
    1a50:	0136a423          	sw	s3,8(a3)
    1a54:	0146a023          	sw	s4,0(a3)
    1a58:	01f6a623          	sw	t6,12(a3)
    1a5c:	02812483          	lw	s1,40(sp)
    1a60:	02412903          	lw	s2,36(sp)
    1a64:	02012983          	lw	s3,32(sp)
    1a68:	01c12a03          	lw	s4,28(sp)
    1a6c:	01812a83          	lw	s5,24(sp)
    1a70:	01412b03          	lw	s6,20(sp)
    1a74:	01012b83          	lw	s7,16(sp)
    1a78:	00c12c03          	lw	s8,12(sp)
    1a7c:	00812c83          	lw	s9,8(sp)
    1a80:	03010113          	addi	sp,sp,48
    1a84:	00008067          	ret
    1a88:	00290993          	addi	s3,s2,2
    1a8c:	fff00a13          	li	s4,-1
    1a90:	fff00513          	li	a0,-1
    1a94:	00200413          	li	s0,2
    1a98:	d11ff06f          	j	17a8 <core_init_matrix+0x74>

00001a9c <matrix_mul_matrix>:
    1a9c:	26050663          	beqz	a0,1d08 <matrix_mul_matrix+0x26c>
    1aa0:	fc010113          	addi	sp,sp,-64
    1aa4:	03712023          	sw	s7,32(sp)
    1aa8:	00050b93          	mv	s7,a0
    1aac:	00151813          	slli	a6,a0,0x1
    1ab0:	002b9793          	slli	a5,s7,0x2
    1ab4:	03612223          	sw	s6,36(sp)
    1ab8:	01812e23          	sw	s8,28(sp)
    1abc:	01912c23          	sw	s9,24(sp)
    1ac0:	01a12a23          	sw	s10,20(sp)
    1ac4:	02812e23          	sw	s0,60(sp)
    1ac8:	02912c23          	sw	s1,56(sp)
    1acc:	03212a23          	sw	s2,52(sp)
    1ad0:	03312823          	sw	s3,48(sp)
    1ad4:	03412623          	sw	s4,44(sp)
    1ad8:	03512423          	sw	s5,40(sp)
    1adc:	01b12823          	sw	s11,16(sp)
    1ae0:	00068d13          	mv	s10,a3
    1ae4:	00060513          	mv	a0,a2
    1ae8:	010603b3          	add	t2,a2,a6
    1aec:	00f12623          	sw	a5,12(sp)
    1af0:	00058c13          	mv	s8,a1
    1af4:	01068b33          	add	s6,a3,a6
    1af8:	00000c93          	li	s9,0
    1afc:	000d0613          	mv	a2,s10
    1b00:	000c0293          	mv	t0,s8
    1b04:	40a38733          	sub	a4,t2,a0
    1b08:	ffe70313          	addi	t1,a4,-2
    1b0c:	00135413          	srli	s0,t1,0x1
    1b10:	00140493          	addi	s1,s0,1
    1b14:	0074f913          	andi	s2,s1,7
    1b18:	00060593          	mv	a1,a2
    1b1c:	00050693          	mv	a3,a0
    1b20:	00000793          	li	a5,0
    1b24:	0c090e63          	beqz	s2,1c00 <matrix_mul_matrix+0x164>
    1b28:	00100893          	li	a7,1
    1b2c:	0b190c63          	beq	s2,a7,1be4 <matrix_mul_matrix+0x148>
    1b30:	00200993          	li	s3,2
    1b34:	09390c63          	beq	s2,s3,1bcc <matrix_mul_matrix+0x130>
    1b38:	00300a13          	li	s4,3
    1b3c:	07490c63          	beq	s2,s4,1bb4 <matrix_mul_matrix+0x118>
    1b40:	00400a93          	li	s5,4
    1b44:	05590c63          	beq	s2,s5,1b9c <matrix_mul_matrix+0x100>
    1b48:	00500d93          	li	s11,5
    1b4c:	03b90c63          	beq	s2,s11,1b84 <matrix_mul_matrix+0xe8>
    1b50:	00600e13          	li	t3,6
    1b54:	01c90c63          	beq	s2,t3,1b6c <matrix_mul_matrix+0xd0>
    1b58:	00051e83          	lh	t4,0(a0)
    1b5c:	00061f03          	lh	t5,0(a2)
    1b60:	00250693          	addi	a3,a0,2
    1b64:	010605b3          	add	a1,a2,a6
    1b68:	03ee87b3          	mul	a5,t4,t5
    1b6c:	00069f83          	lh	t6,0(a3)
    1b70:	00059703          	lh	a4,0(a1)
    1b74:	00268693          	addi	a3,a3,2
    1b78:	010585b3          	add	a1,a1,a6
    1b7c:	02ef8333          	mul	t1,t6,a4
    1b80:	006787b3          	add	a5,a5,t1
    1b84:	00069403          	lh	s0,0(a3)
    1b88:	00059483          	lh	s1,0(a1)
    1b8c:	00268693          	addi	a3,a3,2
    1b90:	010585b3          	add	a1,a1,a6
    1b94:	02940933          	mul	s2,s0,s1
    1b98:	012787b3          	add	a5,a5,s2
    1b9c:	00069983          	lh	s3,0(a3)
    1ba0:	00059883          	lh	a7,0(a1)
    1ba4:	00268693          	addi	a3,a3,2
    1ba8:	010585b3          	add	a1,a1,a6
    1bac:	03198a33          	mul	s4,s3,a7
    1bb0:	014787b3          	add	a5,a5,s4
    1bb4:	00069a83          	lh	s5,0(a3)
    1bb8:	00059d83          	lh	s11,0(a1)
    1bbc:	00268693          	addi	a3,a3,2
    1bc0:	010585b3          	add	a1,a1,a6
    1bc4:	03ba8e33          	mul	t3,s5,s11
    1bc8:	01c787b3          	add	a5,a5,t3
    1bcc:	00069e83          	lh	t4,0(a3)
    1bd0:	00059f03          	lh	t5,0(a1)
    1bd4:	00268693          	addi	a3,a3,2
    1bd8:	010585b3          	add	a1,a1,a6
    1bdc:	03ee8fb3          	mul	t6,t4,t5
    1be0:	01f787b3          	add	a5,a5,t6
    1be4:	00069703          	lh	a4,0(a3)
    1be8:	00059303          	lh	t1,0(a1)
    1bec:	00268693          	addi	a3,a3,2
    1bf0:	010585b3          	add	a1,a1,a6
    1bf4:	02670433          	mul	s0,a4,t1
    1bf8:	008787b3          	add	a5,a5,s0
    1bfc:	0ad38663          	beq	t2,a3,1ca8 <matrix_mul_matrix+0x20c>
    1c00:	010584b3          	add	s1,a1,a6
    1c04:	00069983          	lh	s3,0(a3)
    1c08:	00059a03          	lh	s4,0(a1)
    1c0c:	00049f03          	lh	t5,0(s1)
    1c10:	00269a83          	lh	s5,2(a3)
    1c14:	03498733          	mul	a4,s3,s4
    1c18:	010488b3          	add	a7,s1,a6
    1c1c:	01088e33          	add	t3,a7,a6
    1c20:	00089d83          	lh	s11,0(a7)
    1c24:	00469903          	lh	s2,4(a3)
    1c28:	010e0fb3          	add	t6,t3,a6
    1c2c:	000e1a03          	lh	s4,0(t3)
    1c30:	00669403          	lh	s0,6(a3)
    1c34:	010f8333          	add	t1,t6,a6
    1c38:	00869e83          	lh	t4,8(a3)
    1c3c:	03ea8ab3          	mul	s5,s5,t5
    1c40:	000f9983          	lh	s3,0(t6)
    1c44:	010308b3          	add	a7,t1,a6
    1c48:	00a69e03          	lh	t3,10(a3)
    1c4c:	00031483          	lh	s1,0(t1)
    1c50:	010885b3          	add	a1,a7,a6
    1c54:	00c69303          	lh	t1,12(a3)
    1c58:	00089f83          	lh	t6,0(a7)
    1c5c:	00059f03          	lh	t5,0(a1)
    1c60:	00e69883          	lh	a7,14(a3)
    1c64:	03b90933          	mul	s2,s2,s11
    1c68:	00e787b3          	add	a5,a5,a4
    1c6c:	01578db3          	add	s11,a5,s5
    1c70:	01068693          	addi	a3,a3,16
    1c74:	010585b3          	add	a1,a1,a6
    1c78:	03440433          	mul	s0,s0,s4
    1c7c:	012d8733          	add	a4,s11,s2
    1c80:	033e8a33          	mul	s4,t4,s3
    1c84:	00870eb3          	add	t4,a4,s0
    1c88:	029e09b3          	mul	s3,t3,s1
    1c8c:	014e8e33          	add	t3,t4,s4
    1c90:	03f304b3          	mul	s1,t1,t6
    1c94:	013e0333          	add	t1,t3,s3
    1c98:	03e88ab3          	mul	s5,a7,t5
    1c9c:	00930fb3          	add	t6,t1,s1
    1ca0:	015f87b3          	add	a5,t6,s5
    1ca4:	f4d39ee3          	bne	t2,a3,1c00 <matrix_mul_matrix+0x164>
    1ca8:	00f2a023          	sw	a5,0(t0)
    1cac:	00260613          	addi	a2,a2,2
    1cb0:	00428293          	addi	t0,t0,4
    1cb4:	e4cb18e3          	bne	s6,a2,1b04 <matrix_mul_matrix+0x68>
    1cb8:	00c12603          	lw	a2,12(sp)
    1cbc:	001c8c93          	addi	s9,s9,1
    1cc0:	01050533          	add	a0,a0,a6
    1cc4:	010383b3          	add	t2,t2,a6
    1cc8:	00cc0c33          	add	s8,s8,a2
    1ccc:	e39b98e3          	bne	s7,s9,1afc <matrix_mul_matrix+0x60>
    1cd0:	03c12403          	lw	s0,60(sp)
    1cd4:	03812483          	lw	s1,56(sp)
    1cd8:	03412903          	lw	s2,52(sp)
    1cdc:	03012983          	lw	s3,48(sp)
    1ce0:	02c12a03          	lw	s4,44(sp)
    1ce4:	02812a83          	lw	s5,40(sp)
    1ce8:	02412b03          	lw	s6,36(sp)
    1cec:	02012b83          	lw	s7,32(sp)
    1cf0:	01c12c03          	lw	s8,28(sp)
    1cf4:	01812c83          	lw	s9,24(sp)
    1cf8:	01412d03          	lw	s10,20(sp)
    1cfc:	01012d83          	lw	s11,16(sp)
    1d00:	04010113          	addi	sp,sp,64
    1d04:	00008067          	ret
    1d08:	00008067          	ret

00001d0c <matrix_mul_matrix_bitextract>:
    1d0c:	1e050a63          	beqz	a0,1f00 <matrix_mul_matrix_bitextract+0x1f4>
    1d10:	fe010113          	addi	sp,sp,-32
    1d14:	00151e13          	slli	t3,a0,0x1
    1d18:	00912c23          	sw	s1,24(sp)
    1d1c:	00068493          	mv	s1,a3
    1d20:	00812e23          	sw	s0,28(sp)
    1d24:	01212a23          	sw	s2,20(sp)
    1d28:	01312823          	sw	s3,16(sp)
    1d2c:	01412623          	sw	s4,12(sp)
    1d30:	01512423          	sw	s5,8(sp)
    1d34:	01612223          	sw	s6,4(sp)
    1d38:	00060f93          	mv	t6,a2
    1d3c:	01c60f33          	add	t5,a2,t3
    1d40:	00251913          	slli	s2,a0,0x2
    1d44:	00058693          	mv	a3,a1
    1d48:	01c483b3          	add	t2,s1,t3
    1d4c:	00000413          	li	s0,0
    1d50:	00048e93          	mv	t4,s1
    1d54:	00068293          	mv	t0,a3
    1d58:	41ff07b3          	sub	a5,t5,t6
    1d5c:	ffe78313          	addi	t1,a5,-2
    1d60:	00135593          	srli	a1,t1,0x1
    1d64:	00158613          	addi	a2,a1,1
    1d68:	00367813          	andi	a6,a2,3
    1d6c:	000e8313          	mv	t1,t4
    1d70:	000f8613          	mv	a2,t6
    1d74:	00000993          	li	s3,0
    1d78:	08080c63          	beqz	a6,1e10 <matrix_mul_matrix_bitextract+0x104>
    1d7c:	00100713          	li	a4,1
    1d80:	06e80063          	beq	a6,a4,1de0 <matrix_mul_matrix_bitextract+0xd4>
    1d84:	00200893          	li	a7,2
    1d88:	03180663          	beq	a6,a7,1db4 <matrix_mul_matrix_bitextract+0xa8>
    1d8c:	000f9983          	lh	s3,0(t6)
    1d90:	000e9a03          	lh	s4,0(t4)
    1d94:	002f8613          	addi	a2,t6,2
    1d98:	01ce8333          	add	t1,t4,t3
    1d9c:	03498ab3          	mul	s5,s3,s4
    1da0:	402adb13          	srai	s6,s5,0x2
    1da4:	405ad793          	srai	a5,s5,0x5
    1da8:	00fb7593          	andi	a1,s6,15
    1dac:	07f7f813          	andi	a6,a5,127
    1db0:	030589b3          	mul	s3,a1,a6
    1db4:	00061883          	lh	a7,0(a2)
    1db8:	00031703          	lh	a4,0(t1)
    1dbc:	00260613          	addi	a2,a2,2
    1dc0:	01c30333          	add	t1,t1,t3
    1dc4:	02e88a33          	mul	s4,a7,a4
    1dc8:	402a5a93          	srai	s5,s4,0x2
    1dcc:	405a5b13          	srai	s6,s4,0x5
    1dd0:	00faf593          	andi	a1,s5,15
    1dd4:	07fb7793          	andi	a5,s6,127
    1dd8:	02f58833          	mul	a6,a1,a5
    1ddc:	010989b3          	add	s3,s3,a6
    1de0:	00061883          	lh	a7,0(a2)
    1de4:	00031703          	lh	a4,0(t1)
    1de8:	00260613          	addi	a2,a2,2
    1dec:	01c30333          	add	t1,t1,t3
    1df0:	02e88a33          	mul	s4,a7,a4
    1df4:	402a5a93          	srai	s5,s4,0x2
    1df8:	405a5b13          	srai	s6,s4,0x5
    1dfc:	00faf593          	andi	a1,s5,15
    1e00:	07fb7793          	andi	a5,s6,127
    1e04:	02f58833          	mul	a6,a1,a5
    1e08:	010989b3          	add	s3,s3,a6
    1e0c:	0acf0663          	beq	t5,a2,1eb8 <matrix_mul_matrix_bitextract+0x1ac>
    1e10:	01c30733          	add	a4,t1,t3
    1e14:	00061a03          	lh	s4,0(a2)
    1e18:	00031a83          	lh	s5,0(t1)
    1e1c:	01c70b33          	add	s6,a4,t3
    1e20:	00071783          	lh	a5,0(a4)
    1e24:	00261883          	lh	a7,2(a2)
    1e28:	01cb0333          	add	t1,s6,t3
    1e2c:	00461803          	lh	a6,4(a2)
    1e30:	000b1b03          	lh	s6,0(s6)
    1e34:	035a0733          	mul	a4,s4,s5
    1e38:	00661583          	lh	a1,6(a2)
    1e3c:	00031a83          	lh	s5,0(t1)
    1e40:	00860613          	addi	a2,a2,8
    1e44:	01c30333          	add	t1,t1,t3
    1e48:	02f888b3          	mul	a7,a7,a5
    1e4c:	40575a13          	srai	s4,a4,0x5
    1e50:	40275793          	srai	a5,a4,0x2
    1e54:	00f7f713          	andi	a4,a5,15
    1e58:	07fa7793          	andi	a5,s4,127
    1e5c:	03680833          	mul	a6,a6,s6
    1e60:	4028db13          	srai	s6,a7,0x2
    1e64:	4058d893          	srai	a7,a7,0x5
    1e68:	00fb7a13          	andi	s4,s6,15
    1e6c:	07f8fb13          	andi	s6,a7,127
    1e70:	035585b3          	mul	a1,a1,s5
    1e74:	40285a93          	srai	s5,a6,0x2
    1e78:	40585813          	srai	a6,a6,0x5
    1e7c:	00fafa93          	andi	s5,s5,15
    1e80:	07f87813          	andi	a6,a6,127
    1e84:	02f707b3          	mul	a5,a4,a5
    1e88:	4055d893          	srai	a7,a1,0x5
    1e8c:	4025d713          	srai	a4,a1,0x2
    1e90:	00f77713          	andi	a4,a4,15
    1e94:	07f8f593          	andi	a1,a7,127
    1e98:	036a0a33          	mul	s4,s4,s6
    1e9c:	00f989b3          	add	s3,s3,a5
    1ea0:	030a8b33          	mul	s6,s5,a6
    1ea4:	01498ab3          	add	s5,s3,s4
    1ea8:	02b70833          	mul	a6,a4,a1
    1eac:	016a87b3          	add	a5,s5,s6
    1eb0:	010789b3          	add	s3,a5,a6
    1eb4:	f4cf1ee3          	bne	t5,a2,1e10 <matrix_mul_matrix_bitextract+0x104>
    1eb8:	0132a023          	sw	s3,0(t0)
    1ebc:	002e8e93          	addi	t4,t4,2
    1ec0:	00428293          	addi	t0,t0,4
    1ec4:	e9d39ae3          	bne	t2,t4,1d58 <matrix_mul_matrix_bitextract+0x4c>
    1ec8:	00140413          	addi	s0,s0,1
    1ecc:	01cf8fb3          	add	t6,t6,t3
    1ed0:	01cf0f33          	add	t5,t5,t3
    1ed4:	012686b3          	add	a3,a3,s2
    1ed8:	e6851ce3          	bne	a0,s0,1d50 <matrix_mul_matrix_bitextract+0x44>
    1edc:	01c12403          	lw	s0,28(sp)
    1ee0:	01812483          	lw	s1,24(sp)
    1ee4:	01412903          	lw	s2,20(sp)
    1ee8:	01012983          	lw	s3,16(sp)
    1eec:	00c12a03          	lw	s4,12(sp)
    1ef0:	00812a83          	lw	s5,8(sp)
    1ef4:	00412b03          	lw	s6,4(sp)
    1ef8:	02010113          	addi	sp,sp,32
    1efc:	00008067          	ret
    1f00:	00008067          	ret

00001f04 <matrix_test>:
    1f04:	fa010113          	addi	sp,sp,-96
    1f08:	04812c23          	sw	s0,88(sp)
    1f0c:	05612023          	sw	s6,64(sp)
    1f10:	fffff437          	lui	s0,0xfffff
    1f14:	04112e23          	sw	ra,92(sp)
    1f18:	04912a23          	sw	s1,84(sp)
    1f1c:	05212823          	sw	s2,80(sp)
    1f20:	05312623          	sw	s3,76(sp)
    1f24:	05412423          	sw	s4,72(sp)
    1f28:	05512223          	sw	s5,68(sp)
    1f2c:	03712e23          	sw	s7,60(sp)
    1f30:	03812c23          	sw	s8,56(sp)
    1f34:	03912a23          	sw	s9,52(sp)
    1f38:	03a12823          	sw	s10,48(sp)
    1f3c:	03b12623          	sw	s11,44(sp)
    1f40:	00b12623          	sw	a1,12(sp)
    1f44:	00c12823          	sw	a2,16(sp)
    1f48:	00068b13          	mv	s6,a3
    1f4c:	00876433          	or	s0,a4,s0
    1f50:	00051463          	bnez	a0,1f58 <matrix_test+0x54>
    1f54:	2b80106f          	j	320c <matrix_test+0x1308>
    1f58:	00151d13          	slli	s10,a0,0x1
    1f5c:	40a00f33          	neg	t5,a0
    1f60:	00060993          	mv	s3,a2
    1f64:	01071093          	slli	ra,a4,0x10
    1f68:	01a60633          	add	a2,a2,s10
    1f6c:	001f1c93          	slli	s9,t5,0x1
    1f70:	00050e13          	mv	t3,a0
    1f74:	0100d913          	srli	s2,ra,0x10
    1f78:	00060693          	mv	a3,a2
    1f7c:	00000813          	li	a6,0
    1f80:	002f1f13          	slli	t5,t5,0x2
    1f84:	00dc8533          	add	a0,s9,a3
    1f88:	40a685b3          	sub	a1,a3,a0
    1f8c:	ffe58293          	addi	t0,a1,-2
    1f90:	0012d313          	srli	t1,t0,0x1
    1f94:	00130393          	addi	t2,t1,1
    1f98:	0073fa93          	andi	s5,t2,7
    1f9c:	00050793          	mv	a5,a0
    1fa0:	0a0a8463          	beqz	s5,2048 <matrix_test+0x144>
    1fa4:	00100893          	li	a7,1
    1fa8:	091a8663          	beq	s5,a7,2034 <matrix_test+0x130>
    1fac:	00200b93          	li	s7,2
    1fb0:	077a8a63          	beq	s5,s7,2024 <matrix_test+0x120>
    1fb4:	00300c13          	li	s8,3
    1fb8:	058a8e63          	beq	s5,s8,2014 <matrix_test+0x110>
    1fbc:	00400d93          	li	s11,4
    1fc0:	05ba8263          	beq	s5,s11,2004 <matrix_test+0x100>
    1fc4:	00500e93          	li	t4,5
    1fc8:	03da8663          	beq	s5,t4,1ff4 <matrix_test+0xf0>
    1fcc:	00600f93          	li	t6,6
    1fd0:	01fa8a63          	beq	s5,t6,1fe4 <matrix_test+0xe0>
    1fd4:	00055483          	lhu	s1,0(a0)
    1fd8:	00250793          	addi	a5,a0,2
    1fdc:	00990a33          	add	s4,s2,s1
    1fe0:	01451023          	sh	s4,0(a0)
    1fe4:	0007d083          	lhu	ra,0(a5)
    1fe8:	00278793          	addi	a5,a5,2
    1fec:	001905b3          	add	a1,s2,ra
    1ff0:	feb79f23          	sh	a1,-2(a5)
    1ff4:	0007d283          	lhu	t0,0(a5)
    1ff8:	00278793          	addi	a5,a5,2
    1ffc:	00590333          	add	t1,s2,t0
    2000:	fe679f23          	sh	t1,-2(a5)
    2004:	0007d383          	lhu	t2,0(a5)
    2008:	00278793          	addi	a5,a5,2
    200c:	00790ab3          	add	s5,s2,t2
    2010:	ff579f23          	sh	s5,-2(a5)
    2014:	0007d883          	lhu	a7,0(a5)
    2018:	00278793          	addi	a5,a5,2
    201c:	01190bb3          	add	s7,s2,a7
    2020:	ff779f23          	sh	s7,-2(a5)
    2024:	0007dc03          	lhu	s8,0(a5)
    2028:	00278793          	addi	a5,a5,2
    202c:	01890db3          	add	s11,s2,s8
    2030:	ffb79f23          	sh	s11,-2(a5)
    2034:	0007de83          	lhu	t4,0(a5)
    2038:	00278793          	addi	a5,a5,2
    203c:	01d90fb3          	add	t6,s2,t4
    2040:	fff79f23          	sh	t6,-2(a5)
    2044:	06d78663          	beq	a5,a3,20b0 <matrix_test+0x1ac>
    2048:	0007d483          	lhu	s1,0(a5)
    204c:	0027da03          	lhu	s4,2(a5)
    2050:	0047d283          	lhu	t0,4(a5)
    2054:	0067da83          	lhu	s5,6(a5)
    2058:	0087db83          	lhu	s7,8(a5)
    205c:	00a7d303          	lhu	t1,10(a5)
    2060:	00c7d883          	lhu	a7,12(a5)
    2064:	00e7d583          	lhu	a1,14(a5)
    2068:	009900b3          	add	ra,s2,s1
    206c:	014903b3          	add	t2,s2,s4
    2070:	00590c33          	add	s8,s2,t0
    2074:	01590db3          	add	s11,s2,s5
    2078:	01790eb3          	add	t4,s2,s7
    207c:	00690fb3          	add	t6,s2,t1
    2080:	011904b3          	add	s1,s2,a7
    2084:	00b90a33          	add	s4,s2,a1
    2088:	00179023          	sh	ra,0(a5)
    208c:	00779123          	sh	t2,2(a5)
    2090:	01879223          	sh	s8,4(a5)
    2094:	01b79323          	sh	s11,6(a5)
    2098:	01d79423          	sh	t4,8(a5)
    209c:	01f79523          	sh	t6,10(a5)
    20a0:	00979623          	sh	s1,12(a5)
    20a4:	01479723          	sh	s4,14(a5)
    20a8:	01078793          	addi	a5,a5,16
    20ac:	f8d79ee3          	bne	a5,a3,2048 <matrix_test+0x144>
    20b0:	00180493          	addi	s1,a6,1
    20b4:	41e506b3          	sub	a3,a0,t5
    20b8:	009e0663          	beq	t3,s1,20c4 <matrix_test+0x1c0>
    20bc:	00048813          	mv	a6,s1
    20c0:	ec5ff06f          	j	1f84 <matrix_test+0x80>
    20c4:	00c12383          	lw	t2,12(sp)
    20c8:	40900c33          	neg	s8,s1
    20cc:	00249a93          	slli	s5,s1,0x2
    20d0:	00038a13          	mv	s4,t2
    20d4:	00000093          	li	ra,0
    20d8:	002c1b93          	slli	s7,s8,0x2
    20dc:	01960533          	add	a0,a2,s9
    20e0:	40a607b3          	sub	a5,a2,a0
    20e4:	ffe78e13          	addi	t3,a5,-2
    20e8:	001e5f13          	srli	t5,t3,0x1
    20ec:	001f0293          	addi	t0,t5,1
    20f0:	0072f313          	andi	t1,t0,7
    20f4:	00038693          	mv	a3,t2
    20f8:	00050793          	mv	a5,a0
    20fc:	0c030263          	beqz	t1,21c0 <matrix_test+0x2bc>
    2100:	00100893          	li	a7,1
    2104:	0b130263          	beq	t1,a7,21a8 <matrix_test+0x2a4>
    2108:	00200593          	li	a1,2
    210c:	08b30463          	beq	t1,a1,2194 <matrix_test+0x290>
    2110:	00300d93          	li	s11,3
    2114:	07b30663          	beq	t1,s11,2180 <matrix_test+0x27c>
    2118:	00400e93          	li	t4,4
    211c:	05d30863          	beq	t1,t4,216c <matrix_test+0x268>
    2120:	00500f93          	li	t6,5
    2124:	03f30a63          	beq	t1,t6,2158 <matrix_test+0x254>
    2128:	00600e13          	li	t3,6
    212c:	01c30c63          	beq	t1,t3,2144 <matrix_test+0x240>
    2130:	00051f03          	lh	t5,0(a0)
    2134:	00250793          	addi	a5,a0,2
    2138:	00438693          	addi	a3,t2,4
    213c:	02ef02b3          	mul	t0,t5,a4
    2140:	0053a023          	sw	t0,0(t2)
    2144:	00079303          	lh	t1,0(a5)
    2148:	00468693          	addi	a3,a3,4
    214c:	00278793          	addi	a5,a5,2
    2150:	02e308b3          	mul	a7,t1,a4
    2154:	ff16ae23          	sw	a7,-4(a3)
    2158:	00079583          	lh	a1,0(a5)
    215c:	00468693          	addi	a3,a3,4
    2160:	00278793          	addi	a5,a5,2
    2164:	02e58db3          	mul	s11,a1,a4
    2168:	ffb6ae23          	sw	s11,-4(a3)
    216c:	00079e83          	lh	t4,0(a5)
    2170:	00468693          	addi	a3,a3,4
    2174:	00278793          	addi	a5,a5,2
    2178:	02ee8fb3          	mul	t6,t4,a4
    217c:	fff6ae23          	sw	t6,-4(a3)
    2180:	00079e03          	lh	t3,0(a5)
    2184:	00468693          	addi	a3,a3,4
    2188:	00278793          	addi	a5,a5,2
    218c:	02ee0f33          	mul	t5,t3,a4
    2190:	ffe6ae23          	sw	t5,-4(a3)
    2194:	00079283          	lh	t0,0(a5)
    2198:	00468693          	addi	a3,a3,4
    219c:	00278793          	addi	a5,a5,2
    21a0:	02e28333          	mul	t1,t0,a4
    21a4:	fe66ae23          	sw	t1,-4(a3)
    21a8:	00079883          	lh	a7,0(a5)
    21ac:	00468693          	addi	a3,a3,4
    21b0:	00278793          	addi	a5,a5,2
    21b4:	02e885b3          	mul	a1,a7,a4
    21b8:	feb6ae23          	sw	a1,-4(a3)
    21bc:	06f60863          	beq	a2,a5,222c <matrix_test+0x328>
    21c0:	00079d83          	lh	s11,0(a5)
    21c4:	00279f83          	lh	t6,2(a5)
    21c8:	00479f03          	lh	t5,4(a5)
    21cc:	00679e83          	lh	t4,6(a5)
    21d0:	00879e03          	lh	t3,8(a5)
    21d4:	00a79303          	lh	t1,10(a5)
    21d8:	00c79883          	lh	a7,12(a5)
    21dc:	00e79583          	lh	a1,14(a5)
    21e0:	02ed82b3          	mul	t0,s11,a4
    21e4:	02068693          	addi	a3,a3,32
    21e8:	01078793          	addi	a5,a5,16
    21ec:	02ef8db3          	mul	s11,t6,a4
    21f0:	fe56a023          	sw	t0,-32(a3)
    21f4:	02ef0fb3          	mul	t6,t5,a4
    21f8:	ffb6a223          	sw	s11,-28(a3)
    21fc:	02ee8f33          	mul	t5,t4,a4
    2200:	fff6a423          	sw	t6,-24(a3)
    2204:	02ee0eb3          	mul	t4,t3,a4
    2208:	ffe6a623          	sw	t5,-20(a3)
    220c:	02e30e33          	mul	t3,t1,a4
    2210:	ffd6a823          	sw	t4,-16(a3)
    2214:	02e88333          	mul	t1,a7,a4
    2218:	ffc6aa23          	sw	t3,-12(a3)
    221c:	02e588b3          	mul	a7,a1,a4
    2220:	fe66ac23          	sw	t1,-8(a3)
    2224:	ff16ae23          	sw	a7,-4(a3)
    2228:	f8f61ce3          	bne	a2,a5,21c0 <matrix_test+0x2bc>
    222c:	00108793          	addi	a5,ra,1
    2230:	015383b3          	add	t2,t2,s5
    2234:	41750633          	sub	a2,a0,s7
    2238:	01008663          	beq	ra,a6,2244 <matrix_test+0x340>
    223c:	00078093          	mv	ra,a5
    2240:	e9dff06f          	j	20dc <matrix_test+0x1d8>
    2244:	00c12703          	lw	a4,12(sp)
    2248:	00000513          	li	a0,0
    224c:	00000313          	li	t1,0
    2250:	01570733          	add	a4,a4,s5
    2254:	00070c93          	mv	s9,a4
    2258:	00000593          	li	a1,0
    225c:	00000613          	li	a2,0
    2260:	003c1c13          	slli	s8,s8,0x3
    2264:	017700b3          	add	ra,a4,s7
    2268:	401706b3          	sub	a3,a4,ra
    226c:	ffc68293          	addi	t0,a3,-4
    2270:	0022dd93          	srli	s11,t0,0x2
    2274:	001d8f93          	addi	t6,s11,1
    2278:	007fff13          	andi	t5,t6,7
    227c:	00008793          	mv	a5,ra
    2280:	280f0463          	beqz	t5,2508 <matrix_test+0x604>
    2284:	00100e93          	li	t4,1
    2288:	13df0a63          	beq	t5,t4,23bc <matrix_test+0x4b8>
    228c:	00200e13          	li	t3,2
    2290:	11cf0063          	beq	t5,t3,2390 <matrix_test+0x48c>
    2294:	00300893          	li	a7,3
    2298:	0d1f0663          	beq	t5,a7,2364 <matrix_test+0x460>
    229c:	00400393          	li	t2,4
    22a0:	087f0c63          	beq	t5,t2,2338 <matrix_test+0x434>
    22a4:	00500693          	li	a3,5
    22a8:	06df0263          	beq	t5,a3,230c <matrix_test+0x408>
    22ac:	00600293          	li	t0,6
    22b0:	025f0863          	beq	t5,t0,22e0 <matrix_test+0x3dc>
    22b4:	0000ad83          	lw	s11,0(ra)
    22b8:	01051513          	slli	a0,a0,0x10
    22bc:	01055793          	srli	a5,a0,0x10
    22c0:	01b585b3          	add	a1,a1,s11
    22c4:	72b44ae3          	blt	s0,a1,31f8 <matrix_test+0x12f4>
    22c8:	01b32333          	slt	t1,t1,s11
    22cc:	00678fb3          	add	t6,a5,t1
    22d0:	010f9f13          	slli	t5,t6,0x10
    22d4:	410f5513          	srai	a0,t5,0x10
    22d8:	00408793          	addi	a5,ra,4
    22dc:	000d8313          	mv	t1,s11
    22e0:	0007ae03          	lw	t3,0(a5)
    22e4:	01051893          	slli	a7,a0,0x10
    22e8:	0108d393          	srli	t2,a7,0x10
    22ec:	01c585b3          	add	a1,a1,t3
    22f0:	3ab44e63          	blt	s0,a1,26ac <matrix_test+0x7a8>
    22f4:	01c326b3          	slt	a3,t1,t3
    22f8:	00d382b3          	add	t0,t2,a3
    22fc:	01029d93          	slli	s11,t0,0x10
    2300:	410dd513          	srai	a0,s11,0x10
    2304:	00478793          	addi	a5,a5,4
    2308:	000e0313          	mv	t1,t3
    230c:	0007af83          	lw	t6,0(a5)
    2310:	01051f13          	slli	t5,a0,0x10
    2314:	010f5e93          	srli	t4,t5,0x10
    2318:	01f585b3          	add	a1,a1,t6
    231c:	36b44e63          	blt	s0,a1,2698 <matrix_test+0x794>
    2320:	01f32e33          	slt	t3,t1,t6
    2324:	01ce88b3          	add	a7,t4,t3
    2328:	01089393          	slli	t2,a7,0x10
    232c:	4103d513          	srai	a0,t2,0x10
    2330:	00478793          	addi	a5,a5,4
    2334:	000f8313          	mv	t1,t6
    2338:	0007a283          	lw	t0,0(a5)
    233c:	01051d93          	slli	s11,a0,0x10
    2340:	010dd513          	srli	a0,s11,0x10
    2344:	005585b3          	add	a1,a1,t0
    2348:	32b44e63          	blt	s0,a1,2684 <matrix_test+0x780>
    234c:	00532333          	slt	t1,t1,t0
    2350:	00650fb3          	add	t6,a0,t1
    2354:	010f9f13          	slli	t5,t6,0x10
    2358:	410f5513          	srai	a0,t5,0x10
    235c:	00478793          	addi	a5,a5,4
    2360:	00028313          	mv	t1,t0
    2364:	0007a883          	lw	a7,0(a5)
    2368:	01051393          	slli	t2,a0,0x10
    236c:	0103d693          	srli	a3,t2,0x10
    2370:	011585b3          	add	a1,a1,a7
    2374:	2eb44e63          	blt	s0,a1,2670 <matrix_test+0x76c>
    2378:	011322b3          	slt	t0,t1,a7
    237c:	00568db3          	add	s11,a3,t0
    2380:	010d9513          	slli	a0,s11,0x10
    2384:	41055513          	srai	a0,a0,0x10
    2388:	00478793          	addi	a5,a5,4
    238c:	00088313          	mv	t1,a7
    2390:	0007af83          	lw	t6,0(a5)
    2394:	01051f13          	slli	t5,a0,0x10
    2398:	010f5e93          	srli	t4,t5,0x10
    239c:	01f585b3          	add	a1,a1,t6
    23a0:	2ab44e63          	blt	s0,a1,265c <matrix_test+0x758>
    23a4:	01f32e33          	slt	t3,t1,t6
    23a8:	01ce88b3          	add	a7,t4,t3
    23ac:	01089393          	slli	t2,a7,0x10
    23b0:	4103d513          	srai	a0,t2,0x10
    23b4:	00478793          	addi	a5,a5,4
    23b8:	000f8313          	mv	t1,t6
    23bc:	0007ad83          	lw	s11,0(a5)
    23c0:	01051513          	slli	a0,a0,0x10
    23c4:	01055f93          	srli	t6,a0,0x10
    23c8:	01b585b3          	add	a1,a1,s11
    23cc:	26b44e63          	blt	s0,a1,2648 <matrix_test+0x744>
    23d0:	01b32333          	slt	t1,t1,s11
    23d4:	006f8f33          	add	t5,t6,t1
    23d8:	010f1e93          	slli	t4,t5,0x10
    23dc:	410ed513          	srai	a0,t4,0x10
    23e0:	00478793          	addi	a5,a5,4
    23e4:	000d8313          	mv	t1,s11
    23e8:	12f71063          	bne	a4,a5,2508 <matrix_test+0x604>
    23ec:	2480006f          	j	2634 <matrix_test+0x730>
    23f0:	0047ae03          	lw	t3,4(a5)
    23f4:	00a68313          	addi	t1,a3,10
    23f8:	01031e93          	slli	t4,t1,0x10
    23fc:	410edf13          	srai	t5,t4,0x10
    2400:	00000293          	li	t0,0
    2404:	010f1593          	slli	a1,t5,0x10
    2408:	01c28f33          	add	t5,t0,t3
    240c:	00478793          	addi	a5,a5,4
    2410:	0105d393          	srli	t2,a1,0x10
    2414:	13e45863          	bge	s0,t5,2544 <matrix_test+0x640>
    2418:	00a38d93          	addi	s11,t2,10
    241c:	0047ae83          	lw	t4,4(a5)
    2420:	010d9513          	slli	a0,s11,0x10
    2424:	41055f93          	srai	t6,a0,0x10
    2428:	00000f13          	li	t5,0
    242c:	010f9313          	slli	t1,t6,0x10
    2430:	01df0fb3          	add	t6,t5,t4
    2434:	01035393          	srli	t2,t1,0x10
    2438:	13f44863          	blt	s0,t6,2568 <matrix_test+0x664>
    243c:	01de2e33          	slt	t3,t3,t4
    2440:	01c388b3          	add	a7,t2,t3
    2444:	0087af03          	lw	t5,8(a5)
    2448:	01089693          	slli	a3,a7,0x10
    244c:	4106dd93          	srai	s11,a3,0x10
    2450:	010d9513          	slli	a0,s11,0x10
    2454:	01ef85b3          	add	a1,t6,t5
    2458:	01055313          	srli	t1,a0,0x10
    245c:	12b44863          	blt	s0,a1,258c <matrix_test+0x688>
    2460:	01eeaeb3          	slt	t4,t4,t5
    2464:	01d303b3          	add	t2,t1,t4
    2468:	00c7ad83          	lw	s11,12(a5)
    246c:	01039e13          	slli	t3,t2,0x10
    2470:	410e5293          	srai	t0,t3,0x10
    2474:	01029f93          	slli	t6,t0,0x10
    2478:	01b586b3          	add	a3,a1,s11
    247c:	010fd513          	srli	a0,t6,0x10
    2480:	12d44863          	blt	s0,a3,25b0 <matrix_test+0x6ac>
    2484:	01bf2f33          	slt	t5,t5,s11
    2488:	01e50333          	add	t1,a0,t5
    248c:	0107a283          	lw	t0,16(a5)
    2490:	01031e93          	slli	t4,t1,0x10
    2494:	410ed893          	srai	a7,t4,0x10
    2498:	01089593          	slli	a1,a7,0x10
    249c:	00568e33          	add	t3,a3,t0
    24a0:	0105df93          	srli	t6,a1,0x10
    24a4:	13c44863          	blt	s0,t3,25d4 <matrix_test+0x6d0>
    24a8:	005dadb3          	slt	s11,s11,t0
    24ac:	01bf8533          	add	a0,t6,s11
    24b0:	0147a883          	lw	a7,20(a5)
    24b4:	01051f13          	slli	t5,a0,0x10
    24b8:	410f5393          	srai	t2,t5,0x10
    24bc:	01039693          	slli	a3,t2,0x10
    24c0:	011e03b3          	add	t2,t3,a7
    24c4:	0106df93          	srli	t6,a3,0x10
    24c8:	12744863          	blt	s0,t2,25f8 <matrix_test+0x6f4>
    24cc:	0112a2b3          	slt	t0,t0,a7
    24d0:	005f8db3          	add	s11,t6,t0
    24d4:	0187a303          	lw	t1,24(a5)
    24d8:	010d9513          	slli	a0,s11,0x10
    24dc:	41055e93          	srai	t4,a0,0x10
    24e0:	010e9e13          	slli	t3,t4,0x10
    24e4:	006385b3          	add	a1,t2,t1
    24e8:	010e5693          	srli	a3,t3,0x10
    24ec:	12b44863          	blt	s0,a1,261c <matrix_test+0x718>
    24f0:	0068a8b3          	slt	a7,a7,t1
    24f4:	01168fb3          	add	t6,a3,a7
    24f8:	010f9293          	slli	t0,t6,0x10
    24fc:	01c78793          	addi	a5,a5,28
    2500:	4102d513          	srai	a0,t0,0x10
    2504:	12f70863          	beq	a4,a5,2634 <matrix_test+0x730>
    2508:	0007a883          	lw	a7,0(a5)
    250c:	01051393          	slli	t2,a0,0x10
    2510:	0103d693          	srli	a3,t2,0x10
    2514:	011582b3          	add	t0,a1,a7
    2518:	ec544ce3          	blt	s0,t0,23f0 <matrix_test+0x4ec>
    251c:	01132db3          	slt	s11,t1,a7
    2520:	0047ae03          	lw	t3,4(a5)
    2524:	01b68533          	add	a0,a3,s11
    2528:	01051f93          	slli	t6,a0,0x10
    252c:	410fdf13          	srai	t5,t6,0x10
    2530:	010f1593          	slli	a1,t5,0x10
    2534:	01c28f33          	add	t5,t0,t3
    2538:	00478793          	addi	a5,a5,4
    253c:	0105d393          	srli	t2,a1,0x10
    2540:	ede44ce3          	blt	s0,t5,2418 <matrix_test+0x514>
    2544:	01c8a8b3          	slt	a7,a7,t3
    2548:	011386b3          	add	a3,t2,a7
    254c:	0047ae83          	lw	t4,4(a5)
    2550:	01069293          	slli	t0,a3,0x10
    2554:	4102df93          	srai	t6,t0,0x10
    2558:	010f9313          	slli	t1,t6,0x10
    255c:	01df0fb3          	add	t6,t5,t4
    2560:	01035393          	srli	t2,t1,0x10
    2564:	edf45ce3          	bge	s0,t6,243c <matrix_test+0x538>
    2568:	00a38593          	addi	a1,t2,10
    256c:	0087af03          	lw	t5,8(a5)
    2570:	01059293          	slli	t0,a1,0x10
    2574:	4102dd93          	srai	s11,t0,0x10
    2578:	00000f93          	li	t6,0
    257c:	010d9513          	slli	a0,s11,0x10
    2580:	01ef85b3          	add	a1,t6,t5
    2584:	01055313          	srli	t1,a0,0x10
    2588:	ecb45ce3          	bge	s0,a1,2460 <matrix_test+0x55c>
    258c:	00a30893          	addi	a7,t1,10
    2590:	00c7ad83          	lw	s11,12(a5)
    2594:	01089693          	slli	a3,a7,0x10
    2598:	4106d293          	srai	t0,a3,0x10
    259c:	00000593          	li	a1,0
    25a0:	01029f93          	slli	t6,t0,0x10
    25a4:	01b586b3          	add	a3,a1,s11
    25a8:	010fd513          	srli	a0,t6,0x10
    25ac:	ecd45ce3          	bge	s0,a3,2484 <matrix_test+0x580>
    25b0:	00a50393          	addi	t2,a0,10
    25b4:	0107a283          	lw	t0,16(a5)
    25b8:	01039e13          	slli	t3,t2,0x10
    25bc:	410e5893          	srai	a7,t3,0x10
    25c0:	00000693          	li	a3,0
    25c4:	01089593          	slli	a1,a7,0x10
    25c8:	00568e33          	add	t3,a3,t0
    25cc:	0105df93          	srli	t6,a1,0x10
    25d0:	edc45ce3          	bge	s0,t3,24a8 <matrix_test+0x5a4>
    25d4:	00af8313          	addi	t1,t6,10
    25d8:	0147a883          	lw	a7,20(a5)
    25dc:	01031e93          	slli	t4,t1,0x10
    25e0:	410ed393          	srai	t2,t4,0x10
    25e4:	00000e13          	li	t3,0
    25e8:	01039693          	slli	a3,t2,0x10
    25ec:	011e03b3          	add	t2,t3,a7
    25f0:	0106df93          	srli	t6,a3,0x10
    25f4:	ec745ce3          	bge	s0,t2,24cc <matrix_test+0x5c8>
    25f8:	00af8593          	addi	a1,t6,10
    25fc:	0187a303          	lw	t1,24(a5)
    2600:	01059f13          	slli	t5,a1,0x10
    2604:	410f5e93          	srai	t4,t5,0x10
    2608:	00000393          	li	t2,0
    260c:	010e9e13          	slli	t3,t4,0x10
    2610:	006385b3          	add	a1,t2,t1
    2614:	010e5693          	srli	a3,t3,0x10
    2618:	ecb45ce3          	bge	s0,a1,24f0 <matrix_test+0x5ec>
    261c:	00a68d93          	addi	s11,a3,10
    2620:	010d9513          	slli	a0,s11,0x10
    2624:	01c78793          	addi	a5,a5,28
    2628:	41055513          	srai	a0,a0,0x10
    262c:	00000593          	li	a1,0
    2630:	ecf71ce3          	bne	a4,a5,2508 <matrix_test+0x604>
    2634:	00160f13          	addi	t5,a2,1
    2638:	41808733          	sub	a4,ra,s8
    263c:	09060263          	beq	a2,a6,26c0 <matrix_test+0x7bc>
    2640:	000f0613          	mv	a2,t5
    2644:	c21ff06f          	j	2264 <matrix_test+0x360>
    2648:	00af8593          	addi	a1,t6,10
    264c:	01059e13          	slli	t3,a1,0x10
    2650:	410e5513          	srai	a0,t3,0x10
    2654:	00000593          	li	a1,0
    2658:	d89ff06f          	j	23e0 <matrix_test+0x4dc>
    265c:	00ae8693          	addi	a3,t4,10
    2660:	01069293          	slli	t0,a3,0x10
    2664:	4102d513          	srai	a0,t0,0x10
    2668:	00000593          	li	a1,0
    266c:	d49ff06f          	j	23b4 <matrix_test+0x4b0>
    2670:	00a68593          	addi	a1,a3,10
    2674:	01059313          	slli	t1,a1,0x10
    2678:	41035513          	srai	a0,t1,0x10
    267c:	00000593          	li	a1,0
    2680:	d09ff06f          	j	2388 <matrix_test+0x484>
    2684:	00a50e93          	addi	t4,a0,10
    2688:	010e9e13          	slli	t3,t4,0x10
    268c:	410e5513          	srai	a0,t3,0x10
    2690:	00000593          	li	a1,0
    2694:	cc9ff06f          	j	235c <matrix_test+0x458>
    2698:	00ae8593          	addi	a1,t4,10
    269c:	01059693          	slli	a3,a1,0x10
    26a0:	4106d513          	srai	a0,a3,0x10
    26a4:	00000593          	li	a1,0
    26a8:	c89ff06f          	j	2330 <matrix_test+0x42c>
    26ac:	00a38513          	addi	a0,t2,10
    26b0:	01051313          	slli	t1,a0,0x10
    26b4:	41035513          	srai	a0,t1,0x10
    26b8:	00000593          	li	a1,0
    26bc:	c49ff06f          	j	2304 <matrix_test+0x400>
    26c0:	00000593          	li	a1,0
    26c4:	335010ef          	jal	ra,41f8 <crc16>
    26c8:	01012f83          	lw	t6,16(sp)
    26cc:	00c12583          	lw	a1,12(sp)
    26d0:	00a12a23          	sw	a0,20(sp)
    26d4:	01ab02b3          	add	t0,s6,s10
    26d8:	00812c23          	sw	s0,24(sp)
    26dc:	01512e23          	sw	s5,28(sp)
    26e0:	000c8d93          	mv	s11,s9
    26e4:	41628633          	sub	a2,t0,s6
    26e8:	ffe60093          	addi	ra,a2,-2
    26ec:	0010de93          	srli	t4,ra,0x1
    26f0:	001e8393          	addi	t2,t4,1
    26f4:	0073f313          	andi	t1,t2,7
    26f8:	000b0693          	mv	a3,s6
    26fc:	000f8613          	mv	a2,t6
    2700:	00000793          	li	a5,0
    2704:	0c030e63          	beqz	t1,27e0 <matrix_test+0x8dc>
    2708:	00100e13          	li	t3,1
    270c:	0bc30c63          	beq	t1,t3,27c4 <matrix_test+0x8c0>
    2710:	00200893          	li	a7,2
    2714:	09130c63          	beq	t1,a7,27ac <matrix_test+0x8a8>
    2718:	00300513          	li	a0,3
    271c:	06a30c63          	beq	t1,a0,2794 <matrix_test+0x890>
    2720:	00400413          	li	s0,4
    2724:	04830c63          	beq	t1,s0,277c <matrix_test+0x878>
    2728:	00500813          	li	a6,5
    272c:	03030c63          	beq	t1,a6,2764 <matrix_test+0x860>
    2730:	00600a93          	li	s5,6
    2734:	01530c63          	beq	t1,s5,274c <matrix_test+0x848>
    2738:	000f9b83          	lh	s7,0(t6)
    273c:	000b1783          	lh	a5,0(s6)
    2740:	002f8613          	addi	a2,t6,2
    2744:	002b0693          	addi	a3,s6,2
    2748:	02fb87b3          	mul	a5,s7,a5
    274c:	00061c03          	lh	s8,0(a2)
    2750:	00069c83          	lh	s9,0(a3)
    2754:	00260613          	addi	a2,a2,2
    2758:	00268693          	addi	a3,a3,2
    275c:	039c0f33          	mul	t5,s8,s9
    2760:	01e787b3          	add	a5,a5,t5
    2764:	00061703          	lh	a4,0(a2)
    2768:	00069083          	lh	ra,0(a3)
    276c:	00260613          	addi	a2,a2,2
    2770:	00268693          	addi	a3,a3,2
    2774:	02170eb3          	mul	t4,a4,ra
    2778:	01d787b3          	add	a5,a5,t4
    277c:	00061383          	lh	t2,0(a2)
    2780:	00069303          	lh	t1,0(a3)
    2784:	00260613          	addi	a2,a2,2
    2788:	00268693          	addi	a3,a3,2
    278c:	02638e33          	mul	t3,t2,t1
    2790:	01c787b3          	add	a5,a5,t3
    2794:	00061883          	lh	a7,0(a2)
    2798:	00069503          	lh	a0,0(a3)
    279c:	00260613          	addi	a2,a2,2
    27a0:	00268693          	addi	a3,a3,2
    27a4:	02a88433          	mul	s0,a7,a0
    27a8:	008787b3          	add	a5,a5,s0
    27ac:	00061803          	lh	a6,0(a2)
    27b0:	00069a83          	lh	s5,0(a3)
    27b4:	00260613          	addi	a2,a2,2
    27b8:	00268693          	addi	a3,a3,2
    27bc:	03580bb3          	mul	s7,a6,s5
    27c0:	017787b3          	add	a5,a5,s7
    27c4:	00061c03          	lh	s8,0(a2)
    27c8:	00069c83          	lh	s9,0(a3)
    27cc:	00268693          	addi	a3,a3,2
    27d0:	00260613          	addi	a2,a2,2
    27d4:	039c0f33          	mul	t5,s8,s9
    27d8:	01e787b3          	add	a5,a5,t5
    27dc:	08d28863          	beq	t0,a3,286c <matrix_test+0x968>
    27e0:	00061e83          	lh	t4,0(a2)
    27e4:	00069703          	lh	a4,0(a3)
    27e8:	00269a83          	lh	s5,2(a3)
    27ec:	00261c83          	lh	s9,2(a2)
    27f0:	02ee8733          	mul	a4,t4,a4
    27f4:	00461083          	lh	ra,4(a2)
    27f8:	00469c03          	lh	s8,4(a3)
    27fc:	00661e03          	lh	t3,6(a2)
    2800:	00669b83          	lh	s7,6(a3)
    2804:	00861303          	lh	t1,8(a2)
    2808:	00869403          	lh	s0,8(a3)
    280c:	00a61883          	lh	a7,10(a2)
    2810:	00a69383          	lh	t2,10(a3)
    2814:	00c61803          	lh	a6,12(a2)
    2818:	035c8cb3          	mul	s9,s9,s5
    281c:	00e78ab3          	add	s5,a5,a4
    2820:	00c69f03          	lh	t5,12(a3)
    2824:	00e61503          	lh	a0,14(a2)
    2828:	00e69e83          	lh	t4,14(a3)
    282c:	01068693          	addi	a3,a3,16
    2830:	01060613          	addi	a2,a2,16
    2834:	038087b3          	mul	a5,ra,s8
    2838:	019a80b3          	add	ra,s5,s9
    283c:	037e0c33          	mul	s8,t3,s7
    2840:	00f08e33          	add	t3,ra,a5
    2844:	02830bb3          	mul	s7,t1,s0
    2848:	018e0733          	add	a4,t3,s8
    284c:	02788333          	mul	t1,a7,t2
    2850:	01770433          	add	s0,a4,s7
    2854:	03e808b3          	mul	a7,a6,t5
    2858:	006403b3          	add	t2,s0,t1
    285c:	03d50833          	mul	a6,a0,t4
    2860:	01138f33          	add	t5,t2,a7
    2864:	010f07b3          	add	a5,t5,a6
    2868:	f6d29ce3          	bne	t0,a3,27e0 <matrix_test+0x8dc>
    286c:	00f5a023          	sw	a5,0(a1)
    2870:	00458593          	addi	a1,a1,4
    2874:	01af8fb3          	add	t6,t6,s10
    2878:	e6bd96e3          	bne	s11,a1,26e4 <matrix_test+0x7e0>
    287c:	01812403          	lw	s0,24(sp)
    2880:	01c12a83          	lw	s5,28(sp)
    2884:	00c12783          	lw	a5,12(sp)
    2888:	00000513          	li	a0,0
    288c:	00000093          	li	ra,0
    2890:	00000593          	li	a1,0
    2894:	00000713          	li	a4,0
    2898:	0007a883          	lw	a7,0(a5)
    289c:	fff48293          	addi	t0,s1,-1
    28a0:	01051d93          	slli	s11,a0,0x10
    28a4:	011585b3          	add	a1,a1,a7
    28a8:	0032ff93          	andi	t6,t0,3
    28ac:	010dd613          	srli	a2,s11,0x10
    28b0:	08b450e3          	bge	s0,a1,3130 <matrix_test+0x122c>
    28b4:	00a60593          	addi	a1,a2,10
    28b8:	01059c93          	slli	s9,a1,0x10
    28bc:	410cd513          	srai	a0,s9,0x10
    28c0:	00000593          	li	a1,0
    28c4:	00100813          	li	a6,1
    28c8:	00478613          	addi	a2,a5,4
    28cc:	00088c13          	mv	s8,a7
    28d0:	1c987c63          	bgeu	a6,s1,2aa8 <matrix_test+0xba4>
    28d4:	120f8863          	beqz	t6,2a04 <matrix_test+0xb00>
    28d8:	070f8463          	beq	t6,a6,2940 <matrix_test+0xa3c>
    28dc:	00200093          	li	ra,2
    28e0:	021f8863          	beq	t6,ra,2910 <matrix_test+0xa0c>
    28e4:	00062c03          	lw	s8,0(a2)
    28e8:	01051e13          	slli	t3,a0,0x10
    28ec:	010e5b93          	srli	s7,t3,0x10
    28f0:	018585b3          	add	a1,a1,s8
    28f4:	0eb448e3          	blt	s0,a1,31e4 <matrix_test+0x12e0>
    28f8:	0188a333          	slt	t1,a7,s8
    28fc:	006b88b3          	add	a7,s7,t1
    2900:	01089393          	slli	t2,a7,0x10
    2904:	4103d513          	srai	a0,t2,0x10
    2908:	00180813          	addi	a6,a6,1
    290c:	00460613          	addi	a2,a2,4
    2910:	00062f83          	lw	t6,0(a2)
    2914:	01051d93          	slli	s11,a0,0x10
    2918:	010dd513          	srli	a0,s11,0x10
    291c:	01f585b3          	add	a1,a1,t6
    2920:	06b440e3          	blt	s0,a1,3180 <matrix_test+0x127c>
    2924:	01fc26b3          	slt	a3,s8,t6
    2928:	00d50eb3          	add	t4,a0,a3
    292c:	010e9c93          	slli	s9,t4,0x10
    2930:	410cd513          	srai	a0,s9,0x10
    2934:	00180813          	addi	a6,a6,1
    2938:	00460613          	addi	a2,a2,4
    293c:	000f8c13          	mv	s8,t6
    2940:	00062883          	lw	a7,0(a2)
    2944:	01051e13          	slli	t3,a0,0x10
    2948:	010e5b93          	srli	s7,t3,0x10
    294c:	011585b3          	add	a1,a1,a7
    2950:	00b44ee3          	blt	s0,a1,316c <matrix_test+0x1268>
    2954:	011c2333          	slt	t1,s8,a7
    2958:	006b83b3          	add	t2,s7,t1
    295c:	01039f13          	slli	t5,t2,0x10
    2960:	410f5513          	srai	a0,t5,0x10
    2964:	00180813          	addi	a6,a6,1
    2968:	00460613          	addi	a2,a2,4
    296c:	08986c63          	bltu	a6,s1,2a04 <matrix_test+0xb00>
    2970:	1380006f          	j	2aa8 <matrix_test+0xba4>
    2974:	00462b83          	lw	s7,4(a2)
    2978:	00a68c13          	addi	s8,a3,10
    297c:	010c1e13          	slli	t3,s8,0x10
    2980:	410e5093          	srai	ra,t3,0x10
    2984:	00000e93          	li	t4,0
    2988:	01009313          	slli	t1,ra,0x10
    298c:	017e88b3          	add	a7,t4,s7
    2990:	00180813          	addi	a6,a6,1
    2994:	00460613          	addi	a2,a2,4
    2998:	01035393          	srli	t2,t1,0x10
    299c:	0b145463          	bge	s0,a7,2a44 <matrix_test+0xb40>
    29a0:	00a38d93          	addi	s11,t2,10
    29a4:	00462683          	lw	a3,4(a2)
    29a8:	010d9513          	slli	a0,s11,0x10
    29ac:	41055e93          	srai	t4,a0,0x10
    29b0:	00000893          	li	a7,0
    29b4:	010e9c93          	slli	s9,t4,0x10
    29b8:	00d88f33          	add	t5,a7,a3
    29bc:	010cd093          	srli	ra,s9,0x10
    29c0:	0be44463          	blt	s0,t5,2a68 <matrix_test+0xb64>
    29c4:	00dbac33          	slt	s8,s7,a3
    29c8:	01808e33          	add	t3,ra,s8
    29cc:	00862883          	lw	a7,8(a2)
    29d0:	010e1b93          	slli	s7,t3,0x10
    29d4:	410bd393          	srai	t2,s7,0x10
    29d8:	01039293          	slli	t0,t2,0x10
    29dc:	011f05b3          	add	a1,t5,a7
    29e0:	0102df93          	srli	t6,t0,0x10
    29e4:	0ab44463          	blt	s0,a1,2a8c <matrix_test+0xb88>
    29e8:	0116adb3          	slt	s11,a3,a7
    29ec:	01bf8533          	add	a0,t6,s11
    29f0:	01051e93          	slli	t4,a0,0x10
    29f4:	00380813          	addi	a6,a6,3
    29f8:	410ed513          	srai	a0,t4,0x10
    29fc:	00c60613          	addi	a2,a2,12
    2a00:	0a987463          	bgeu	a6,s1,2aa8 <matrix_test+0xba4>
    2a04:	00062d83          	lw	s11,0(a2)
    2a08:	01051513          	slli	a0,a0,0x10
    2a0c:	01055693          	srli	a3,a0,0x10
    2a10:	01b58eb3          	add	t4,a1,s11
    2a14:	f7d440e3          	blt	s0,t4,2974 <matrix_test+0xa70>
    2a18:	01b8a8b3          	slt	a7,a7,s11
    2a1c:	01168cb3          	add	s9,a3,a7
    2a20:	00462b83          	lw	s7,4(a2)
    2a24:	010c9593          	slli	a1,s9,0x10
    2a28:	4105d093          	srai	ra,a1,0x10
    2a2c:	01009313          	slli	t1,ra,0x10
    2a30:	017e88b3          	add	a7,t4,s7
    2a34:	00180813          	addi	a6,a6,1
    2a38:	00460613          	addi	a2,a2,4
    2a3c:	01035393          	srli	t2,t1,0x10
    2a40:	f71440e3          	blt	s0,a7,29a0 <matrix_test+0xa9c>
    2a44:	017daf33          	slt	t5,s11,s7
    2a48:	01e382b3          	add	t0,t2,t5
    2a4c:	00462683          	lw	a3,4(a2)
    2a50:	01029f93          	slli	t6,t0,0x10
    2a54:	410fde93          	srai	t4,t6,0x10
    2a58:	010e9c93          	slli	s9,t4,0x10
    2a5c:	00d88f33          	add	t5,a7,a3
    2a60:	010cd093          	srli	ra,s9,0x10
    2a64:	f7e450e3          	bge	s0,t5,29c4 <matrix_test+0xac0>
    2a68:	00a08593          	addi	a1,ra,10
    2a6c:	00862883          	lw	a7,8(a2)
    2a70:	01059313          	slli	t1,a1,0x10
    2a74:	41035393          	srai	t2,t1,0x10
    2a78:	00000f13          	li	t5,0
    2a7c:	01039293          	slli	t0,t2,0x10
    2a80:	011f05b3          	add	a1,t5,a7
    2a84:	0102df93          	srli	t6,t0,0x10
    2a88:	f6b450e3          	bge	s0,a1,29e8 <matrix_test+0xae4>
    2a8c:	00af8693          	addi	a3,t6,10
    2a90:	01069c93          	slli	s9,a3,0x10
    2a94:	00380813          	addi	a6,a6,3
    2a98:	410cd513          	srai	a0,s9,0x10
    2a9c:	00000593          	li	a1,0
    2aa0:	00c60613          	addi	a2,a2,12
    2aa4:	f69860e3          	bltu	a6,s1,2a04 <matrix_test+0xb00>
    2aa8:	00170713          	addi	a4,a4,1
    2aac:	015787b3          	add	a5,a5,s5
    2ab0:	00088093          	mv	ra,a7
    2ab4:	de9762e3          	bltu	a4,s1,2898 <matrix_test+0x994>
    2ab8:	01412583          	lw	a1,20(sp)
    2abc:	73c010ef          	jal	ra,41f8 <crc16>
    2ac0:	00c12c03          	lw	s8,12(sp)
    2ac4:	01012603          	lw	a2,16(sp)
    2ac8:	00050b93          	mv	s7,a0
    2acc:	000c0593          	mv	a1,s8
    2ad0:	00048513          	mv	a0,s1
    2ad4:	000b0693          	mv	a3,s6
    2ad8:	fc5fe0ef          	jal	ra,1a9c <matrix_mul_matrix>
    2adc:	00000513          	li	a0,0
    2ae0:	00000e13          	li	t3,0
    2ae4:	00000593          	li	a1,0
    2ae8:	00000393          	li	t2,0
    2aec:	000c2883          	lw	a7,0(s8)
    2af0:	fff48313          	addi	t1,s1,-1
    2af4:	01051293          	slli	t0,a0,0x10
    2af8:	011585b3          	add	a1,a1,a7
    2afc:	00337f13          	andi	t5,t1,3
    2b00:	0102df93          	srli	t6,t0,0x10
    2b04:	60b45263          	bge	s0,a1,3108 <matrix_test+0x1204>
    2b08:	00af8693          	addi	a3,t6,10
    2b0c:	01069c93          	slli	s9,a3,0x10
    2b10:	410cd513          	srai	a0,s9,0x10
    2b14:	00000593          	li	a1,0
    2b18:	00100813          	li	a6,1
    2b1c:	004c0613          	addi	a2,s8,4
    2b20:	00088093          	mv	ra,a7
    2b24:	1c987e63          	bgeu	a6,s1,2d00 <matrix_test+0xdfc>
    2b28:	120f0a63          	beqz	t5,2c5c <matrix_test+0xd58>
    2b2c:	070f0663          	beq	t5,a6,2b98 <matrix_test+0xc94>
    2b30:	00200713          	li	a4,2
    2b34:	02ef0a63          	beq	t5,a4,2b68 <matrix_test+0xc64>
    2b38:	00062783          	lw	a5,0(a2)
    2b3c:	01051093          	slli	ra,a0,0x10
    2b40:	0100de13          	srli	t3,ra,0x10
    2b44:	00f585b3          	add	a1,a1,a5
    2b48:	68b44463          	blt	s0,a1,31d0 <matrix_test+0x12cc>
    2b4c:	00f8a8b3          	slt	a7,a7,a5
    2b50:	011e0333          	add	t1,t3,a7
    2b54:	01031f13          	slli	t5,t1,0x10
    2b58:	410f5513          	srai	a0,t5,0x10
    2b5c:	00180813          	addi	a6,a6,1
    2b60:	00460613          	addi	a2,a2,4
    2b64:	00078093          	mv	ra,a5
    2b68:	00062f83          	lw	t6,0(a2)
    2b6c:	01051d93          	slli	s11,a0,0x10
    2b70:	010dd513          	srli	a0,s11,0x10
    2b74:	01f585b3          	add	a1,a1,t6
    2b78:	62b44863          	blt	s0,a1,31a8 <matrix_test+0x12a4>
    2b7c:	01f0aeb3          	slt	t4,ra,t6
    2b80:	01d506b3          	add	a3,a0,t4
    2b84:	01069c93          	slli	s9,a3,0x10
    2b88:	410cd513          	srai	a0,s9,0x10
    2b8c:	00180813          	addi	a6,a6,1
    2b90:	00460613          	addi	a2,a2,4
    2b94:	000f8093          	mv	ra,t6
    2b98:	00062883          	lw	a7,0(a2)
    2b9c:	01051e13          	slli	t3,a0,0x10
    2ba0:	010e5313          	srli	t1,t3,0x10
    2ba4:	011585b3          	add	a1,a1,a7
    2ba8:	58b44e63          	blt	s0,a1,3144 <matrix_test+0x1240>
    2bac:	0110af33          	slt	t5,ra,a7
    2bb0:	01e302b3          	add	t0,t1,t5
    2bb4:	01029f93          	slli	t6,t0,0x10
    2bb8:	410fd513          	srai	a0,t6,0x10
    2bbc:	00180813          	addi	a6,a6,1
    2bc0:	00460613          	addi	a2,a2,4
    2bc4:	08986c63          	bltu	a6,s1,2c5c <matrix_test+0xd58>
    2bc8:	1380006f          	j	2d00 <matrix_test+0xdfc>
    2bcc:	00462f03          	lw	t5,4(a2)
    2bd0:	00a68e13          	addi	t3,a3,10
    2bd4:	010e1313          	slli	t1,t3,0x10
    2bd8:	41035093          	srai	ra,t1,0x10
    2bdc:	00000c93          	li	s9,0
    2be0:	01009293          	slli	t0,ra,0x10
    2be4:	01ec88b3          	add	a7,s9,t5
    2be8:	00180813          	addi	a6,a6,1
    2bec:	00460613          	addi	a2,a2,4
    2bf0:	0102df93          	srli	t6,t0,0x10
    2bf4:	0b145463          	bge	s0,a7,2c9c <matrix_test+0xd98>
    2bf8:	00af8593          	addi	a1,t6,10
    2bfc:	00462703          	lw	a4,4(a2)
    2c00:	01059693          	slli	a3,a1,0x10
    2c04:	4106dc93          	srai	s9,a3,0x10
    2c08:	00000893          	li	a7,0
    2c0c:	010c9793          	slli	a5,s9,0x10
    2c10:	00e88eb3          	add	t4,a7,a4
    2c14:	0107d093          	srli	ra,a5,0x10
    2c18:	0bd44463          	blt	s0,t4,2cc0 <matrix_test+0xdbc>
    2c1c:	00ef2e33          	slt	t3,t5,a4
    2c20:	01c08333          	add	t1,ra,t3
    2c24:	00862883          	lw	a7,8(a2)
    2c28:	01031f13          	slli	t5,t1,0x10
    2c2c:	410f5d93          	srai	s11,t5,0x10
    2c30:	010d9513          	slli	a0,s11,0x10
    2c34:	011e85b3          	add	a1,t4,a7
    2c38:	01055c93          	srli	s9,a0,0x10
    2c3c:	0ab44463          	blt	s0,a1,2ce4 <matrix_test+0xde0>
    2c40:	011726b3          	slt	a3,a4,a7
    2c44:	00dc8733          	add	a4,s9,a3
    2c48:	01071793          	slli	a5,a4,0x10
    2c4c:	00380813          	addi	a6,a6,3
    2c50:	4107d513          	srai	a0,a5,0x10
    2c54:	00c60613          	addi	a2,a2,12
    2c58:	0a987463          	bgeu	a6,s1,2d00 <matrix_test+0xdfc>
    2c5c:	00062e83          	lw	t4,0(a2)
    2c60:	01051513          	slli	a0,a0,0x10
    2c64:	01055693          	srli	a3,a0,0x10
    2c68:	01d58cb3          	add	s9,a1,t4
    2c6c:	f79440e3          	blt	s0,s9,2bcc <matrix_test+0xcc8>
    2c70:	01d8a8b3          	slt	a7,a7,t4
    2c74:	01168733          	add	a4,a3,a7
    2c78:	00462f03          	lw	t5,4(a2)
    2c7c:	01071793          	slli	a5,a4,0x10
    2c80:	4107d093          	srai	ra,a5,0x10
    2c84:	01009293          	slli	t0,ra,0x10
    2c88:	01ec88b3          	add	a7,s9,t5
    2c8c:	00180813          	addi	a6,a6,1
    2c90:	00460613          	addi	a2,a2,4
    2c94:	0102df93          	srli	t6,t0,0x10
    2c98:	f71440e3          	blt	s0,a7,2bf8 <matrix_test+0xcf4>
    2c9c:	01eeadb3          	slt	s11,t4,t5
    2ca0:	01bf8eb3          	add	t4,t6,s11
    2ca4:	00462703          	lw	a4,4(a2)
    2ca8:	010e9513          	slli	a0,t4,0x10
    2cac:	41055c93          	srai	s9,a0,0x10
    2cb0:	010c9793          	slli	a5,s9,0x10
    2cb4:	00e88eb3          	add	t4,a7,a4
    2cb8:	0107d093          	srli	ra,a5,0x10
    2cbc:	f7d450e3          	bge	s0,t4,2c1c <matrix_test+0xd18>
    2cc0:	00a08293          	addi	t0,ra,10
    2cc4:	00862883          	lw	a7,8(a2)
    2cc8:	01029f93          	slli	t6,t0,0x10
    2ccc:	410fdd93          	srai	s11,t6,0x10
    2cd0:	00000e93          	li	t4,0
    2cd4:	010d9513          	slli	a0,s11,0x10
    2cd8:	011e85b3          	add	a1,t4,a7
    2cdc:	01055c93          	srli	s9,a0,0x10
    2ce0:	f6b450e3          	bge	s0,a1,2c40 <matrix_test+0xd3c>
    2ce4:	00ac8593          	addi	a1,s9,10
    2ce8:	01059093          	slli	ra,a1,0x10
    2cec:	00380813          	addi	a6,a6,3
    2cf0:	4100d513          	srai	a0,ra,0x10
    2cf4:	00000593          	li	a1,0
    2cf8:	00c60613          	addi	a2,a2,12
    2cfc:	f69860e3          	bltu	a6,s1,2c5c <matrix_test+0xd58>
    2d00:	00138393          	addi	t2,t2,1
    2d04:	015c0c33          	add	s8,s8,s5
    2d08:	00088e13          	mv	t3,a7
    2d0c:	de93e0e3          	bltu	t2,s1,2aec <matrix_test+0xbe8>
    2d10:	000b8593          	mv	a1,s7
    2d14:	4e4010ef          	jal	ra,41f8 <crc16>
    2d18:	01012603          	lw	a2,16(sp)
    2d1c:	00c12583          	lw	a1,12(sp)
    2d20:	000b0693          	mv	a3,s6
    2d24:	00050b93          	mv	s7,a0
    2d28:	00048513          	mv	a0,s1
    2d2c:	fe1fe0ef          	jal	ra,1d0c <matrix_mul_matrix_bitextract>
    2d30:	00000513          	li	a0,0
    2d34:	00000b13          	li	s6,0
    2d38:	00000e93          	li	t4,0
    2d3c:	00000c13          	li	s8,0
    2d40:	000a2683          	lw	a3,0(s4)
    2d44:	fff48393          	addi	t2,s1,-1
    2d48:	01051313          	slli	t1,a0,0x10
    2d4c:	00de8eb3          	add	t4,t4,a3
    2d50:	0033fe13          	andi	t3,t2,3
    2d54:	01035f13          	srli	t5,t1,0x10
    2d58:	3dd45263          	bge	s0,t4,311c <matrix_test+0x1218>
    2d5c:	00af0e93          	addi	t4,t5,10
    2d60:	010e9893          	slli	a7,t4,0x10
    2d64:	4108d513          	srai	a0,a7,0x10
    2d68:	00000e93          	li	t4,0
    2d6c:	00100593          	li	a1,1
    2d70:	004a0613          	addi	a2,s4,4
    2d74:	00068893          	mv	a7,a3
    2d78:	1c95fc63          	bgeu	a1,s1,2f50 <matrix_test+0x104c>
    2d7c:	120e0863          	beqz	t3,2eac <matrix_test+0xfa8>
    2d80:	06be0463          	beq	t3,a1,2de8 <matrix_test+0xee4>
    2d84:	00200c93          	li	s9,2
    2d88:	039e0863          	beq	t3,s9,2db8 <matrix_test+0xeb4>
    2d8c:	00062883          	lw	a7,0(a2)
    2d90:	01051513          	slli	a0,a0,0x10
    2d94:	01055713          	srli	a4,a0,0x10
    2d98:	011e8eb3          	add	t4,t4,a7
    2d9c:	43d44063          	blt	s0,t4,31bc <matrix_test+0x12b8>
    2da0:	0116a6b3          	slt	a3,a3,a7
    2da4:	00d707b3          	add	a5,a4,a3
    2da8:	01079093          	slli	ra,a5,0x10
    2dac:	4100d513          	srai	a0,ra,0x10
    2db0:	00158593          	addi	a1,a1,1
    2db4:	00460613          	addi	a2,a2,4
    2db8:	00062383          	lw	t2,0(a2)
    2dbc:	01051e13          	slli	t3,a0,0x10
    2dc0:	010e5313          	srli	t1,t3,0x10
    2dc4:	007e8eb3          	add	t4,t4,t2
    2dc8:	3dd44663          	blt	s0,t4,3194 <matrix_test+0x1290>
    2dcc:	0078af33          	slt	t5,a7,t2
    2dd0:	01e302b3          	add	t0,t1,t5
    2dd4:	01029f93          	slli	t6,t0,0x10
    2dd8:	410fd513          	srai	a0,t6,0x10
    2ddc:	00158593          	addi	a1,a1,1
    2de0:	00460613          	addi	a2,a2,4
    2de4:	00038893          	mv	a7,t2
    2de8:	00062683          	lw	a3,0(a2)
    2dec:	01051c93          	slli	s9,a0,0x10
    2df0:	010cd513          	srli	a0,s9,0x10
    2df4:	00de8eb3          	add	t4,t4,a3
    2df8:	37d44063          	blt	s0,t4,3158 <matrix_test+0x1254>
    2dfc:	00d8a733          	slt	a4,a7,a3
    2e00:	00e507b3          	add	a5,a0,a4
    2e04:	01079093          	slli	ra,a5,0x10
    2e08:	4100d513          	srai	a0,ra,0x10
    2e0c:	00158593          	addi	a1,a1,1
    2e10:	00460613          	addi	a2,a2,4
    2e14:	0895ec63          	bltu	a1,s1,2eac <matrix_test+0xfa8>
    2e18:	1380006f          	j	2f50 <matrix_test+0x104c>
    2e1c:	00a30e93          	addi	t4,t1,10
    2e20:	00462c83          	lw	s9,4(a2)
    2e24:	010e9893          	slli	a7,t4,0x10
    2e28:	4108dd93          	srai	s11,a7,0x10
    2e2c:	00000f13          	li	t5,0
    2e30:	00158713          	addi	a4,a1,1
    2e34:	019f0333          	add	t1,t5,s9
    2e38:	010d9593          	slli	a1,s11,0x10
    2e3c:	00460613          	addi	a2,a2,4
    2e40:	0105d513          	srli	a0,a1,0x10
    2e44:	0a645463          	bge	s0,t1,2eec <matrix_test+0xfe8>
    2e48:	00a50813          	addi	a6,a0,10
    2e4c:	00462f03          	lw	t5,4(a2)
    2e50:	01081393          	slli	t2,a6,0x10
    2e54:	4103de13          	srai	t3,t2,0x10
    2e58:	00000313          	li	t1,0
    2e5c:	010e1693          	slli	a3,t3,0x10
    2e60:	01e307b3          	add	a5,t1,t5
    2e64:	0106d293          	srli	t0,a3,0x10
    2e68:	0af44463          	blt	s0,a5,2f10 <matrix_test+0x100c>
    2e6c:	01ecafb3          	slt	t6,s9,t5
    2e70:	01f28db3          	add	s11,t0,t6
    2e74:	00862683          	lw	a3,8(a2)
    2e78:	010d9e93          	slli	t4,s11,0x10
    2e7c:	410ed593          	srai	a1,t4,0x10
    2e80:	01059513          	slli	a0,a1,0x10
    2e84:	00d78eb3          	add	t4,a5,a3
    2e88:	01055093          	srli	ra,a0,0x10
    2e8c:	0bd44463          	blt	s0,t4,2f34 <matrix_test+0x1030>
    2e90:	00df2b33          	slt	s6,t5,a3
    2e94:	016083b3          	add	t2,ra,s6
    2e98:	01039e13          	slli	t3,t2,0x10
    2e9c:	00370593          	addi	a1,a4,3
    2ea0:	410e5513          	srai	a0,t3,0x10
    2ea4:	00c60613          	addi	a2,a2,12
    2ea8:	0a95f463          	bgeu	a1,s1,2f50 <matrix_test+0x104c>
    2eac:	00062383          	lw	t2,0(a2)
    2eb0:	01051e13          	slli	t3,a0,0x10
    2eb4:	010e5313          	srli	t1,t3,0x10
    2eb8:	007e8f33          	add	t5,t4,t2
    2ebc:	f7e440e3          	blt	s0,t5,2e1c <matrix_test+0xf18>
    2ec0:	0076a6b3          	slt	a3,a3,t2
    2ec4:	00d302b3          	add	t0,t1,a3
    2ec8:	00462c83          	lw	s9,4(a2)
    2ecc:	01029f93          	slli	t6,t0,0x10
    2ed0:	410fdd93          	srai	s11,t6,0x10
    2ed4:	00158713          	addi	a4,a1,1
    2ed8:	019f0333          	add	t1,t5,s9
    2edc:	010d9593          	slli	a1,s11,0x10
    2ee0:	00460613          	addi	a2,a2,4
    2ee4:	0105d513          	srli	a0,a1,0x10
    2ee8:	f66440e3          	blt	s0,t1,2e48 <matrix_test+0xf44>
    2eec:	0193a7b3          	slt	a5,t2,s9
    2ef0:	00f500b3          	add	ra,a0,a5
    2ef4:	00462f03          	lw	t5,4(a2)
    2ef8:	01009b13          	slli	s6,ra,0x10
    2efc:	410b5e13          	srai	t3,s6,0x10
    2f00:	010e1693          	slli	a3,t3,0x10
    2f04:	01e307b3          	add	a5,t1,t5
    2f08:	0106d293          	srli	t0,a3,0x10
    2f0c:	f6f450e3          	bge	s0,a5,2e6c <matrix_test+0xf68>
    2f10:	00a28893          	addi	a7,t0,10
    2f14:	00862683          	lw	a3,8(a2)
    2f18:	01089c93          	slli	s9,a7,0x10
    2f1c:	410cd593          	srai	a1,s9,0x10
    2f20:	00000793          	li	a5,0
    2f24:	01059513          	slli	a0,a1,0x10
    2f28:	00d78eb3          	add	t4,a5,a3
    2f2c:	01055093          	srli	ra,a0,0x10
    2f30:	f7d450e3          	bge	s0,t4,2e90 <matrix_test+0xf8c>
    2f34:	00a08813          	addi	a6,ra,10
    2f38:	01081313          	slli	t1,a6,0x10
    2f3c:	00370593          	addi	a1,a4,3
    2f40:	41035513          	srai	a0,t1,0x10
    2f44:	00000e93          	li	t4,0
    2f48:	00c60613          	addi	a2,a2,12
    2f4c:	f695e0e3          	bltu	a1,s1,2eac <matrix_test+0xfa8>
    2f50:	001c0c13          	addi	s8,s8,1
    2f54:	015a0a33          	add	s4,s4,s5
    2f58:	00068b13          	mv	s6,a3
    2f5c:	de9c62e3          	bltu	s8,s1,2d40 <matrix_test+0xe3c>
    2f60:	000b8593          	mv	a1,s7
    2f64:	294010ef          	jal	ra,41f8 <crc16>
    2f68:	00000a13          	li	s4,0
    2f6c:	0009d403          	lhu	s0,0(s3)
    2f70:	fff48a93          	addi	s5,s1,-1
    2f74:	00100713          	li	a4,1
    2f78:	41240bb3          	sub	s7,s0,s2
    2f7c:	01799023          	sh	s7,0(s3)
    2f80:	007afc13          	andi	s8,s5,7
    2f84:	00298793          	addi	a5,s3,2
    2f88:	12977863          	bgeu	a4,s1,30b8 <matrix_test+0x11b4>
    2f8c:	0c0c0063          	beqz	s8,304c <matrix_test+0x1148>
    2f90:	0aec0263          	beq	s8,a4,3034 <matrix_test+0x1130>
    2f94:	00200f13          	li	t5,2
    2f98:	09ec0463          	beq	s8,t5,3020 <matrix_test+0x111c>
    2f9c:	00300293          	li	t0,3
    2fa0:	065c0663          	beq	s8,t0,300c <matrix_test+0x1108>
    2fa4:	00400f93          	li	t6,4
    2fa8:	05fc0863          	beq	s8,t6,2ff8 <matrix_test+0x10f4>
    2fac:	00500d93          	li	s11,5
    2fb0:	03bc0a63          	beq	s8,s11,2fe4 <matrix_test+0x10e0>
    2fb4:	00600893          	li	a7,6
    2fb8:	011c0c63          	beq	s8,a7,2fd0 <matrix_test+0x10cc>
    2fbc:	0007dc83          	lhu	s9,0(a5)
    2fc0:	00200713          	li	a4,2
    2fc4:	412c86b3          	sub	a3,s9,s2
    2fc8:	00d79023          	sh	a3,0(a5)
    2fcc:	00498793          	addi	a5,s3,4
    2fd0:	0007d083          	lhu	ra,0(a5)
    2fd4:	00170713          	addi	a4,a4,1
    2fd8:	00278793          	addi	a5,a5,2
    2fdc:	41208b33          	sub	s6,ra,s2
    2fe0:	ff679f23          	sh	s6,-2(a5)
    2fe4:	0007d383          	lhu	t2,0(a5)
    2fe8:	00170713          	addi	a4,a4,1
    2fec:	00278793          	addi	a5,a5,2
    2ff0:	41238e33          	sub	t3,t2,s2
    2ff4:	ffc79f23          	sh	t3,-2(a5)
    2ff8:	0007d803          	lhu	a6,0(a5)
    2ffc:	00170713          	addi	a4,a4,1
    3000:	00278793          	addi	a5,a5,2
    3004:	41280333          	sub	t1,a6,s2
    3008:	fe679f23          	sh	t1,-2(a5)
    300c:	0007de83          	lhu	t4,0(a5)
    3010:	00170713          	addi	a4,a4,1
    3014:	00278793          	addi	a5,a5,2
    3018:	412e85b3          	sub	a1,t4,s2
    301c:	feb79f23          	sh	a1,-2(a5)
    3020:	0007d603          	lhu	a2,0(a5)
    3024:	00170713          	addi	a4,a4,1
    3028:	00278793          	addi	a5,a5,2
    302c:	41260433          	sub	s0,a2,s2
    3030:	fe879f23          	sh	s0,-2(a5)
    3034:	0007da83          	lhu	s5,0(a5)
    3038:	00278793          	addi	a5,a5,2
    303c:	00170713          	addi	a4,a4,1
    3040:	412a8bb3          	sub	s7,s5,s2
    3044:	ff779f23          	sh	s7,-2(a5)
    3048:	06977863          	bgeu	a4,s1,30b8 <matrix_test+0x11b4>
    304c:	0007dc03          	lhu	s8,0(a5)
    3050:	0027d283          	lhu	t0,2(a5)
    3054:	0047df83          	lhu	t6,4(a5)
    3058:	0067dd83          	lhu	s11,6(a5)
    305c:	0087dc83          	lhu	s9,8(a5)
    3060:	00a7d083          	lhu	ra,10(a5)
    3064:	00c7db03          	lhu	s6,12(a5)
    3068:	00e7d683          	lhu	a3,14(a5)
    306c:	412c0f33          	sub	t5,s8,s2
    3070:	412283b3          	sub	t2,t0,s2
    3074:	412f8e33          	sub	t3,t6,s2
    3078:	412d88b3          	sub	a7,s11,s2
    307c:	412c8833          	sub	a6,s9,s2
    3080:	41208333          	sub	t1,ra,s2
    3084:	412b0eb3          	sub	t4,s6,s2
    3088:	412685b3          	sub	a1,a3,s2
    308c:	01e79023          	sh	t5,0(a5)
    3090:	00779123          	sh	t2,2(a5)
    3094:	01c79223          	sh	t3,4(a5)
    3098:	01179323          	sh	a7,6(a5)
    309c:	01079423          	sh	a6,8(a5)
    30a0:	00679523          	sh	t1,10(a5)
    30a4:	01d79623          	sh	t4,12(a5)
    30a8:	00b79723          	sh	a1,14(a5)
    30ac:	00870713          	addi	a4,a4,8
    30b0:	01078793          	addi	a5,a5,16
    30b4:	f8976ce3          	bltu	a4,s1,304c <matrix_test+0x1148>
    30b8:	001a0a13          	addi	s4,s4,1
    30bc:	01a989b3          	add	s3,s3,s10
    30c0:	ea9a66e3          	bltu	s4,s1,2f6c <matrix_test+0x1068>
    30c4:	05c12083          	lw	ra,92(sp)
    30c8:	05812403          	lw	s0,88(sp)
    30cc:	01051493          	slli	s1,a0,0x10
    30d0:	4104d513          	srai	a0,s1,0x10
    30d4:	05012903          	lw	s2,80(sp)
    30d8:	05412483          	lw	s1,84(sp)
    30dc:	04c12983          	lw	s3,76(sp)
    30e0:	04812a03          	lw	s4,72(sp)
    30e4:	04412a83          	lw	s5,68(sp)
    30e8:	04012b03          	lw	s6,64(sp)
    30ec:	03c12b83          	lw	s7,60(sp)
    30f0:	03812c03          	lw	s8,56(sp)
    30f4:	03412c83          	lw	s9,52(sp)
    30f8:	03012d03          	lw	s10,48(sp)
    30fc:	02c12d83          	lw	s11,44(sp)
    3100:	06010113          	addi	sp,sp,96
    3104:	00008067          	ret
    3108:	011e2db3          	slt	s11,t3,a7
    310c:	01bf8533          	add	a0,t6,s11
    3110:	01051e93          	slli	t4,a0,0x10
    3114:	410ed513          	srai	a0,t4,0x10
    3118:	a01ff06f          	j	2b18 <matrix_test+0xc14>
    311c:	00db22b3          	slt	t0,s6,a3
    3120:	005f0fb3          	add	t6,t5,t0
    3124:	010f9d93          	slli	s11,t6,0x10
    3128:	410dd513          	srai	a0,s11,0x10
    312c:	c41ff06f          	j	2d6c <matrix_test+0xe68>
    3130:	0110a6b3          	slt	a3,ra,a7
    3134:	00d60533          	add	a0,a2,a3
    3138:	01051e93          	slli	t4,a0,0x10
    313c:	410ed513          	srai	a0,t4,0x10
    3140:	f84ff06f          	j	28c4 <matrix_test+0x9c0>
    3144:	00a30593          	addi	a1,t1,10
    3148:	01059d93          	slli	s11,a1,0x10
    314c:	410dd513          	srai	a0,s11,0x10
    3150:	00000593          	li	a1,0
    3154:	a69ff06f          	j	2bbc <matrix_test+0xcb8>
    3158:	00a50813          	addi	a6,a0,10
    315c:	01081b13          	slli	s6,a6,0x10
    3160:	410b5513          	srai	a0,s6,0x10
    3164:	00000e93          	li	t4,0
    3168:	ca5ff06f          	j	2e0c <matrix_test+0xf08>
    316c:	00ab8293          	addi	t0,s7,10
    3170:	01029f93          	slli	t6,t0,0x10
    3174:	410fd513          	srai	a0,t6,0x10
    3178:	00000593          	li	a1,0
    317c:	fe8ff06f          	j	2964 <matrix_test+0xa60>
    3180:	00a50593          	addi	a1,a0,10
    3184:	01059093          	slli	ra,a1,0x10
    3188:	4100d513          	srai	a0,ra,0x10
    318c:	00000593          	li	a1,0
    3190:	fa4ff06f          	j	2934 <matrix_test+0xa30>
    3194:	00a30d93          	addi	s11,t1,10
    3198:	010d9e93          	slli	t4,s11,0x10
    319c:	410ed513          	srai	a0,t4,0x10
    31a0:	00000e93          	li	t4,0
    31a4:	c39ff06f          	j	2ddc <matrix_test+0xed8>
    31a8:	00a50713          	addi	a4,a0,10
    31ac:	01071793          	slli	a5,a4,0x10
    31b0:	4107d513          	srai	a0,a5,0x10
    31b4:	00000593          	li	a1,0
    31b8:	9d5ff06f          	j	2b8c <matrix_test+0xc88>
    31bc:	00a70813          	addi	a6,a4,10
    31c0:	01081b13          	slli	s6,a6,0x10
    31c4:	410b5513          	srai	a0,s6,0x10
    31c8:	00000e93          	li	t4,0
    31cc:	be5ff06f          	j	2db0 <matrix_test+0xeac>
    31d0:	00ae0593          	addi	a1,t3,10
    31d4:	01059293          	slli	t0,a1,0x10
    31d8:	4102d513          	srai	a0,t0,0x10
    31dc:	00000593          	li	a1,0
    31e0:	97dff06f          	j	2b5c <matrix_test+0xc58>
    31e4:	00ab8f13          	addi	t5,s7,10
    31e8:	010f1293          	slli	t0,t5,0x10
    31ec:	4102d513          	srai	a0,t0,0x10
    31f0:	00000593          	li	a1,0
    31f4:	f14ff06f          	j	2908 <matrix_test+0xa04>
    31f8:	00a78593          	addi	a1,a5,10
    31fc:	01059e93          	slli	t4,a1,0x10
    3200:	410ed513          	srai	a0,t4,0x10
    3204:	00000593          	li	a1,0
    3208:	8d0ff06f          	j	22d8 <matrix_test+0x3d4>
    320c:	00000593          	li	a1,0
    3210:	7e9000ef          	jal	ra,41f8 <crc16>
    3214:	00050593          	mv	a1,a0
    3218:	00000513          	li	a0,0
    321c:	7dd000ef          	jal	ra,41f8 <crc16>
    3220:	01012903          	lw	s2,16(sp)
    3224:	00c12483          	lw	s1,12(sp)
    3228:	000b0693          	mv	a3,s6
    322c:	00090613          	mv	a2,s2
    3230:	00050993          	mv	s3,a0
    3234:	00048593          	mv	a1,s1
    3238:	00000513          	li	a0,0
    323c:	861fe0ef          	jal	ra,1a9c <matrix_mul_matrix>
    3240:	00098593          	mv	a1,s3
    3244:	00000513          	li	a0,0
    3248:	7b1000ef          	jal	ra,41f8 <crc16>
    324c:	00050a13          	mv	s4,a0
    3250:	00048593          	mv	a1,s1
    3254:	000b0693          	mv	a3,s6
    3258:	00090613          	mv	a2,s2
    325c:	00000513          	li	a0,0
    3260:	aadfe0ef          	jal	ra,1d0c <matrix_mul_matrix_bitextract>
    3264:	000a0593          	mv	a1,s4
    3268:	00000513          	li	a0,0
    326c:	78d000ef          	jal	ra,41f8 <crc16>
    3270:	e55ff06f          	j	30c4 <matrix_test+0x11c0>

00003274 <core_bench_matrix>:
    3274:	ff010113          	addi	sp,sp,-16
    3278:	00812423          	sw	s0,8(sp)
    327c:	00058713          	mv	a4,a1
    3280:	00060413          	mv	s0,a2
    3284:	00c52583          	lw	a1,12(a0)
    3288:	00852683          	lw	a3,8(a0)
    328c:	00452603          	lw	a2,4(a0)
    3290:	00052503          	lw	a0,0(a0)
    3294:	00112623          	sw	ra,12(sp)
    3298:	c6dfe0ef          	jal	ra,1f04 <matrix_test>
    329c:	00040593          	mv	a1,s0
    32a0:	00812403          	lw	s0,8(sp)
    32a4:	00c12083          	lw	ra,12(sp)
    32a8:	01010113          	addi	sp,sp,16
    32ac:	74d0006f          	j	41f8 <crc16>

000032b0 <core_init_state>:
    32b0:	00000793          	li	a5,0
    32b4:	00000693          	li	a3,0
    32b8:	ff010113          	addi	sp,sp,-16
    32bc:	00158593          	addi	a1,a1,1
    32c0:	00f68733          	add	a4,a3,a5
    32c4:	01059293          	slli	t0,a1,0x10
    32c8:	00812623          	sw	s0,12(sp)
    32cc:	00912423          	sw	s1,8(sp)
    32d0:	01212223          	sw	s2,4(sp)
    32d4:	fff50313          	addi	t1,a0,-1
    32d8:	00170493          	addi	s1,a4,1
    32dc:	0102d593          	srli	a1,t0,0x10
    32e0:	00000413          	li	s0,0
    32e4:	00400893          	li	a7,4
    32e8:	02c00e13          	li	t3,44
    32ec:	00800393          	li	t2,8
    32f0:	0fffd297          	auipc	t0,0xfffd
    32f4:	1d428293          	addi	t0,t0,468 # 100004c4 <intpat>
    32f8:	0fffd817          	auipc	a6,0xfffd
    32fc:	19880813          	addi	a6,a6,408 # 10000490 <state_known_crc+0xc>
    3300:	0fffdf97          	auipc	t6,0xfffd
    3304:	1a4f8f93          	addi	t6,t6,420 # 100004a4 <errpat>
    3308:	0fffdf17          	auipc	t5,0xfffd
    330c:	1ccf0f13          	addi	t5,t5,460 # 100004d4 <scipat>
    3310:	0fffde97          	auipc	t4,0xfffd
    3314:	1a4e8e93          	addi	t4,t4,420 # 100004b4 <floatpat>
    3318:	0664f063          	bgeu	s1,t1,3378 <core_init_state+0xc8>
    331c:	12079a63          	bnez	a5,3450 <core_init_state+0x1a0>
    3320:	0075f493          	andi	s1,a1,7
    3324:	ffd48793          	addi	a5,s1,-3
    3328:	01079413          	slli	s0,a5,0x10
    332c:	0035d913          	srli	s2,a1,0x3
    3330:	01045493          	srli	s1,s0,0x10
    3334:	00397713          	andi	a4,s2,3
    3338:	1898e663          	bltu	a7,s1,34c4 <core_init_state+0x214>
    333c:	00249793          	slli	a5,s1,0x2
    3340:	01078933          	add	s2,a5,a6
    3344:	00092403          	lw	s0,0(s2)
    3348:	00271713          	slli	a4,a4,0x2
    334c:	010404b3          	add	s1,s0,a6
    3350:	00048067          	jr	s1
    3354:	00ee87b3          	add	a5,t4,a4
    3358:	0007a403          	lw	s0,0(a5)
    335c:	00800793          	li	a5,8
    3360:	00158593          	addi	a1,a1,1
    3364:	00f68733          	add	a4,a3,a5
    3368:	01059913          	slli	s2,a1,0x10
    336c:	00170493          	addi	s1,a4,1
    3370:	01095593          	srli	a1,s2,0x10
    3374:	fa64e4e3          	bltu	s1,t1,331c <core_init_state+0x6c>
    3378:	00d607b3          	add	a5,a2,a3
    337c:	00a60633          	add	a2,a2,a0
    3380:	08a6fe63          	bgeu	a3,a0,341c <core_init_state+0x16c>
    3384:	40f60333          	sub	t1,a2,a5
    3388:	00737393          	andi	t2,t1,7
    338c:	06038463          	beqz	t2,33f4 <core_init_state+0x144>
    3390:	00100693          	li	a3,1
    3394:	04d38a63          	beq	t2,a3,33e8 <core_init_state+0x138>
    3398:	00200413          	li	s0,2
    339c:	04838263          	beq	t2,s0,33e0 <core_init_state+0x130>
    33a0:	00300513          	li	a0,3
    33a4:	02a38a63          	beq	t2,a0,33d8 <core_init_state+0x128>
    33a8:	00400813          	li	a6,4
    33ac:	03038263          	beq	t2,a6,33d0 <core_init_state+0x120>
    33b0:	00500893          	li	a7,5
    33b4:	01138a63          	beq	t2,a7,33c8 <core_init_state+0x118>
    33b8:	00600913          	li	s2,6
    33bc:	11239e63          	bne	t2,s2,34d8 <core_init_state+0x228>
    33c0:	00078023          	sb	zero,0(a5)
    33c4:	00178793          	addi	a5,a5,1
    33c8:	00078023          	sb	zero,0(a5)
    33cc:	00178793          	addi	a5,a5,1
    33d0:	00078023          	sb	zero,0(a5)
    33d4:	00178793          	addi	a5,a5,1
    33d8:	00078023          	sb	zero,0(a5)
    33dc:	00178793          	addi	a5,a5,1
    33e0:	00078023          	sb	zero,0(a5)
    33e4:	00178793          	addi	a5,a5,1
    33e8:	00078023          	sb	zero,0(a5)
    33ec:	00178793          	addi	a5,a5,1
    33f0:	02c78663          	beq	a5,a2,341c <core_init_state+0x16c>
    33f4:	00078023          	sb	zero,0(a5)
    33f8:	000780a3          	sb	zero,1(a5)
    33fc:	00078123          	sb	zero,2(a5)
    3400:	000781a3          	sb	zero,3(a5)
    3404:	00078223          	sb	zero,4(a5)
    3408:	000782a3          	sb	zero,5(a5)
    340c:	00078323          	sb	zero,6(a5)
    3410:	000783a3          	sb	zero,7(a5)
    3414:	00878793          	addi	a5,a5,8
    3418:	fcc79ee3          	bne	a5,a2,33f4 <core_init_state+0x144>
    341c:	00c12403          	lw	s0,12(sp)
    3420:	00812483          	lw	s1,8(sp)
    3424:	00412903          	lw	s2,4(sp)
    3428:	01010113          	addi	sp,sp,16
    342c:	00008067          	ret
    3430:	00ef0933          	add	s2,t5,a4
    3434:	00092403          	lw	s0,0(s2)
    3438:	00800793          	li	a5,8
    343c:	f25ff06f          	j	3360 <core_init_state+0xb0>
    3440:	00ef8433          	add	s0,t6,a4
    3444:	00042403          	lw	s0,0(s0) # fffff000 <_sp+0xefffc000>
    3448:	00800793          	li	a5,8
    344c:	f15ff06f          	j	3360 <core_init_state+0xb0>
    3450:	00044903          	lbu	s2,0(s0)
    3454:	00d606b3          	add	a3,a2,a3
    3458:	01268023          	sb	s2,0(a3)
    345c:	00144903          	lbu	s2,1(s0)
    3460:	012680a3          	sb	s2,1(a3)
    3464:	00244903          	lbu	s2,2(s0)
    3468:	01268123          	sb	s2,2(a3)
    346c:	00344903          	lbu	s2,3(s0)
    3470:	012681a3          	sb	s2,3(a3)
    3474:	03178463          	beq	a5,a7,349c <core_init_state+0x1ec>
    3478:	00444903          	lbu	s2,4(s0)
    347c:	01268223          	sb	s2,4(a3)
    3480:	00544903          	lbu	s2,5(s0)
    3484:	012682a3          	sb	s2,5(a3)
    3488:	00644903          	lbu	s2,6(s0)
    348c:	01268323          	sb	s2,6(a3)
    3490:	00779663          	bne	a5,t2,349c <core_init_state+0x1ec>
    3494:	00744403          	lbu	s0,7(s0)
    3498:	008683a3          	sb	s0,7(a3)
    349c:	00048693          	mv	a3,s1
    34a0:	0075f493          	andi	s1,a1,7
    34a4:	ffd48793          	addi	a5,s1,-3
    34a8:	00e60733          	add	a4,a2,a4
    34ac:	01079413          	slli	s0,a5,0x10
    34b0:	01c70023          	sb	t3,0(a4)
    34b4:	0035d913          	srli	s2,a1,0x3
    34b8:	01045493          	srli	s1,s0,0x10
    34bc:	00397713          	andi	a4,s2,3
    34c0:	e698fee3          	bgeu	a7,s1,333c <core_init_state+0x8c>
    34c4:	00271493          	slli	s1,a4,0x2
    34c8:	00928733          	add	a4,t0,s1
    34cc:	00072403          	lw	s0,0(a4)
    34d0:	00400793          	li	a5,4
    34d4:	e8dff06f          	j	3360 <core_init_state+0xb0>
    34d8:	00078023          	sb	zero,0(a5)
    34dc:	00178793          	addi	a5,a5,1
    34e0:	ee1ff06f          	j	33c0 <core_init_state+0x110>

000034e4 <core_state_transition>:
    34e4:	00052783          	lw	a5,0(a0)
    34e8:	0007c683          	lbu	a3,0(a5)
    34ec:	2e068863          	beqz	a3,37dc <core_state_transition+0x2f8>
    34f0:	02c00813          	li	a6,44
    34f4:	00178713          	addi	a4,a5,1
    34f8:	2b068e63          	beq	a3,a6,37b4 <core_state_transition+0x2d0>
    34fc:	0005a883          	lw	a7,0(a1)
    3500:	fd068613          	addi	a2,a3,-48
    3504:	0ff67293          	andi	t0,a2,255
    3508:	00900313          	li	t1,9
    350c:	00188393          	addi	t2,a7,1
    3510:	0a536c63          	bltu	t1,t0,35c8 <core_state_transition+0xe4>
    3514:	0075a023          	sw	t2,0(a1)
    3518:	0017c303          	lbu	t1,1(a5)
    351c:	16030463          	beqz	t1,3684 <core_state_transition+0x1a0>
    3520:	00278e13          	addi	t3,a5,2
    3524:	15030e63          	beq	t1,a6,3680 <core_state_transition+0x19c>
    3528:	fd030613          	addi	a2,t1,-48
    352c:	02e00f13          	li	t5,46
    3530:	00900f93          	li	t6,9
    3534:	02c00893          	li	a7,44
    3538:	0ff67813          	andi	a6,a2,255
    353c:	03e30663          	beq	t1,t5,3568 <core_state_transition+0x84>
    3540:	0d0fe063          	bltu	t6,a6,3600 <core_state_transition+0x11c>
    3544:	00174303          	lbu	t1,1(a4)
    3548:	001e0393          	addi	t2,t3,1
    354c:	000e0713          	mv	a4,t3
    3550:	12030863          	beqz	t1,3680 <core_state_transition+0x19c>
    3554:	2b130a63          	beq	t1,a7,3808 <core_state_transition+0x324>
    3558:	fd030613          	addi	a2,t1,-48
    355c:	00038e13          	mv	t3,t2
    3560:	0ff67813          	andi	a6,a2,255
    3564:	fde31ee3          	bne	t1,t5,3540 <core_state_transition+0x5c>
    3568:	0105a783          	lw	a5,16(a1)
    356c:	00178e93          	addi	t4,a5,1
    3570:	01d5a823          	sw	t4,16(a1)
    3574:	00174383          	lbu	t2,1(a4)
    3578:	28038263          	beqz	t2,37fc <core_state_transition+0x318>
    357c:	02c00713          	li	a4,44
    3580:	001e0e93          	addi	t4,t3,1
    3584:	22e38263          	beq	t2,a4,37a8 <core_state_transition+0x2c4>
    3588:	04500f13          	li	t5,69
    358c:	00900f93          	li	t6,9
    3590:	02c00893          	li	a7,44
    3594:	fd038813          	addi	a6,t2,-48
    3598:	0df3f693          	andi	a3,t2,223
    359c:	0ff87293          	andi	t0,a6,255
    35a0:	0fe68663          	beq	a3,t5,368c <core_state_transition+0x1a8>
    35a4:	1a5ffa63          	bgeu	t6,t0,3758 <core_state_transition+0x274>
    35a8:	0145a303          	lw	t1,20(a1)
    35ac:	000e8713          	mv	a4,t4
    35b0:	00100393          	li	t2,1
    35b4:	00130613          	addi	a2,t1,1
    35b8:	00c5aa23          	sw	a2,20(a1)
    35bc:	00e52023          	sw	a4,0(a0)
    35c0:	00038513          	mv	a0,t2
    35c4:	00008067          	ret
    35c8:	02b00e13          	li	t3,43
    35cc:	05c68a63          	beq	a3,t3,3620 <core_state_transition+0x13c>
    35d0:	02d00e93          	li	t4,45
    35d4:	05d68663          	beq	a3,t4,3620 <core_state_transition+0x13c>
    35d8:	02e00f13          	li	t5,46
    35dc:	19e68c63          	beq	a3,t5,3774 <core_state_transition+0x290>
    35e0:	0045af83          	lw	t6,4(a1)
    35e4:	0075a023          	sw	t2,0(a1)
    35e8:	00100393          	li	t2,1
    35ec:	001f8693          	addi	a3,t6,1
    35f0:	00d5a223          	sw	a3,4(a1)
    35f4:	00e52023          	sw	a4,0(a0)
    35f8:	00038513          	mv	a0,t2
    35fc:	00008067          	ret
    3600:	0105a683          	lw	a3,16(a1)
    3604:	000e0713          	mv	a4,t3
    3608:	00100393          	li	t2,1
    360c:	00168293          	addi	t0,a3,1
    3610:	0055a823          	sw	t0,16(a1)
    3614:	00e52023          	sw	a4,0(a0)
    3618:	00038513          	mv	a0,t2
    361c:	00008067          	ret
    3620:	0075a023          	sw	t2,0(a1)
    3624:	0017c883          	lbu	a7,1(a5)
    3628:	1c088063          	beqz	a7,37e8 <core_state_transition+0x304>
    362c:	00278713          	addi	a4,a5,2
    3630:	1b088c63          	beq	a7,a6,37e8 <core_state_transition+0x304>
    3634:	0085a603          	lw	a2,8(a1)
    3638:	fd088813          	addi	a6,a7,-48
    363c:	0ff87293          	andi	t0,a6,255
    3640:	00900313          	li	t1,9
    3644:	00160393          	addi	t2,a2,1
    3648:	02537063          	bgeu	t1,t0,3668 <core_state_transition+0x184>
    364c:	02e00e13          	li	t3,46
    3650:	15c88063          	beq	a7,t3,3790 <core_state_transition+0x2ac>
    3654:	0075a423          	sw	t2,8(a1)
    3658:	00100393          	li	t2,1
    365c:	00e52023          	sw	a4,0(a0)
    3660:	00038513          	mv	a0,t2
    3664:	00008067          	ret
    3668:	0075a423          	sw	t2,8(a1)
    366c:	0027c303          	lbu	t1,2(a5)
    3670:	00030a63          	beqz	t1,3684 <core_state_transition+0x1a0>
    3674:	02c00e93          	li	t4,44
    3678:	00170e13          	addi	t3,a4,1
    367c:	ebd316e3          	bne	t1,t4,3528 <core_state_transition+0x44>
    3680:	000e0713          	mv	a4,t3
    3684:	00400393          	li	t2,4
    3688:	f8dff06f          	j	3614 <core_state_transition+0x130>
    368c:	0145a783          	lw	a5,20(a1)
    3690:	00178713          	addi	a4,a5,1
    3694:	00e5aa23          	sw	a4,20(a1)
    3698:	001e4e03          	lbu	t3,1(t3)
    369c:	120e0a63          	beqz	t3,37d0 <core_state_transition+0x2ec>
    36a0:	02c00f13          	li	t5,44
    36a4:	001e8713          	addi	a4,t4,1
    36a8:	13ee0663          	beq	t3,t5,37d4 <core_state_transition+0x2f0>
    36ac:	00c5af83          	lw	t6,12(a1)
    36b0:	fd5e0893          	addi	a7,t3,-43
    36b4:	0fd8f813          	andi	a6,a7,253
    36b8:	001f8693          	addi	a3,t6,1
    36bc:	00d5a623          	sw	a3,12(a1)
    36c0:	00080a63          	beqz	a6,36d4 <core_state_transition+0x1f0>
    36c4:	00100393          	li	t2,1
    36c8:	00e52023          	sw	a4,0(a0)
    36cc:	00038513          	mv	a0,t2
    36d0:	00008067          	ret
    36d4:	001ec283          	lbu	t0,1(t4)
    36d8:	0e028863          	beqz	t0,37c8 <core_state_transition+0x2e4>
    36dc:	002e8713          	addi	a4,t4,2
    36e0:	0fe28463          	beq	t0,t5,37c8 <core_state_transition+0x2e4>
    36e4:	0185a303          	lw	t1,24(a1)
    36e8:	fd028613          	addi	a2,t0,-48
    36ec:	0ff67393          	andi	t2,a2,255
    36f0:	00130e13          	addi	t3,t1,1
    36f4:	00900793          	li	a5,9
    36f8:	01c5ac23          	sw	t3,24(a1)
    36fc:	fc77e4e3          	bltu	a5,t2,36c4 <core_state_transition+0x1e0>
    3700:	002ec283          	lbu	t0,2(t4)
    3704:	0a028e63          	beqz	t0,37c0 <core_state_transition+0x2dc>
    3708:	003e8613          	addi	a2,t4,3
    370c:	0be28863          	beq	t0,t5,37bc <core_state_transition+0x2d8>
    3710:	00900e93          	li	t4,9
    3714:	02c00f13          	li	t5,44
    3718:	fd028f93          	addi	t6,t0,-48
    371c:	0ffff893          	andi	a7,t6,255
    3720:	011efe63          	bgeu	t4,a7,373c <core_state_transition+0x258>
    3724:	0045a803          	lw	a6,4(a1)
    3728:	00060713          	mv	a4,a2
    372c:	00100393          	li	t2,1
    3730:	00180693          	addi	a3,a6,1
    3734:	00d5a223          	sw	a3,4(a1)
    3738:	eddff06f          	j	3614 <core_state_transition+0x130>
    373c:	00174283          	lbu	t0,1(a4)
    3740:	00160313          	addi	t1,a2,1
    3744:	00060713          	mv	a4,a2
    3748:	06028a63          	beqz	t0,37bc <core_state_transition+0x2d8>
    374c:	0be28263          	beq	t0,t5,37f0 <core_state_transition+0x30c>
    3750:	00030613          	mv	a2,t1
    3754:	fc5ff06f          	j	3718 <core_state_transition+0x234>
    3758:	001e4383          	lbu	t2,1(t3)
    375c:	001e8713          	addi	a4,t4,1
    3760:	000e8e13          	mv	t3,t4
    3764:	04038263          	beqz	t2,37a8 <core_state_transition+0x2c4>
    3768:	05138263          	beq	t2,a7,37ac <core_state_transition+0x2c8>
    376c:	00070e93          	mv	t4,a4
    3770:	e25ff06f          	j	3594 <core_state_transition+0xb0>
    3774:	0075a023          	sw	t2,0(a1)
    3778:	0017c383          	lbu	t2,1(a5)
    377c:	02038863          	beqz	t2,37ac <core_state_transition+0x2c8>
    3780:	00278e93          	addi	t4,a5,2
    3784:	03038263          	beq	t2,a6,37a8 <core_state_transition+0x2c4>
    3788:	00070e13          	mv	t3,a4
    378c:	dfdff06f          	j	3588 <core_state_transition+0xa4>
    3790:	0075a423          	sw	t2,8(a1)
    3794:	0027c383          	lbu	t2,2(a5)
    3798:	00038a63          	beqz	t2,37ac <core_state_transition+0x2c8>
    379c:	02c00793          	li	a5,44
    37a0:	00170e93          	addi	t4,a4,1
    37a4:	fef392e3          	bne	t2,a5,3788 <core_state_transition+0x2a4>
    37a8:	000e8713          	mv	a4,t4
    37ac:	00500393          	li	t2,5
    37b0:	e65ff06f          	j	3614 <core_state_transition+0x130>
    37b4:	00000393          	li	t2,0
    37b8:	e5dff06f          	j	3614 <core_state_transition+0x130>
    37bc:	00060713          	mv	a4,a2
    37c0:	00700393          	li	t2,7
    37c4:	e51ff06f          	j	3614 <core_state_transition+0x130>
    37c8:	00600393          	li	t2,6
    37cc:	e49ff06f          	j	3614 <core_state_transition+0x130>
    37d0:	000e8713          	mv	a4,t4
    37d4:	00300393          	li	t2,3
    37d8:	e3dff06f          	j	3614 <core_state_transition+0x130>
    37dc:	00078713          	mv	a4,a5
    37e0:	00000393          	li	t2,0
    37e4:	e31ff06f          	j	3614 <core_state_transition+0x130>
    37e8:	00200393          	li	t2,2
    37ec:	e29ff06f          	j	3614 <core_state_transition+0x130>
    37f0:	00030713          	mv	a4,t1
    37f4:	00700393          	li	t2,7
    37f8:	e1dff06f          	j	3614 <core_state_transition+0x130>
    37fc:	000e0713          	mv	a4,t3
    3800:	00500393          	li	t2,5
    3804:	e11ff06f          	j	3614 <core_state_transition+0x130>
    3808:	00038713          	mv	a4,t2
    380c:	00400393          	li	t2,4
    3810:	e05ff06f          	j	3614 <core_state_transition+0x130>

00003814 <core_bench_state>:
    3814:	f8010113          	addi	sp,sp,-128
    3818:	06812c23          	sw	s0,120(sp)
    381c:	07212823          	sw	s2,112(sp)
    3820:	07312623          	sw	s3,108(sp)
    3824:	07412423          	sw	s4,104(sp)
    3828:	07612023          	sw	s6,96(sp)
    382c:	05712e23          	sw	s7,92(sp)
    3830:	06112e23          	sw	ra,124(sp)
    3834:	06912a23          	sw	s1,116(sp)
    3838:	07512223          	sw	s5,100(sp)
    383c:	00058413          	mv	s0,a1
    3840:	0005c583          	lbu	a1,0(a1)
    3844:	00812623          	sw	s0,12(sp)
    3848:	02012823          	sw	zero,48(sp)
    384c:	00012823          	sw	zero,16(sp)
    3850:	02012a23          	sw	zero,52(sp)
    3854:	00012a23          	sw	zero,20(sp)
    3858:	02012c23          	sw	zero,56(sp)
    385c:	00012c23          	sw	zero,24(sp)
    3860:	02012e23          	sw	zero,60(sp)
    3864:	00012e23          	sw	zero,28(sp)
    3868:	04012023          	sw	zero,64(sp)
    386c:	02012023          	sw	zero,32(sp)
    3870:	04012223          	sw	zero,68(sp)
    3874:	02012223          	sw	zero,36(sp)
    3878:	04012423          	sw	zero,72(sp)
    387c:	02012423          	sw	zero,40(sp)
    3880:	04012623          	sw	zero,76(sp)
    3884:	02012623          	sw	zero,44(sp)
    3888:	00050b93          	mv	s7,a0
    388c:	00060b13          	mv	s6,a2
    3890:	00068a13          	mv	s4,a3
    3894:	00070913          	mv	s2,a4
    3898:	00078993          	mv	s3,a5
    389c:	14058063          	beqz	a1,39dc <core_bench_state+0x1c8>
    38a0:	03010493          	addi	s1,sp,48
    38a4:	00c10a93          	addi	s5,sp,12
    38a8:	00048593          	mv	a1,s1
    38ac:	000a8513          	mv	a0,s5
    38b0:	c35ff0ef          	jal	ra,34e4 <core_state_transition>
    38b4:	00251513          	slli	a0,a0,0x2
    38b8:	05010793          	addi	a5,sp,80
    38bc:	00a782b3          	add	t0,a5,a0
    38c0:	00c12703          	lw	a4,12(sp)
    38c4:	fc02a303          	lw	t1,-64(t0)
    38c8:	00074383          	lbu	t2,0(a4)
    38cc:	00130613          	addi	a2,t1,1
    38d0:	fcc2a023          	sw	a2,-64(t0)
    38d4:	fc039ae3          	bnez	t2,38a8 <core_bench_state+0x94>
    38d8:	00812623          	sw	s0,12(sp)
    38dc:	01740bb3          	add	s7,s0,s7
    38e0:	00044583          	lbu	a1,0(s0)
    38e4:	11747463          	bgeu	s0,s7,39ec <core_bench_state+0x1d8>
    38e8:	00040893          	mv	a7,s0
    38ec:	02c00693          	li	a3,44
    38f0:	0080006f          	j	38f8 <core_bench_state+0xe4>
    38f4:	0008c583          	lbu	a1,0(a7)
    38f8:	0165c0b3          	xor	ra,a1,s6
    38fc:	00d58463          	beq	a1,a3,3904 <core_bench_state+0xf0>
    3900:	00188023          	sb	ra,0(a7)
    3904:	00c12803          	lw	a6,12(sp)
    3908:	012808b3          	add	a7,a6,s2
    390c:	01112623          	sw	a7,12(sp)
    3910:	ff78e2e3          	bltu	a7,s7,38f4 <core_bench_state+0xe0>
    3914:	00044e03          	lbu	t3,0(s0)
    3918:	00812623          	sw	s0,12(sp)
    391c:	00c10a93          	addi	s5,sp,12
    3920:	020e0e63          	beqz	t3,395c <core_bench_state+0x148>
    3924:	00048593          	mv	a1,s1
    3928:	000a8513          	mv	a0,s5
    392c:	bb9ff0ef          	jal	ra,34e4 <core_state_transition>
    3930:	00251e93          	slli	t4,a0,0x2
    3934:	05010f13          	addi	t5,sp,80
    3938:	01df0fb3          	add	t6,t5,t4
    393c:	00c12b03          	lw	s6,12(sp)
    3940:	fc0fa583          	lw	a1,-64(t6)
    3944:	000b4503          	lbu	a0,0(s6)
    3948:	00158793          	addi	a5,a1,1
    394c:	fcffa023          	sw	a5,-64(t6)
    3950:	fc051ae3          	bnez	a0,3924 <core_bench_state+0x110>
    3954:	00812623          	sw	s0,12(sp)
    3958:	03747463          	bgeu	s0,s7,3980 <core_bench_state+0x16c>
    395c:	02c00a93          	li	s5,44
    3960:	00044283          	lbu	t0,0(s0)
    3964:	0142c333          	xor	t1,t0,s4
    3968:	01528463          	beq	t0,s5,3970 <core_bench_state+0x15c>
    396c:	00640023          	sb	t1,0(s0)
    3970:	00c12403          	lw	s0,12(sp)
    3974:	01240433          	add	s0,s0,s2
    3978:	00812623          	sw	s0,12(sp)
    397c:	ff7462e3          	bltu	s0,s7,3960 <core_bench_state+0x14c>
    3980:	01010b93          	addi	s7,sp,16
    3984:	00048b13          	mv	s6,s1
    3988:	000ba503          	lw	a0,0(s7)
    398c:	00098593          	mv	a1,s3
    3990:	004b8b93          	addi	s7,s7,4
    3994:	354000ef          	jal	ra,3ce8 <crcu32>
    3998:	00050593          	mv	a1,a0
    399c:	000b2503          	lw	a0,0(s6)
    39a0:	004b0b13          	addi	s6,s6,4
    39a4:	344000ef          	jal	ra,3ce8 <crcu32>
    39a8:	00050993          	mv	s3,a0
    39ac:	fc9b9ee3          	bne	s7,s1,3988 <core_bench_state+0x174>
    39b0:	07c12083          	lw	ra,124(sp)
    39b4:	07812403          	lw	s0,120(sp)
    39b8:	07412483          	lw	s1,116(sp)
    39bc:	07012903          	lw	s2,112(sp)
    39c0:	06c12983          	lw	s3,108(sp)
    39c4:	06812a03          	lw	s4,104(sp)
    39c8:	06412a83          	lw	s5,100(sp)
    39cc:	06012b03          	lw	s6,96(sp)
    39d0:	05c12b83          	lw	s7,92(sp)
    39d4:	08010113          	addi	sp,sp,128
    39d8:	00008067          	ret
    39dc:	00a40bb3          	add	s7,s0,a0
    39e0:	03010493          	addi	s1,sp,48
    39e4:	f17462e3          	bltu	s0,s7,38e8 <core_bench_state+0xd4>
    39e8:	f99ff06f          	j	3980 <core_bench_state+0x16c>
    39ec:	f2059ce3          	bnez	a1,3924 <core_bench_state+0x110>
    39f0:	f91ff06f          	j	3980 <core_bench_state+0x16c>

000039f4 <get_seed_32>:
    39f4:	00500793          	li	a5,5
    39f8:	06a7e463          	bltu	a5,a0,3a60 <get_seed_32+0x6c>
    39fc:	0fffd717          	auipc	a4,0xfffd
    3a00:	b9870713          	addi	a4,a4,-1128 # 10000594 <scipat+0xc0>
    3a04:	00251513          	slli	a0,a0,0x2
    3a08:	00e502b3          	add	t0,a0,a4
    3a0c:	0002a303          	lw	t1,0(t0)
    3a10:	00e303b3          	add	t2,t1,a4
    3a14:	00038067          	jr	t2
    3a18:	81018593          	addi	a1,gp,-2032 # 10000768 <seed5_volatile>
    3a1c:	0005a503          	lw	a0,0(a1)
    3a20:	00008067          	ret
    3a24:	0fffd897          	auipc	a7,0xfffd
    3a28:	d3c88893          	addi	a7,a7,-708 # 10000760 <seed1_volatile>
    3a2c:	0008a503          	lw	a0,0(a7)
    3a30:	00008067          	ret
    3a34:	80c18813          	addi	a6,gp,-2036 # 10000764 <seed2_volatile>
    3a38:	00082503          	lw	a0,0(a6)
    3a3c:	00008067          	ret
    3a40:	0fffd697          	auipc	a3,0xfffd
    3a44:	d1868693          	addi	a3,a3,-744 # 10000758 <seed3_volatile>
    3a48:	0006a503          	lw	a0,0(a3)
    3a4c:	00008067          	ret
    3a50:	0fffd617          	auipc	a2,0xfffd
    3a54:	d0c60613          	addi	a2,a2,-756 # 1000075c <seed4_volatile>
    3a58:	00062503          	lw	a0,0(a2)
    3a5c:	00008067          	ret
    3a60:	00000513          	li	a0,0
    3a64:	00008067          	ret

00003a68 <crcu16>:
    3a68:	00a5c633          	xor	a2,a1,a0
    3a6c:	0ff57693          	andi	a3,a0,255
    3a70:	00167293          	andi	t0,a2,1
    3a74:	0016d713          	srli	a4,a3,0x1
    3a78:	0015d813          	srli	a6,a1,0x1
    3a7c:	00028c63          	beqz	t0,3a94 <crcu16+0x2c>
    3a80:	ffffa337          	lui	t1,0xffffa
    3a84:	00130393          	addi	t2,t1,1 # ffffa001 <_sp+0xefff7001>
    3a88:	007847b3          	xor	a5,a6,t2
    3a8c:	01079593          	slli	a1,a5,0x10
    3a90:	0105d813          	srli	a6,a1,0x10
    3a94:	00e848b3          	xor	a7,a6,a4
    3a98:	0018fe13          	andi	t3,a7,1
    3a9c:	0026de93          	srli	t4,a3,0x2
    3aa0:	00185313          	srli	t1,a6,0x1
    3aa4:	000e0c63          	beqz	t3,3abc <crcu16+0x54>
    3aa8:	ffffaf37          	lui	t5,0xffffa
    3aac:	001f0f93          	addi	t6,t5,1 # ffffa001 <_sp+0xefff7001>
    3ab0:	01f34633          	xor	a2,t1,t6
    3ab4:	01061293          	slli	t0,a2,0x10
    3ab8:	0102d313          	srli	t1,t0,0x10
    3abc:	01d34733          	xor	a4,t1,t4
    3ac0:	00177393          	andi	t2,a4,1
    3ac4:	0036d593          	srli	a1,a3,0x3
    3ac8:	00135e93          	srli	t4,t1,0x1
    3acc:	00038c63          	beqz	t2,3ae4 <crcu16+0x7c>
    3ad0:	ffffa837          	lui	a6,0xffffa
    3ad4:	00180893          	addi	a7,a6,1 # ffffa001 <_sp+0xefff7001>
    3ad8:	011ec7b3          	xor	a5,t4,a7
    3adc:	01079e13          	slli	t3,a5,0x10
    3ae0:	010e5e93          	srli	t4,t3,0x10
    3ae4:	00becf33          	xor	t5,t4,a1
    3ae8:	001f7f93          	andi	t6,t5,1
    3aec:	0046d293          	srli	t0,a3,0x4
    3af0:	001ed593          	srli	a1,t4,0x1
    3af4:	000f8c63          	beqz	t6,3b0c <crcu16+0xa4>
    3af8:	ffffa637          	lui	a2,0xffffa
    3afc:	00160313          	addi	t1,a2,1 # ffffa001 <_sp+0xefff7001>
    3b00:	0065c733          	xor	a4,a1,t1
    3b04:	01071393          	slli	t2,a4,0x10
    3b08:	0103d593          	srli	a1,t2,0x10
    3b0c:	0055c833          	xor	a6,a1,t0
    3b10:	00187893          	andi	a7,a6,1
    3b14:	0056de13          	srli	t3,a3,0x5
    3b18:	0015d293          	srli	t0,a1,0x1
    3b1c:	00088c63          	beqz	a7,3b34 <crcu16+0xcc>
    3b20:	ffffaeb7          	lui	t4,0xffffa
    3b24:	001e8f13          	addi	t5,t4,1 # ffffa001 <_sp+0xefff7001>
    3b28:	01e2c7b3          	xor	a5,t0,t5
    3b2c:	01079f93          	slli	t6,a5,0x10
    3b30:	010fd293          	srli	t0,t6,0x10
    3b34:	01c2c633          	xor	a2,t0,t3
    3b38:	00167313          	andi	t1,a2,1
    3b3c:	0066d713          	srli	a4,a3,0x6
    3b40:	0012de13          	srli	t3,t0,0x1
    3b44:	00030c63          	beqz	t1,3b5c <crcu16+0xf4>
    3b48:	ffffa3b7          	lui	t2,0xffffa
    3b4c:	00138593          	addi	a1,t2,1 # ffffa001 <_sp+0xefff7001>
    3b50:	00be4833          	xor	a6,t3,a1
    3b54:	01081893          	slli	a7,a6,0x10
    3b58:	0108de13          	srli	t3,a7,0x10
    3b5c:	00ee4eb3          	xor	t4,t3,a4
    3b60:	001eff13          	andi	t5,t4,1
    3b64:	0076d693          	srli	a3,a3,0x7
    3b68:	001e5313          	srli	t1,t3,0x1
    3b6c:	000f0c63          	beqz	t5,3b84 <crcu16+0x11c>
    3b70:	ffffafb7          	lui	t6,0xffffa
    3b74:	001f8293          	addi	t0,t6,1 # ffffa001 <_sp+0xefff7001>
    3b78:	005347b3          	xor	a5,t1,t0
    3b7c:	01079613          	slli	a2,a5,0x10
    3b80:	01065313          	srli	t1,a2,0x10
    3b84:	00137713          	andi	a4,t1,1
    3b88:	00135e13          	srli	t3,t1,0x1
    3b8c:	00d70c63          	beq	a4,a3,3ba4 <crcu16+0x13c>
    3b90:	ffffa3b7          	lui	t2,0xffffa
    3b94:	00138593          	addi	a1,t2,1 # ffffa001 <_sp+0xefff7001>
    3b98:	00be4833          	xor	a6,t3,a1
    3b9c:	01081893          	slli	a7,a6,0x10
    3ba0:	0108de13          	srli	t3,a7,0x10
    3ba4:	00855513          	srli	a0,a0,0x8
    3ba8:	01c54eb3          	xor	t4,a0,t3
    3bac:	0ff57f13          	andi	t5,a0,255
    3bb0:	001eff93          	andi	t6,t4,1
    3bb4:	001f5693          	srli	a3,t5,0x1
    3bb8:	001e5713          	srli	a4,t3,0x1
    3bbc:	000f8c63          	beqz	t6,3bd4 <crcu16+0x16c>
    3bc0:	ffffa2b7          	lui	t0,0xffffa
    3bc4:	00128793          	addi	a5,t0,1 # ffffa001 <_sp+0xefff7001>
    3bc8:	00f74633          	xor	a2,a4,a5
    3bcc:	01061313          	slli	t1,a2,0x10
    3bd0:	01035713          	srli	a4,t1,0x10
    3bd4:	00e6c3b3          	xor	t2,a3,a4
    3bd8:	0013f593          	andi	a1,t2,1
    3bdc:	002f5813          	srli	a6,t5,0x2
    3be0:	00175f93          	srli	t6,a4,0x1
    3be4:	00058c63          	beqz	a1,3bfc <crcu16+0x194>
    3be8:	ffffa8b7          	lui	a7,0xffffa
    3bec:	00188e13          	addi	t3,a7,1 # ffffa001 <_sp+0xefff7001>
    3bf0:	01cfc533          	xor	a0,t6,t3
    3bf4:	01051e93          	slli	t4,a0,0x10
    3bf8:	010edf93          	srli	t6,t4,0x10
    3bfc:	010fc6b3          	xor	a3,t6,a6
    3c00:	0016f293          	andi	t0,a3,1
    3c04:	003f5613          	srli	a2,t5,0x3
    3c08:	001fd593          	srli	a1,t6,0x1
    3c0c:	00028c63          	beqz	t0,3c24 <crcu16+0x1bc>
    3c10:	ffffa7b7          	lui	a5,0xffffa
    3c14:	00178313          	addi	t1,a5,1 # ffffa001 <_sp+0xefff7001>
    3c18:	0065c733          	xor	a4,a1,t1
    3c1c:	01071393          	slli	t2,a4,0x10
    3c20:	0103d593          	srli	a1,t2,0x10
    3c24:	00c5c833          	xor	a6,a1,a2
    3c28:	00187893          	andi	a7,a6,1
    3c2c:	004f5e13          	srli	t3,t5,0x4
    3c30:	0015d293          	srli	t0,a1,0x1
    3c34:	00088c63          	beqz	a7,3c4c <crcu16+0x1e4>
    3c38:	ffffaeb7          	lui	t4,0xffffa
    3c3c:	001e8f93          	addi	t6,t4,1 # ffffa001 <_sp+0xefff7001>
    3c40:	01f2c533          	xor	a0,t0,t6
    3c44:	01051693          	slli	a3,a0,0x10
    3c48:	0106d293          	srli	t0,a3,0x10
    3c4c:	01c2c633          	xor	a2,t0,t3
    3c50:	00167793          	andi	a5,a2,1
    3c54:	005f5313          	srli	t1,t5,0x5
    3c58:	0012d893          	srli	a7,t0,0x1
    3c5c:	00078c63          	beqz	a5,3c74 <crcu16+0x20c>
    3c60:	ffffa737          	lui	a4,0xffffa
    3c64:	00170393          	addi	t2,a4,1 # ffffa001 <_sp+0xefff7001>
    3c68:	0078c5b3          	xor	a1,a7,t2
    3c6c:	01059813          	slli	a6,a1,0x10
    3c70:	01085893          	srli	a7,a6,0x10
    3c74:	0068ce33          	xor	t3,a7,t1
    3c78:	001e7e93          	andi	t4,t3,1
    3c7c:	006f5f93          	srli	t6,t5,0x6
    3c80:	0018d313          	srli	t1,a7,0x1
    3c84:	000e8c63          	beqz	t4,3c9c <crcu16+0x234>
    3c88:	ffffa6b7          	lui	a3,0xffffa
    3c8c:	00168293          	addi	t0,a3,1 # ffffa001 <_sp+0xefff7001>
    3c90:	00534533          	xor	a0,t1,t0
    3c94:	01051613          	slli	a2,a0,0x10
    3c98:	01065313          	srli	t1,a2,0x10
    3c9c:	01f347b3          	xor	a5,t1,t6
    3ca0:	0017f393          	andi	t2,a5,1
    3ca4:	007f5f13          	srli	t5,t5,0x7
    3ca8:	00135e13          	srli	t3,t1,0x1
    3cac:	00038c63          	beqz	t2,3cc4 <crcu16+0x25c>
    3cb0:	ffffa737          	lui	a4,0xffffa
    3cb4:	00170593          	addi	a1,a4,1 # ffffa001 <_sp+0xefff7001>
    3cb8:	00be4833          	xor	a6,t3,a1
    3cbc:	01081893          	slli	a7,a6,0x10
    3cc0:	0108de13          	srli	t3,a7,0x10
    3cc4:	001e7e93          	andi	t4,t3,1
    3cc8:	001e5513          	srli	a0,t3,0x1
    3ccc:	01ee8c63          	beq	t4,t5,3ce4 <crcu16+0x27c>
    3cd0:	ffffafb7          	lui	t6,0xffffa
    3cd4:	001f8693          	addi	a3,t6,1 # ffffa001 <_sp+0xefff7001>
    3cd8:	00d542b3          	xor	t0,a0,a3
    3cdc:	01029513          	slli	a0,t0,0x10
    3ce0:	01055513          	srli	a0,a0,0x10
    3ce4:	00008067          	ret

00003ce8 <crcu32>:
    3ce8:	00a5c833          	xor	a6,a1,a0
    3cec:	0ff57693          	andi	a3,a0,255
    3cf0:	01051713          	slli	a4,a0,0x10
    3cf4:	00187293          	andi	t0,a6,1
    3cf8:	01075313          	srli	t1,a4,0x10
    3cfc:	0016d613          	srli	a2,a3,0x1
    3d00:	0015de13          	srli	t3,a1,0x1
    3d04:	00028c63          	beqz	t0,3d1c <crcu32+0x34>
    3d08:	ffffa5b7          	lui	a1,0xffffa
    3d0c:	00158393          	addi	t2,a1,1 # ffffa001 <_sp+0xefff7001>
    3d10:	007e47b3          	xor	a5,t3,t2
    3d14:	01079893          	slli	a7,a5,0x10
    3d18:	0108de13          	srli	t3,a7,0x10
    3d1c:	00ce4eb3          	xor	t4,t3,a2
    3d20:	001eff13          	andi	t5,t4,1
    3d24:	0026df93          	srli	t6,a3,0x2
    3d28:	001e5393          	srli	t2,t3,0x1
    3d2c:	000f0c63          	beqz	t5,3d44 <crcu32+0x5c>
    3d30:	ffffa837          	lui	a6,0xffffa
    3d34:	00180293          	addi	t0,a6,1 # ffffa001 <_sp+0xefff7001>
    3d38:	0053c733          	xor	a4,t2,t0
    3d3c:	01071613          	slli	a2,a4,0x10
    3d40:	01065393          	srli	t2,a2,0x10
    3d44:	01f3c5b3          	xor	a1,t2,t6
    3d48:	0015f893          	andi	a7,a1,1
    3d4c:	0036de13          	srli	t3,a3,0x3
    3d50:	0013d813          	srli	a6,t2,0x1
    3d54:	00088c63          	beqz	a7,3d6c <crcu32+0x84>
    3d58:	ffffaeb7          	lui	t4,0xffffa
    3d5c:	001e8f13          	addi	t5,t4,1 # ffffa001 <_sp+0xefff7001>
    3d60:	01e847b3          	xor	a5,a6,t5
    3d64:	01079f93          	slli	t6,a5,0x10
    3d68:	010fd813          	srli	a6,t6,0x10
    3d6c:	01c842b3          	xor	t0,a6,t3
    3d70:	0012f713          	andi	a4,t0,1
    3d74:	0046d613          	srli	a2,a3,0x4
    3d78:	00185e93          	srli	t4,a6,0x1
    3d7c:	00070c63          	beqz	a4,3d94 <crcu32+0xac>
    3d80:	ffffa3b7          	lui	t2,0xffffa
    3d84:	00138593          	addi	a1,t2,1 # ffffa001 <_sp+0xefff7001>
    3d88:	00bec8b3          	xor	a7,t4,a1
    3d8c:	01089e13          	slli	t3,a7,0x10
    3d90:	010e5e93          	srli	t4,t3,0x10
    3d94:	00cecf33          	xor	t5,t4,a2
    3d98:	001f7f93          	andi	t6,t5,1
    3d9c:	0056d813          	srli	a6,a3,0x5
    3da0:	001ed393          	srli	t2,t4,0x1
    3da4:	000f8c63          	beqz	t6,3dbc <crcu32+0xd4>
    3da8:	ffffa2b7          	lui	t0,0xffffa
    3dac:	00128713          	addi	a4,t0,1 # ffffa001 <_sp+0xefff7001>
    3db0:	00e3c7b3          	xor	a5,t2,a4
    3db4:	01079613          	slli	a2,a5,0x10
    3db8:	01065393          	srli	t2,a2,0x10
    3dbc:	0103c5b3          	xor	a1,t2,a6
    3dc0:	0015f893          	andi	a7,a1,1
    3dc4:	0066de13          	srli	t3,a3,0x6
    3dc8:	0013d293          	srli	t0,t2,0x1
    3dcc:	00088c63          	beqz	a7,3de4 <crcu32+0xfc>
    3dd0:	ffffaeb7          	lui	t4,0xffffa
    3dd4:	001e8f13          	addi	t5,t4,1 # ffffa001 <_sp+0xefff7001>
    3dd8:	01e2cfb3          	xor	t6,t0,t5
    3ddc:	010f9813          	slli	a6,t6,0x10
    3de0:	01085293          	srli	t0,a6,0x10
    3de4:	01c2c733          	xor	a4,t0,t3
    3de8:	00177613          	andi	a2,a4,1
    3dec:	0076d693          	srli	a3,a3,0x7
    3df0:	0012de13          	srli	t3,t0,0x1
    3df4:	00060c63          	beqz	a2,3e0c <crcu32+0x124>
    3df8:	ffffa3b7          	lui	t2,0xffffa
    3dfc:	00138593          	addi	a1,t2,1 # ffffa001 <_sp+0xefff7001>
    3e00:	00be47b3          	xor	a5,t3,a1
    3e04:	01079893          	slli	a7,a5,0x10
    3e08:	0108de13          	srli	t3,a7,0x10
    3e0c:	001e7e93          	andi	t4,t3,1
    3e10:	001e5393          	srli	t2,t3,0x1
    3e14:	00de8c63          	beq	t4,a3,3e2c <crcu32+0x144>
    3e18:	ffffaf37          	lui	t5,0xffffa
    3e1c:	001f0f93          	addi	t6,t5,1 # ffffa001 <_sp+0xefff7001>
    3e20:	01f3c833          	xor	a6,t2,t6
    3e24:	01081293          	slli	t0,a6,0x10
    3e28:	0102d393          	srli	t2,t0,0x10
    3e2c:	00835313          	srli	t1,t1,0x8
    3e30:	0063c633          	xor	a2,t2,t1
    3e34:	0ff37713          	andi	a4,t1,255
    3e38:	00167693          	andi	a3,a2,1
    3e3c:	00175593          	srli	a1,a4,0x1
    3e40:	0013df13          	srli	t5,t2,0x1
    3e44:	00068c63          	beqz	a3,3e5c <crcu32+0x174>
    3e48:	ffffa8b7          	lui	a7,0xffffa
    3e4c:	00188e13          	addi	t3,a7,1 # ffffa001 <_sp+0xefff7001>
    3e50:	01cf47b3          	xor	a5,t5,t3
    3e54:	01079e93          	slli	t4,a5,0x10
    3e58:	010edf13          	srli	t5,t4,0x10
    3e5c:	00bf4fb3          	xor	t6,t5,a1
    3e60:	001ff813          	andi	a6,t6,1
    3e64:	00275293          	srli	t0,a4,0x2
    3e68:	001f5593          	srli	a1,t5,0x1
    3e6c:	00080c63          	beqz	a6,3e84 <crcu32+0x19c>
    3e70:	ffffa3b7          	lui	t2,0xffffa
    3e74:	00138313          	addi	t1,t2,1 # ffffa001 <_sp+0xefff7001>
    3e78:	0065c633          	xor	a2,a1,t1
    3e7c:	01061693          	slli	a3,a2,0x10
    3e80:	0106d593          	srli	a1,a3,0x10
    3e84:	0055c8b3          	xor	a7,a1,t0
    3e88:	0018fe13          	andi	t3,a7,1
    3e8c:	00375e93          	srli	t4,a4,0x3
    3e90:	0015d293          	srli	t0,a1,0x1
    3e94:	000e0c63          	beqz	t3,3eac <crcu32+0x1c4>
    3e98:	ffffaf37          	lui	t5,0xffffa
    3e9c:	001f0f93          	addi	t6,t5,1 # ffffa001 <_sp+0xefff7001>
    3ea0:	01f2c7b3          	xor	a5,t0,t6
    3ea4:	01079813          	slli	a6,a5,0x10
    3ea8:	01085293          	srli	t0,a6,0x10
    3eac:	01d2c3b3          	xor	t2,t0,t4
    3eb0:	0013f313          	andi	t1,t2,1
    3eb4:	00475693          	srli	a3,a4,0x4
    3eb8:	0012de93          	srli	t4,t0,0x1
    3ebc:	00030c63          	beqz	t1,3ed4 <crcu32+0x1ec>
    3ec0:	ffffa637          	lui	a2,0xffffa
    3ec4:	00160593          	addi	a1,a2,1 # ffffa001 <_sp+0xefff7001>
    3ec8:	00bec8b3          	xor	a7,t4,a1
    3ecc:	01089e13          	slli	t3,a7,0x10
    3ed0:	010e5e93          	srli	t4,t3,0x10
    3ed4:	00decf33          	xor	t5,t4,a3
    3ed8:	001f7f93          	andi	t6,t5,1
    3edc:	00575813          	srli	a6,a4,0x5
    3ee0:	001ed593          	srli	a1,t4,0x1
    3ee4:	000f8c63          	beqz	t6,3efc <crcu32+0x214>
    3ee8:	ffffa2b7          	lui	t0,0xffffa
    3eec:	00128393          	addi	t2,t0,1 # ffffa001 <_sp+0xefff7001>
    3ef0:	0075c7b3          	xor	a5,a1,t2
    3ef4:	01079313          	slli	t1,a5,0x10
    3ef8:	01035593          	srli	a1,t1,0x10
    3efc:	0105c6b3          	xor	a3,a1,a6
    3f00:	0016f613          	andi	a2,a3,1
    3f04:	00675893          	srli	a7,a4,0x6
    3f08:	0015d813          	srli	a6,a1,0x1
    3f0c:	00060c63          	beqz	a2,3f24 <crcu32+0x23c>
    3f10:	ffffae37          	lui	t3,0xffffa
    3f14:	001e0e93          	addi	t4,t3,1 # ffffa001 <_sp+0xefff7001>
    3f18:	01d84f33          	xor	t5,a6,t4
    3f1c:	010f1f93          	slli	t6,t5,0x10
    3f20:	010fd813          	srli	a6,t6,0x10
    3f24:	011842b3          	xor	t0,a6,a7
    3f28:	0012f393          	andi	t2,t0,1
    3f2c:	00775713          	srli	a4,a4,0x7
    3f30:	00185613          	srli	a2,a6,0x1
    3f34:	00038c63          	beqz	t2,3f4c <crcu32+0x264>
    3f38:	ffffa337          	lui	t1,0xffffa
    3f3c:	00130593          	addi	a1,t1,1 # ffffa001 <_sp+0xefff7001>
    3f40:	00b647b3          	xor	a5,a2,a1
    3f44:	01079693          	slli	a3,a5,0x10
    3f48:	0106d613          	srli	a2,a3,0x10
    3f4c:	00167893          	andi	a7,a2,1
    3f50:	00165813          	srli	a6,a2,0x1
    3f54:	00e88c63          	beq	a7,a4,3f6c <crcu32+0x284>
    3f58:	ffffae37          	lui	t3,0xffffa
    3f5c:	001e0e93          	addi	t4,t3,1 # ffffa001 <_sp+0xefff7001>
    3f60:	01d84f33          	xor	t5,a6,t4
    3f64:	010f1f93          	slli	t6,t5,0x10
    3f68:	010fd813          	srli	a6,t6,0x10
    3f6c:	01055513          	srli	a0,a0,0x10
    3f70:	00a842b3          	xor	t0,a6,a0
    3f74:	0ff57393          	andi	t2,a0,255
    3f78:	01051313          	slli	t1,a0,0x10
    3f7c:	0012f713          	andi	a4,t0,1
    3f80:	01035593          	srli	a1,t1,0x10
    3f84:	0013d693          	srli	a3,t2,0x1
    3f88:	00185e93          	srli	t4,a6,0x1
    3f8c:	00070c63          	beqz	a4,3fa4 <crcu32+0x2bc>
    3f90:	ffffa7b7          	lui	a5,0xffffa
    3f94:	00178613          	addi	a2,a5,1 # ffffa001 <_sp+0xefff7001>
    3f98:	00cec8b3          	xor	a7,t4,a2
    3f9c:	01089e13          	slli	t3,a7,0x10
    3fa0:	010e5e93          	srli	t4,t3,0x10
    3fa4:	00decf33          	xor	t5,t4,a3
    3fa8:	001f7f93          	andi	t6,t5,1
    3fac:	0023d813          	srli	a6,t2,0x2
    3fb0:	001ed693          	srli	a3,t4,0x1
    3fb4:	000f8c63          	beqz	t6,3fcc <crcu32+0x2e4>
    3fb8:	ffffa2b7          	lui	t0,0xffffa
    3fbc:	00128713          	addi	a4,t0,1 # ffffa001 <_sp+0xefff7001>
    3fc0:	00e6c533          	xor	a0,a3,a4
    3fc4:	01051313          	slli	t1,a0,0x10
    3fc8:	01035693          	srli	a3,t1,0x10
    3fcc:	0106c7b3          	xor	a5,a3,a6
    3fd0:	0017f893          	andi	a7,a5,1
    3fd4:	0033d613          	srli	a2,t2,0x3
    3fd8:	0016d813          	srli	a6,a3,0x1
    3fdc:	00088c63          	beqz	a7,3ff4 <crcu32+0x30c>
    3fe0:	ffffae37          	lui	t3,0xffffa
    3fe4:	001e0e93          	addi	t4,t3,1 # ffffa001 <_sp+0xefff7001>
    3fe8:	01d84f33          	xor	t5,a6,t4
    3fec:	010f1f93          	slli	t6,t5,0x10
    3ff0:	010fd813          	srli	a6,t6,0x10
    3ff4:	00c842b3          	xor	t0,a6,a2
    3ff8:	0012f713          	andi	a4,t0,1
    3ffc:	0043d313          	srli	t1,t2,0x4
    4000:	00185e13          	srli	t3,a6,0x1
    4004:	00070c63          	beqz	a4,401c <crcu32+0x334>
    4008:	ffffa6b7          	lui	a3,0xffffa
    400c:	00168793          	addi	a5,a3,1 # ffffa001 <_sp+0xefff7001>
    4010:	00fe4533          	xor	a0,t3,a5
    4014:	01051893          	slli	a7,a0,0x10
    4018:	0108de13          	srli	t3,a7,0x10
    401c:	006e4633          	xor	a2,t3,t1
    4020:	00167e93          	andi	t4,a2,1
    4024:	0053df13          	srli	t5,t2,0x5
    4028:	001e5313          	srli	t1,t3,0x1
    402c:	000e8c63          	beqz	t4,4044 <crcu32+0x35c>
    4030:	ffffafb7          	lui	t6,0xffffa
    4034:	001f8813          	addi	a6,t6,1 # ffffa001 <_sp+0xefff7001>
    4038:	010342b3          	xor	t0,t1,a6
    403c:	01029713          	slli	a4,t0,0x10
    4040:	01075313          	srli	t1,a4,0x10
    4044:	01e346b3          	xor	a3,t1,t5
    4048:	0016f893          	andi	a7,a3,1
    404c:	0063d793          	srli	a5,t2,0x6
    4050:	00135f13          	srli	t5,t1,0x1
    4054:	00088c63          	beqz	a7,406c <crcu32+0x384>
    4058:	ffffae37          	lui	t3,0xffffa
    405c:	001e0613          	addi	a2,t3,1 # ffffa001 <_sp+0xefff7001>
    4060:	00cf4533          	xor	a0,t5,a2
    4064:	01051e93          	slli	t4,a0,0x10
    4068:	010edf13          	srli	t5,t4,0x10
    406c:	00ff4fb3          	xor	t6,t5,a5
    4070:	001ff813          	andi	a6,t6,1
    4074:	0073d393          	srli	t2,t2,0x7
    4078:	001f5893          	srli	a7,t5,0x1
    407c:	00080c63          	beqz	a6,4094 <crcu32+0x3ac>
    4080:	ffffa2b7          	lui	t0,0xffffa
    4084:	00128713          	addi	a4,t0,1 # ffffa001 <_sp+0xefff7001>
    4088:	00e8c333          	xor	t1,a7,a4
    408c:	01031693          	slli	a3,t1,0x10
    4090:	0106d893          	srli	a7,a3,0x10
    4094:	0018f793          	andi	a5,a7,1
    4098:	0018df13          	srli	t5,a7,0x1
    409c:	00778c63          	beq	a5,t2,40b4 <crcu32+0x3cc>
    40a0:	ffffae37          	lui	t3,0xffffa
    40a4:	001e0613          	addi	a2,t3,1 # ffffa001 <_sp+0xefff7001>
    40a8:	00cf4533          	xor	a0,t5,a2
    40ac:	01051e93          	slli	t4,a0,0x10
    40b0:	010edf13          	srli	t5,t4,0x10
    40b4:	0085d593          	srli	a1,a1,0x8
    40b8:	01e5cfb3          	xor	t6,a1,t5
    40bc:	0ff5f813          	andi	a6,a1,255
    40c0:	001ff393          	andi	t2,t6,1
    40c4:	00185293          	srli	t0,a6,0x1
    40c8:	001f5793          	srli	a5,t5,0x1
    40cc:	00038c63          	beqz	t2,40e4 <crcu32+0x3fc>
    40d0:	ffffa737          	lui	a4,0xffffa
    40d4:	00170313          	addi	t1,a4,1 # ffffa001 <_sp+0xefff7001>
    40d8:	0067c6b3          	xor	a3,a5,t1
    40dc:	01069893          	slli	a7,a3,0x10
    40e0:	0108d793          	srli	a5,a7,0x10
    40e4:	00f2ce33          	xor	t3,t0,a5
    40e8:	001e7613          	andi	a2,t3,1
    40ec:	00285e93          	srli	t4,a6,0x2
    40f0:	0017d393          	srli	t2,a5,0x1
    40f4:	00060c63          	beqz	a2,410c <crcu32+0x424>
    40f8:	ffffaf37          	lui	t5,0xffffa
    40fc:	001f0593          	addi	a1,t5,1 # ffffa001 <_sp+0xefff7001>
    4100:	00b3c533          	xor	a0,t2,a1
    4104:	01051f93          	slli	t6,a0,0x10
    4108:	010fd393          	srli	t2,t6,0x10
    410c:	007ec2b3          	xor	t0,t4,t2
    4110:	0012f713          	andi	a4,t0,1
    4114:	00385313          	srli	t1,a6,0x3
    4118:	0013d613          	srli	a2,t2,0x1
    411c:	00070c63          	beqz	a4,4134 <crcu32+0x44c>
    4120:	ffffa6b7          	lui	a3,0xffffa
    4124:	00168893          	addi	a7,a3,1 # ffffa001 <_sp+0xefff7001>
    4128:	011647b3          	xor	a5,a2,a7
    412c:	01079e13          	slli	t3,a5,0x10
    4130:	010e5613          	srli	a2,t3,0x10
    4134:	00664eb3          	xor	t4,a2,t1
    4138:	001eff13          	andi	t5,t4,1
    413c:	00485593          	srli	a1,a6,0x4
    4140:	00165313          	srli	t1,a2,0x1
    4144:	000f0c63          	beqz	t5,415c <crcu32+0x474>
    4148:	ffffafb7          	lui	t6,0xffffa
    414c:	001f8393          	addi	t2,t6,1 # ffffa001 <_sp+0xefff7001>
    4150:	00734533          	xor	a0,t1,t2
    4154:	01051293          	slli	t0,a0,0x10
    4158:	0102d313          	srli	t1,t0,0x10
    415c:	00b34733          	xor	a4,t1,a1
    4160:	00177893          	andi	a7,a4,1
    4164:	00585693          	srli	a3,a6,0x5
    4168:	00135f13          	srli	t5,t1,0x1
    416c:	00088c63          	beqz	a7,4184 <crcu32+0x49c>
    4170:	ffffa7b7          	lui	a5,0xffffa
    4174:	00178e13          	addi	t3,a5,1 # ffffa001 <_sp+0xefff7001>
    4178:	01cf4633          	xor	a2,t5,t3
    417c:	01061e93          	slli	t4,a2,0x10
    4180:	010edf13          	srli	t5,t4,0x10
    4184:	00df45b3          	xor	a1,t5,a3
    4188:	0015ff93          	andi	t6,a1,1
    418c:	00685393          	srli	t2,a6,0x6
    4190:	001f5893          	srli	a7,t5,0x1
    4194:	000f8c63          	beqz	t6,41ac <crcu32+0x4c4>
    4198:	ffffa2b7          	lui	t0,0xffffa
    419c:	00128313          	addi	t1,t0,1 # ffffa001 <_sp+0xefff7001>
    41a0:	0068c533          	xor	a0,a7,t1
    41a4:	01051713          	slli	a4,a0,0x10
    41a8:	01075893          	srli	a7,a4,0x10
    41ac:	0078c6b3          	xor	a3,a7,t2
    41b0:	0016fe13          	andi	t3,a3,1
    41b4:	00785813          	srli	a6,a6,0x7
    41b8:	0018d593          	srli	a1,a7,0x1
    41bc:	000e0c63          	beqz	t3,41d4 <crcu32+0x4ec>
    41c0:	ffffa7b7          	lui	a5,0xffffa
    41c4:	00178613          	addi	a2,a5,1 # ffffa001 <_sp+0xefff7001>
    41c8:	00c5ceb3          	xor	t4,a1,a2
    41cc:	010e9f13          	slli	t5,t4,0x10
    41d0:	010f5593          	srli	a1,t5,0x10
    41d4:	0015ff93          	andi	t6,a1,1
    41d8:	0015d513          	srli	a0,a1,0x1
    41dc:	010f8c63          	beq	t6,a6,41f4 <crcu32+0x50c>
    41e0:	ffffa3b7          	lui	t2,0xffffa
    41e4:	00138293          	addi	t0,t2,1 # ffffa001 <_sp+0xefff7001>
    41e8:	00554333          	xor	t1,a0,t0
    41ec:	01031513          	slli	a0,t1,0x10
    41f0:	01055513          	srli	a0,a0,0x10
    41f4:	00008067          	ret

000041f8 <crc16>:
    41f8:	00a5c633          	xor	a2,a1,a0
    41fc:	0ff57713          	andi	a4,a0,255
    4200:	01051793          	slli	a5,a0,0x10
    4204:	00167293          	andi	t0,a2,1
    4208:	0107d313          	srli	t1,a5,0x10
    420c:	00175693          	srli	a3,a4,0x1
    4210:	0015d893          	srli	a7,a1,0x1
    4214:	00028c63          	beqz	t0,422c <crc16+0x34>
    4218:	ffffa5b7          	lui	a1,0xffffa
    421c:	00158393          	addi	t2,a1,1 # ffffa001 <_sp+0xefff7001>
    4220:	0078c533          	xor	a0,a7,t2
    4224:	01051813          	slli	a6,a0,0x10
    4228:	01085893          	srli	a7,a6,0x10
    422c:	00d8ce33          	xor	t3,a7,a3
    4230:	001e7e93          	andi	t4,t3,1
    4234:	00275f13          	srli	t5,a4,0x2
    4238:	0018d593          	srli	a1,a7,0x1
    423c:	000e8c63          	beqz	t4,4254 <crc16+0x5c>
    4240:	ffffafb7          	lui	t6,0xffffa
    4244:	001f8613          	addi	a2,t6,1 # ffffa001 <_sp+0xefff7001>
    4248:	00c5c2b3          	xor	t0,a1,a2
    424c:	01029793          	slli	a5,t0,0x10
    4250:	0107d593          	srli	a1,a5,0x10
    4254:	01e5c6b3          	xor	a3,a1,t5
    4258:	0016f393          	andi	t2,a3,1
    425c:	00375813          	srli	a6,a4,0x3
    4260:	0015df13          	srli	t5,a1,0x1
    4264:	00038c63          	beqz	t2,427c <crc16+0x84>
    4268:	ffffa8b7          	lui	a7,0xffffa
    426c:	00188e13          	addi	t3,a7,1 # ffffa001 <_sp+0xefff7001>
    4270:	01cf4533          	xor	a0,t5,t3
    4274:	01051e93          	slli	t4,a0,0x10
    4278:	010edf13          	srli	t5,t4,0x10
    427c:	010f4fb3          	xor	t6,t5,a6
    4280:	001ff613          	andi	a2,t6,1
    4284:	00475293          	srli	t0,a4,0x4
    4288:	001f5813          	srli	a6,t5,0x1
    428c:	00060c63          	beqz	a2,42a4 <crc16+0xac>
    4290:	ffffa7b7          	lui	a5,0xffffa
    4294:	00178593          	addi	a1,a5,1 # ffffa001 <_sp+0xefff7001>
    4298:	00b846b3          	xor	a3,a6,a1
    429c:	01069393          	slli	t2,a3,0x10
    42a0:	0103d813          	srli	a6,t2,0x10
    42a4:	005848b3          	xor	a7,a6,t0
    42a8:	0018fe13          	andi	t3,a7,1
    42ac:	00575e93          	srli	t4,a4,0x5
    42b0:	00185293          	srli	t0,a6,0x1
    42b4:	000e0c63          	beqz	t3,42cc <crc16+0xd4>
    42b8:	ffffaf37          	lui	t5,0xffffa
    42bc:	001f0f93          	addi	t6,t5,1 # ffffa001 <_sp+0xefff7001>
    42c0:	01f2c533          	xor	a0,t0,t6
    42c4:	01051613          	slli	a2,a0,0x10
    42c8:	01065293          	srli	t0,a2,0x10
    42cc:	01d2c7b3          	xor	a5,t0,t4
    42d0:	0017f593          	andi	a1,a5,1
    42d4:	00675693          	srli	a3,a4,0x6
    42d8:	0012de93          	srli	t4,t0,0x1
    42dc:	00058c63          	beqz	a1,42f4 <crc16+0xfc>
    42e0:	ffffa3b7          	lui	t2,0xffffa
    42e4:	00138813          	addi	a6,t2,1 # ffffa001 <_sp+0xefff7001>
    42e8:	010ec8b3          	xor	a7,t4,a6
    42ec:	01089e13          	slli	t3,a7,0x10
    42f0:	010e5e93          	srli	t4,t3,0x10
    42f4:	00decf33          	xor	t5,t4,a3
    42f8:	001f7f93          	andi	t6,t5,1
    42fc:	00775713          	srli	a4,a4,0x7
    4300:	001ed593          	srli	a1,t4,0x1
    4304:	000f8c63          	beqz	t6,431c <crc16+0x124>
    4308:	ffffa637          	lui	a2,0xffffa
    430c:	00160293          	addi	t0,a2,1 # ffffa001 <_sp+0xefff7001>
    4310:	0055c533          	xor	a0,a1,t0
    4314:	01051793          	slli	a5,a0,0x10
    4318:	0107d593          	srli	a1,a5,0x10
    431c:	0015f693          	andi	a3,a1,1
    4320:	0015de93          	srli	t4,a1,0x1
    4324:	00e68c63          	beq	a3,a4,433c <crc16+0x144>
    4328:	ffffa3b7          	lui	t2,0xffffa
    432c:	00138813          	addi	a6,t2,1 # ffffa001 <_sp+0xefff7001>
    4330:	010ec8b3          	xor	a7,t4,a6
    4334:	01089e13          	slli	t3,a7,0x10
    4338:	010e5e93          	srli	t4,t3,0x10
    433c:	00835313          	srli	t1,t1,0x8
    4340:	01d34f33          	xor	t5,t1,t4
    4344:	0ff37f93          	andi	t6,t1,255
    4348:	001f7713          	andi	a4,t5,1
    434c:	001fd613          	srli	a2,t6,0x1
    4350:	001ed393          	srli	t2,t4,0x1
    4354:	00070c63          	beqz	a4,436c <crc16+0x174>
    4358:	ffffa2b7          	lui	t0,0xffffa
    435c:	00128793          	addi	a5,t0,1 # ffffa001 <_sp+0xefff7001>
    4360:	00f3c533          	xor	a0,t2,a5
    4364:	01051593          	slli	a1,a0,0x10
    4368:	0105d393          	srli	t2,a1,0x10
    436c:	007646b3          	xor	a3,a2,t2
    4370:	0016f813          	andi	a6,a3,1
    4374:	002fd893          	srli	a7,t6,0x2
    4378:	0013d613          	srli	a2,t2,0x1
    437c:	00080c63          	beqz	a6,4394 <crc16+0x19c>
    4380:	ffffae37          	lui	t3,0xffffa
    4384:	001e0e93          	addi	t4,t3,1 # ffffa001 <_sp+0xefff7001>
    4388:	01d64333          	xor	t1,a2,t4
    438c:	01031f13          	slli	t5,t1,0x10
    4390:	010f5613          	srli	a2,t5,0x10
    4394:	01164733          	xor	a4,a2,a7
    4398:	00177293          	andi	t0,a4,1
    439c:	003fd793          	srli	a5,t6,0x3
    43a0:	00165813          	srli	a6,a2,0x1
    43a4:	00028c63          	beqz	t0,43bc <crc16+0x1c4>
    43a8:	ffffa5b7          	lui	a1,0xffffa
    43ac:	00158393          	addi	t2,a1,1 # ffffa001 <_sp+0xefff7001>
    43b0:	00784533          	xor	a0,a6,t2
    43b4:	01051693          	slli	a3,a0,0x10
    43b8:	0106d813          	srli	a6,a3,0x10
    43bc:	00f848b3          	xor	a7,a6,a5
